{
	"contracts/Voting.sol": {
		"Voting": {
			"abi": [
				{
					"inputs": [
						{
							"internalType": "string[]",
							"name": "_options",
							"type": "string[]"
						}
					],
					"stateMutability": "nonpayable",
					"type": "constructor"
				},
				{
					"inputs": [],
					"name": "admin",
					"outputs": [
						{
							"internalType": "address",
							"name": "",
							"type": "address"
						}
					],
					"stateMutability": "view",
					"type": "function"
				},
				{
					"inputs": [
						{
							"internalType": "uint256",
							"name": "_option",
							"type": "uint256"
						}
					],
					"name": "castVote",
					"outputs": [],
					"stateMutability": "nonpayable",
					"type": "function"
				},
				{
					"inputs": [],
					"name": "endVoting",
					"outputs": [],
					"stateMutability": "nonpayable",
					"type": "function"
				},
				{
					"inputs": [],
					"name": "getResults",
					"outputs": [
						{
							"internalType": "uint256[]",
							"name": "",
							"type": "uint256[]"
						}
					],
					"stateMutability": "view",
					"type": "function"
				},
				{
					"inputs": [
						{
							"internalType": "uint256",
							"name": "",
							"type": "uint256"
						}
					],
					"name": "options",
					"outputs": [
						{
							"internalType": "string",
							"name": "",
							"type": "string"
						}
					],
					"stateMutability": "view",
					"type": "function"
				},
				{
					"inputs": [
						{
							"internalType": "address",
							"name": "_voter",
							"type": "address"
						}
					],
					"name": "registerVoter",
					"outputs": [],
					"stateMutability": "nonpayable",
					"type": "function"
				},
				{
					"inputs": [
						{
							"internalType": "uint256",
							"name": "durationInMinutes",
							"type": "uint256"
						}
					],
					"name": "startVoting",
					"outputs": [],
					"stateMutability": "nonpayable",
					"type": "function"
				},
				{
					"inputs": [
						{
							"internalType": "address",
							"name": "",
							"type": "address"
						}
					],
					"name": "voters",
					"outputs": [
						{
							"internalType": "bool",
							"name": "isRegistered",
							"type": "bool"
						},
						{
							"internalType": "bool",
							"name": "hasVoted",
							"type": "bool"
						},
						{
							"internalType": "uint256",
							"name": "vote",
							"type": "uint256"
						}
					],
					"stateMutability": "view",
					"type": "function"
				},
				{
					"inputs": [
						{
							"internalType": "uint256",
							"name": "",
							"type": "uint256"
						}
					],
					"name": "votes",
					"outputs": [
						{
							"internalType": "uint256",
							"name": "",
							"type": "uint256"
						}
					],
					"stateMutability": "view",
					"type": "function"
				},
				{
					"inputs": [],
					"name": "votingActive",
					"outputs": [
						{
							"internalType": "bool",
							"name": "",
							"type": "bool"
						}
					],
					"stateMutability": "view",
					"type": "function"
				},
				{
					"inputs": [],
					"name": "votingEndTime",
					"outputs": [
						{
							"internalType": "uint256",
							"name": "",
							"type": "uint256"
						}
					],
					"stateMutability": "view",
					"type": "function"
				}
			],
			"devdoc": {
				"kind": "dev",
				"methods": {},
				"version": 1
			},
			"evm": {
				"assembly": "    /* \"contracts/Voting.sol\":60:1820  contract Voting {... */\n  mstore(0x40, 0x80)\n    /* \"contracts/Voting.sol\":699:849  constructor(string[] memory _options) {... */\n  callvalue\n  dup1\n  iszero\n  tag_1\n  jumpi\n  0x00\n  dup1\n  revert\ntag_1:\n  pop\n  mload(0x40)\n  sub(codesize, bytecodeSize)\n  dup1\n  bytecodeSize\n  dup4\n  codecopy\n  dup2\n  dup2\n  add\n  0x40\n  mstore\n  dup2\n  add\n  swap1\n  tag_2\n  swap2\n  swap1\n  tag_3\n  jump\t// in\ntag_2:\n    /* \"contracts/Voting.sol\":756:766  msg.sender */\n  caller\n    /* \"contracts/Voting.sol\":748:753  admin */\n  0x00\n  dup1\n    /* \"contracts/Voting.sol\":748:766  admin = msg.sender */\n  0x0100\n  exp\n  dup2\n  sload\n  dup2\n  0xffffffffffffffffffffffffffffffffffffffff\n  mul\n  not\n  and\n  swap1\n  dup4\n  0xffffffffffffffffffffffffffffffffffffffff\n  and\n  mul\n  or\n  swap1\n  sstore\n  pop\n    /* \"contracts/Voting.sol\":787:795  _options */\n  dup1\n    /* \"contracts/Voting.sol\":777:784  options */\n  0x02\n    /* \"contracts/Voting.sol\":777:795  options = _options */\n  swap1\n  dup1\n  mload\n  swap1\n  0x20\n  add\n  swap1\n  tag_6\n  swap3\n  swap2\n  swap1\n  tag_7\n  jump\t// in\ntag_6:\n  pop\n    /* \"contracts/Voting.sol\":825:833  _options */\n  dup1\n    /* \"contracts/Voting.sol\":825:840  _options.length */\n  mload\n    /* \"contracts/Voting.sol\":814:841  new uint[](_options.length) */\n  0xffffffffffffffff\n  dup2\n  gt\n  iszero\n  tag_8\n  jumpi\n  tag_9\n  tag_10\n  jump\t// in\ntag_9:\ntag_8:\n  mload(0x40)\n  swap1\n  dup1\n  dup3\n  mstore\n  dup1\n  0x20\n  mul\n  0x20\n  add\n  dup3\n  add\n  0x40\n  mstore\n  dup1\n  iszero\n  tag_11\n  jumpi\n  dup2\n  0x20\n  add\n  0x20\n  dup3\n  mul\n  dup1\n  calldatasize\n  dup4\n  calldatacopy\n  dup1\n  dup3\n  add\n  swap2\n  pop\n  pop\n  swap1\n  pop\ntag_11:\n  pop\n    /* \"contracts/Voting.sol\":806:811  votes */\n  0x03\n    /* \"contracts/Voting.sol\":806:841  votes = new uint[](_options.length) */\n  swap1\n  dup1\n  mload\n  swap1\n  0x20\n  add\n  swap1\n  tag_12\n  swap3\n  swap2\n  swap1\n  tag_13\n  jump\t// in\ntag_12:\n  pop\n    /* \"contracts/Voting.sol\":699:849  constructor(string[] memory _options) {... */\n  pop\n    /* \"contracts/Voting.sol\":60:1820  contract Voting {... */\n  jump(tag_14)\ntag_7:\n  dup3\n  dup1\n  sload\n  dup3\n  dup3\n  sstore\n  swap1\n  0x00\n  mstore\n  keccak256(0x00, 0x20)\n  swap1\n  dup2\n  add\n  swap3\n  dup3\n  iszero\n  tag_15\n  jumpi\n  swap2\n  0x20\n  mul\n  dup3\n  add\ntag_16:\n  dup3\n  dup2\n  gt\n  iszero\n  tag_17\n  jumpi\n  dup3\n  mload\n  dup3\n  swap1\n  dup2\n  tag_18\n  swap2\n  swap1\n  tag_19\n  jump\t// in\ntag_18:\n  pop\n  swap2\n  0x20\n  add\n  swap2\n  swap1\n  0x01\n  add\n  swap1\n  jump(tag_16)\ntag_17:\ntag_15:\n  pop\n  swap1\n  pop\n  tag_20\n  swap2\n  swap1\n  tag_21\n  jump\t// in\ntag_20:\n  pop\n  swap1\n  jump\t// out\ntag_13:\n  dup3\n  dup1\n  sload\n  dup3\n  dup3\n  sstore\n  swap1\n  0x00\n  mstore\n  keccak256(0x00, 0x20)\n  swap1\n  dup2\n  add\n  swap3\n  dup3\n  iszero\n  tag_22\n  jumpi\n  swap2\n  0x20\n  mul\n  dup3\n  add\ntag_23:\n  dup3\n  dup2\n  gt\n  iszero\n  tag_24\n  jumpi\n  dup3\n  mload\n  dup3\n  sstore\n  swap2\n  0x20\n  add\n  swap2\n  swap1\n  0x01\n  add\n  swap1\n  jump(tag_23)\ntag_24:\ntag_22:\n  pop\n  swap1\n  pop\n  tag_25\n  swap2\n  swap1\n  tag_26\n  jump\t// in\ntag_25:\n  pop\n  swap1\n  jump\t// out\ntag_21:\ntag_27:\n  dup1\n  dup3\n  gt\n  iszero\n  tag_28\n  jumpi\n  0x00\n  dup2\n  dup2\n  tag_29\n  swap2\n  swap1\n  tag_30\n  jump\t// in\ntag_29:\n  pop\n  0x01\n  add\n  jump(tag_27)\ntag_28:\n  pop\n  swap1\n  jump\t// out\ntag_26:\ntag_31:\n  dup1\n  dup3\n  gt\n  iszero\n  tag_32\n  jumpi\n  0x00\n  dup2\n  0x00\n  swap1\n  sstore\n  pop\n  0x01\n  add\n  jump(tag_31)\ntag_32:\n  pop\n  swap1\n  jump\t// out\ntag_30:\n  pop\n  dup1\n  sload\n  tag_33\n  swap1\n  tag_34\n  jump\t// in\ntag_33:\n  0x00\n  dup3\n  sstore\n  dup1\n  0x1f\n  lt\n  tag_36\n  jumpi\n  pop\n  jump(tag_35)\ntag_36:\n  0x1f\n  add\n  0x20\n  swap1\n  div\n  swap1\n  0x00\n  mstore\n  keccak256(0x00, 0x20)\n  swap1\n  dup2\n  add\n  swap1\n  tag_37\n  swap2\n  swap1\n  tag_26\n  jump\t// in\ntag_37:\ntag_35:\n  pop\n  jump\t// out\n    /* \"#utility.yul\":7:82   */\ntag_38:\n    /* \"#utility.yul\":40:46   */\n  0x00\n    /* \"#utility.yul\":73:75   */\n  0x40\n    /* \"#utility.yul\":67:76   */\n  mload\n    /* \"#utility.yul\":57:76   */\n  swap1\n  pop\n    /* \"#utility.yul\":7:82   */\n  swap1\n  jump\t// out\n    /* \"#utility.yul\":88:205   */\ntag_39:\n    /* \"#utility.yul\":197:198   */\n  0x00\n    /* \"#utility.yul\":194:195   */\n  dup1\n    /* \"#utility.yul\":187:199   */\n  revert\n    /* \"#utility.yul\":211:328   */\ntag_40:\n    /* \"#utility.yul\":320:321   */\n  0x00\n    /* \"#utility.yul\":317:318   */\n  dup1\n    /* \"#utility.yul\":310:322   */\n  revert\n    /* \"#utility.yul\":334:451   */\ntag_41:\n    /* \"#utility.yul\":443:444   */\n  0x00\n    /* \"#utility.yul\":440:441   */\n  dup1\n    /* \"#utility.yul\":433:445   */\n  revert\n    /* \"#utility.yul\":457:559   */\ntag_42:\n    /* \"#utility.yul\":498:504   */\n  0x00\n    /* \"#utility.yul\":549:551   */\n  0x1f\n    /* \"#utility.yul\":545:552   */\n  not\n    /* \"#utility.yul\":540:542   */\n  0x1f\n    /* \"#utility.yul\":533:538   */\n  dup4\n    /* \"#utility.yul\":529:543   */\n  add\n    /* \"#utility.yul\":525:553   */\n  and\n    /* \"#utility.yul\":515:553   */\n  swap1\n  pop\n    /* \"#utility.yul\":457:559   */\n  swap2\n  swap1\n  pop\n  jump\t// out\n    /* \"#utility.yul\":565:745   */\ntag_10:\n    /* \"#utility.yul\":613:690   */\n  0x4e487b7100000000000000000000000000000000000000000000000000000000\n    /* \"#utility.yul\":610:611   */\n  0x00\n    /* \"#utility.yul\":603:691   */\n  mstore\n    /* \"#utility.yul\":710:714   */\n  0x41\n    /* \"#utility.yul\":707:708   */\n  0x04\n    /* \"#utility.yul\":700:715   */\n  mstore\n    /* \"#utility.yul\":734:738   */\n  0x24\n    /* \"#utility.yul\":731:732   */\n  0x00\n    /* \"#utility.yul\":724:739   */\n  revert\n    /* \"#utility.yul\":751:1032   */\ntag_43:\n    /* \"#utility.yul\":834:861   */\n  tag_80\n    /* \"#utility.yul\":856:860   */\n  dup3\n    /* \"#utility.yul\":834:861   */\n  tag_42\n  jump\t// in\ntag_80:\n    /* \"#utility.yul\":826:832   */\n  dup2\n    /* \"#utility.yul\":822:862   */\n  add\n    /* \"#utility.yul\":964:970   */\n  dup2\n    /* \"#utility.yul\":952:962   */\n  dup2\n    /* \"#utility.yul\":949:971   */\n  lt\n    /* \"#utility.yul\":928:946   */\n  0xffffffffffffffff\n    /* \"#utility.yul\":916:926   */\n  dup3\n    /* \"#utility.yul\":913:947   */\n  gt\n    /* \"#utility.yul\":910:972   */\n  or\n    /* \"#utility.yul\":907:995   */\n  iszero\n  tag_81\n  jumpi\n    /* \"#utility.yul\":975:993   */\n  tag_82\n  tag_10\n  jump\t// in\ntag_82:\n    /* \"#utility.yul\":907:995   */\ntag_81:\n    /* \"#utility.yul\":1015:1025   */\n  dup1\n    /* \"#utility.yul\":1011:1013   */\n  0x40\n    /* \"#utility.yul\":1004:1026   */\n  mstore\n    /* \"#utility.yul\":794:1032   */\n  pop\n    /* \"#utility.yul\":751:1032   */\n  pop\n  pop\n  jump\t// out\n    /* \"#utility.yul\":1038:1167   */\ntag_44:\n    /* \"#utility.yul\":1072:1078   */\n  0x00\n    /* \"#utility.yul\":1099:1119   */\n  tag_84\n  tag_38\n  jump\t// in\ntag_84:\n    /* \"#utility.yul\":1089:1119   */\n  swap1\n  pop\n    /* \"#utility.yul\":1128:1161   */\n  tag_85\n    /* \"#utility.yul\":1156:1160   */\n  dup3\n    /* \"#utility.yul\":1148:1154   */\n  dup3\n    /* \"#utility.yul\":1128:1161   */\n  tag_43\n  jump\t// in\ntag_85:\n    /* \"#utility.yul\":1038:1167   */\n  swap2\n  swap1\n  pop\n  jump\t// out\n    /* \"#utility.yul\":1173:1494   */\ntag_45:\n    /* \"#utility.yul\":1260:1264   */\n  0x00\n    /* \"#utility.yul\":1350:1368   */\n  0xffffffffffffffff\n    /* \"#utility.yul\":1342:1348   */\n  dup3\n    /* \"#utility.yul\":1339:1369   */\n  gt\n    /* \"#utility.yul\":1336:1392   */\n  iszero\n  tag_87\n  jumpi\n    /* \"#utility.yul\":1372:1390   */\n  tag_88\n  tag_10\n  jump\t// in\ntag_88:\n    /* \"#utility.yul\":1336:1392   */\ntag_87:\n    /* \"#utility.yul\":1422:1426   */\n  0x20\n    /* \"#utility.yul\":1414:1420   */\n  dup3\n    /* \"#utility.yul\":1410:1427   */\n  mul\n    /* \"#utility.yul\":1402:1427   */\n  swap1\n  pop\n    /* \"#utility.yul\":1482:1486   */\n  0x20\n    /* \"#utility.yul\":1476:1480   */\n  dup2\n    /* \"#utility.yul\":1472:1487   */\n  add\n    /* \"#utility.yul\":1464:1487   */\n  swap1\n  pop\n    /* \"#utility.yul\":1173:1494   */\n  swap2\n  swap1\n  pop\n  jump\t// out\n    /* \"#utility.yul\":1500:1617   */\ntag_46:\n    /* \"#utility.yul\":1609:1610   */\n  0x00\n    /* \"#utility.yul\":1606:1607   */\n  dup1\n    /* \"#utility.yul\":1599:1611   */\n  revert\n    /* \"#utility.yul\":1623:1740   */\ntag_47:\n    /* \"#utility.yul\":1732:1733   */\n  0x00\n    /* \"#utility.yul\":1729:1730   */\n  dup1\n    /* \"#utility.yul\":1722:1734   */\n  revert\n    /* \"#utility.yul\":1746:2054   */\ntag_48:\n    /* \"#utility.yul\":1808:1812   */\n  0x00\n    /* \"#utility.yul\":1898:1916   */\n  0xffffffffffffffff\n    /* \"#utility.yul\":1890:1896   */\n  dup3\n    /* \"#utility.yul\":1887:1917   */\n  gt\n    /* \"#utility.yul\":1884:1940   */\n  iszero\n  tag_92\n  jumpi\n    /* \"#utility.yul\":1920:1938   */\n  tag_93\n  tag_10\n  jump\t// in\ntag_93:\n    /* \"#utility.yul\":1884:1940   */\ntag_92:\n    /* \"#utility.yul\":1958:1987   */\n  tag_94\n    /* \"#utility.yul\":1980:1986   */\n  dup3\n    /* \"#utility.yul\":1958:1987   */\n  tag_42\n  jump\t// in\ntag_94:\n    /* \"#utility.yul\":1950:1987   */\n  swap1\n  pop\n    /* \"#utility.yul\":2042:2046   */\n  0x20\n    /* \"#utility.yul\":2036:2040   */\n  dup2\n    /* \"#utility.yul\":2032:2047   */\n  add\n    /* \"#utility.yul\":2024:2047   */\n  swap1\n  pop\n    /* \"#utility.yul\":1746:2054   */\n  swap2\n  swap1\n  pop\n  jump\t// out\n    /* \"#utility.yul\":2060:2199   */\ntag_49:\n    /* \"#utility.yul\":2149:2155   */\n  dup3\n    /* \"#utility.yul\":2144:2147   */\n  dup2\n    /* \"#utility.yul\":2139:2142   */\n  dup4\n    /* \"#utility.yul\":2133:2156   */\n  mcopy\n    /* \"#utility.yul\":2190:2191   */\n  0x00\n    /* \"#utility.yul\":2181:2187   */\n  dup4\n    /* \"#utility.yul\":2176:2179   */\n  dup4\n    /* \"#utility.yul\":2172:2188   */\n  add\n    /* \"#utility.yul\":2165:2192   */\n  mstore\n    /* \"#utility.yul\":2060:2199   */\n  pop\n  pop\n  pop\n  jump\t// out\n    /* \"#utility.yul\":2205:2639   */\ntag_50:\n    /* \"#utility.yul\":2294:2299   */\n  0x00\n    /* \"#utility.yul\":2319:2385   */\n  tag_97\n    /* \"#utility.yul\":2335:2384   */\n  tag_98\n    /* \"#utility.yul\":2377:2383   */\n  dup5\n    /* \"#utility.yul\":2335:2384   */\n  tag_48\n  jump\t// in\ntag_98:\n    /* \"#utility.yul\":2319:2385   */\n  tag_44\n  jump\t// in\ntag_97:\n    /* \"#utility.yul\":2310:2385   */\n  swap1\n  pop\n    /* \"#utility.yul\":2408:2414   */\n  dup3\n    /* \"#utility.yul\":2401:2406   */\n  dup2\n    /* \"#utility.yul\":2394:2415   */\n  mstore\n    /* \"#utility.yul\":2446:2450   */\n  0x20\n    /* \"#utility.yul\":2439:2444   */\n  dup2\n    /* \"#utility.yul\":2435:2451   */\n  add\n    /* \"#utility.yul\":2484:2487   */\n  dup5\n    /* \"#utility.yul\":2475:2481   */\n  dup5\n    /* \"#utility.yul\":2470:2473   */\n  dup5\n    /* \"#utility.yul\":2466:2482   */\n  add\n    /* \"#utility.yul\":2463:2488   */\n  gt\n    /* \"#utility.yul\":2460:2572   */\n  iszero\n  tag_99\n  jumpi\n    /* \"#utility.yul\":2491:2570   */\n  tag_100\n  tag_47\n  jump\t// in\ntag_100:\n    /* \"#utility.yul\":2460:2572   */\ntag_99:\n    /* \"#utility.yul\":2581:2633   */\n  tag_101\n    /* \"#utility.yul\":2626:2632   */\n  dup5\n    /* \"#utility.yul\":2621:2624   */\n  dup3\n    /* \"#utility.yul\":2616:2619   */\n  dup6\n    /* \"#utility.yul\":2581:2633   */\n  tag_49\n  jump\t// in\ntag_101:\n    /* \"#utility.yul\":2300:2639   */\n  pop\n    /* \"#utility.yul\":2205:2639   */\n  swap4\n  swap3\n  pop\n  pop\n  pop\n  jump\t// out\n    /* \"#utility.yul\":2659:3014   */\ntag_51:\n    /* \"#utility.yul\":2726:2731   */\n  0x00\n    /* \"#utility.yul\":2775:2778   */\n  dup3\n    /* \"#utility.yul\":2768:2772   */\n  0x1f\n    /* \"#utility.yul\":2760:2766   */\n  dup4\n    /* \"#utility.yul\":2756:2773   */\n  add\n    /* \"#utility.yul\":2752:2779   */\n  slt\n    /* \"#utility.yul\":2742:2864   */\n  tag_103\n  jumpi\n    /* \"#utility.yul\":2783:2862   */\n  tag_104\n  tag_41\n  jump\t// in\ntag_104:\n    /* \"#utility.yul\":2742:2864   */\ntag_103:\n    /* \"#utility.yul\":2893:2899   */\n  dup2\n    /* \"#utility.yul\":2887:2900   */\n  mload\n    /* \"#utility.yul\":2918:3008   */\n  tag_105\n    /* \"#utility.yul\":3004:3007   */\n  dup5\n    /* \"#utility.yul\":2996:3002   */\n  dup3\n    /* \"#utility.yul\":2989:2993   */\n  0x20\n    /* \"#utility.yul\":2981:2987   */\n  dup7\n    /* \"#utility.yul\":2977:2994   */\n  add\n    /* \"#utility.yul\":2918:3008   */\n  tag_50\n  jump\t// in\ntag_105:\n    /* \"#utility.yul\":2909:3008   */\n  swap2\n  pop\n    /* \"#utility.yul\":2732:3014   */\n  pop\n    /* \"#utility.yul\":2659:3014   */\n  swap3\n  swap2\n  pop\n  pop\n  jump\t// out\n    /* \"#utility.yul\":3036:3996   */\ntag_52:\n    /* \"#utility.yul\":3153:3158   */\n  0x00\n    /* \"#utility.yul\":3178:3269   */\n  tag_107\n    /* \"#utility.yul\":3194:3268   */\n  tag_108\n    /* \"#utility.yul\":3261:3267   */\n  dup5\n    /* \"#utility.yul\":3194:3268   */\n  tag_45\n  jump\t// in\ntag_108:\n    /* \"#utility.yul\":3178:3269   */\n  tag_44\n  jump\t// in\ntag_107:\n    /* \"#utility.yul\":3169:3269   */\n  swap1\n  pop\n    /* \"#utility.yul\":3289:3294   */\n  dup1\n    /* \"#utility.yul\":3318:3324   */\n  dup4\n    /* \"#utility.yul\":3311:3316   */\n  dup3\n    /* \"#utility.yul\":3304:3325   */\n  mstore\n    /* \"#utility.yul\":3352:3356   */\n  0x20\n    /* \"#utility.yul\":3345:3350   */\n  dup3\n    /* \"#utility.yul\":3341:3357   */\n  add\n    /* \"#utility.yul\":3334:3357   */\n  swap1\n  pop\n    /* \"#utility.yul\":3405:3409   */\n  0x20\n    /* \"#utility.yul\":3397:3403   */\n  dup5\n    /* \"#utility.yul\":3393:3410   */\n  mul\n    /* \"#utility.yul\":3385:3391   */\n  dup4\n    /* \"#utility.yul\":3381:3411   */\n  add\n    /* \"#utility.yul\":3434:3437   */\n  dup6\n    /* \"#utility.yul\":3426:3432   */\n  dup2\n    /* \"#utility.yul\":3423:3438   */\n  gt\n    /* \"#utility.yul\":3420:3542   */\n  iszero\n  tag_109\n  jumpi\n    /* \"#utility.yul\":3453:3532   */\n  tag_110\n  tag_46\n  jump\t// in\ntag_110:\n    /* \"#utility.yul\":3420:3542   */\ntag_109:\n    /* \"#utility.yul\":3568:3574   */\n  dup4\n    /* \"#utility.yul\":3551:3990   */\ntag_111:\n    /* \"#utility.yul\":3585:3591   */\n  dup2\n    /* \"#utility.yul\":3580:3583   */\n  dup2\n    /* \"#utility.yul\":3577:3592   */\n  lt\n    /* \"#utility.yul\":3551:3990   */\n  iszero\n  tag_113\n  jumpi\n    /* \"#utility.yul\":3667:3670   */\n  dup1\n    /* \"#utility.yul\":3661:3671   */\n  mload\n    /* \"#utility.yul\":3703:3721   */\n  0xffffffffffffffff\n    /* \"#utility.yul\":3690:3701   */\n  dup2\n    /* \"#utility.yul\":3687:3722   */\n  gt\n    /* \"#utility.yul\":3684:3806   */\n  iszero\n  tag_114\n  jumpi\n    /* \"#utility.yul\":3725:3804   */\n  tag_115\n  tag_41\n  jump\t// in\ntag_115:\n    /* \"#utility.yul\":3684:3806   */\ntag_114:\n    /* \"#utility.yul\":3849:3860   */\n  dup1\n    /* \"#utility.yul\":3841:3847   */\n  dup7\n    /* \"#utility.yul\":3837:3861   */\n  add\n    /* \"#utility.yul\":3887:3945   */\n  tag_116\n    /* \"#utility.yul\":3941:3944   */\n  dup10\n    /* \"#utility.yul\":3929:3939   */\n  dup3\n    /* \"#utility.yul\":3887:3945   */\n  tag_51\n  jump\t// in\ntag_116:\n    /* \"#utility.yul\":3882:3885   */\n  dup6\n    /* \"#utility.yul\":3875:3946   */\n  mstore\n    /* \"#utility.yul\":3975:3979   */\n  0x20\n    /* \"#utility.yul\":3970:3973   */\n  dup6\n    /* \"#utility.yul\":3966:3980   */\n  add\n    /* \"#utility.yul\":3959:3980   */\n  swap5\n  pop\n    /* \"#utility.yul\":3627:3990   */\n  pop\n  pop\n    /* \"#utility.yul\":3611:3615   */\n  0x20\n    /* \"#utility.yul\":3606:3609   */\n  dup2\n    /* \"#utility.yul\":3602:3616   */\n  add\n    /* \"#utility.yul\":3595:3616   */\n  swap1\n  pop\n    /* \"#utility.yul\":3551:3990   */\n  jump(tag_111)\ntag_113:\n    /* \"#utility.yul\":3555:3576   */\n  pop\n    /* \"#utility.yul\":3159:3996   */\n  pop\n  pop\n    /* \"#utility.yul\":3036:3996   */\n  swap4\n  swap3\n  pop\n  pop\n  pop\n  jump\t// out\n    /* \"#utility.yul\":4018:4423   */\ntag_53:\n    /* \"#utility.yul\":4110:4115   */\n  0x00\n    /* \"#utility.yul\":4159:4162   */\n  dup3\n    /* \"#utility.yul\":4152:4156   */\n  0x1f\n    /* \"#utility.yul\":4144:4150   */\n  dup4\n    /* \"#utility.yul\":4140:4157   */\n  add\n    /* \"#utility.yul\":4136:4163   */\n  slt\n    /* \"#utility.yul\":4126:4248   */\n  tag_118\n  jumpi\n    /* \"#utility.yul\":4167:4246   */\n  tag_119\n  tag_41\n  jump\t// in\ntag_119:\n    /* \"#utility.yul\":4126:4248   */\ntag_118:\n    /* \"#utility.yul\":4277:4283   */\n  dup2\n    /* \"#utility.yul\":4271:4284   */\n  mload\n    /* \"#utility.yul\":4302:4417   */\n  tag_120\n    /* \"#utility.yul\":4413:4416   */\n  dup5\n    /* \"#utility.yul\":4405:4411   */\n  dup3\n    /* \"#utility.yul\":4398:4402   */\n  0x20\n    /* \"#utility.yul\":4390:4396   */\n  dup7\n    /* \"#utility.yul\":4386:4403   */\n  add\n    /* \"#utility.yul\":4302:4417   */\n  tag_52\n  jump\t// in\ntag_120:\n    /* \"#utility.yul\":4293:4417   */\n  swap2\n  pop\n    /* \"#utility.yul\":4116:4423   */\n  pop\n    /* \"#utility.yul\":4018:4423   */\n  swap3\n  swap2\n  pop\n  pop\n  jump\t// out\n    /* \"#utility.yul\":4429:5003   */\ntag_3:\n    /* \"#utility.yul\":4534:4540   */\n  0x00\n    /* \"#utility.yul\":4583:4585   */\n  0x20\n    /* \"#utility.yul\":4571:4580   */\n  dup3\n    /* \"#utility.yul\":4562:4569   */\n  dup5\n    /* \"#utility.yul\":4558:4581   */\n  sub\n    /* \"#utility.yul\":4554:4586   */\n  slt\n    /* \"#utility.yul\":4551:4670   */\n  iszero\n  tag_122\n  jumpi\n    /* \"#utility.yul\":4589:4668   */\n  tag_123\n  tag_39\n  jump\t// in\ntag_123:\n    /* \"#utility.yul\":4551:4670   */\ntag_122:\n    /* \"#utility.yul\":4730:4731   */\n  0x00\n    /* \"#utility.yul\":4719:4728   */\n  dup3\n    /* \"#utility.yul\":4715:4732   */\n  add\n    /* \"#utility.yul\":4709:4733   */\n  mload\n    /* \"#utility.yul\":4760:4778   */\n  0xffffffffffffffff\n    /* \"#utility.yul\":4752:4758   */\n  dup2\n    /* \"#utility.yul\":4749:4779   */\n  gt\n    /* \"#utility.yul\":4746:4863   */\n  iszero\n  tag_124\n  jumpi\n    /* \"#utility.yul\":4782:4861   */\n  tag_125\n  tag_40\n  jump\t// in\ntag_125:\n    /* \"#utility.yul\":4746:4863   */\ntag_124:\n    /* \"#utility.yul\":4887:4986   */\n  tag_126\n    /* \"#utility.yul\":4978:4985   */\n  dup5\n    /* \"#utility.yul\":4969:4975   */\n  dup3\n    /* \"#utility.yul\":4958:4967   */\n  dup6\n    /* \"#utility.yul\":4954:4976   */\n  add\n    /* \"#utility.yul\":4887:4986   */\n  tag_53\n  jump\t// in\ntag_126:\n    /* \"#utility.yul\":4877:4986   */\n  swap2\n  pop\n    /* \"#utility.yul\":4680:4996   */\n  pop\n    /* \"#utility.yul\":4429:5003   */\n  swap3\n  swap2\n  pop\n  pop\n  jump\t// out\n    /* \"#utility.yul\":5009:5108   */\ntag_54:\n    /* \"#utility.yul\":5061:5067   */\n  0x00\n    /* \"#utility.yul\":5095:5100   */\n  dup2\n    /* \"#utility.yul\":5089:5101   */\n  mload\n    /* \"#utility.yul\":5079:5101   */\n  swap1\n  pop\n    /* \"#utility.yul\":5009:5108   */\n  swap2\n  swap1\n  pop\n  jump\t// out\n    /* \"#utility.yul\":5114:5294   */\ntag_55:\n    /* \"#utility.yul\":5162:5239   */\n  0x4e487b7100000000000000000000000000000000000000000000000000000000\n    /* \"#utility.yul\":5159:5160   */\n  0x00\n    /* \"#utility.yul\":5152:5240   */\n  mstore\n    /* \"#utility.yul\":5259:5263   */\n  0x22\n    /* \"#utility.yul\":5256:5257   */\n  0x04\n    /* \"#utility.yul\":5249:5264   */\n  mstore\n    /* \"#utility.yul\":5283:5287   */\n  0x24\n    /* \"#utility.yul\":5280:5281   */\n  0x00\n    /* \"#utility.yul\":5273:5288   */\n  revert\n    /* \"#utility.yul\":5300:5620   */\ntag_34:\n    /* \"#utility.yul\":5344:5350   */\n  0x00\n    /* \"#utility.yul\":5381:5382   */\n  0x02\n    /* \"#utility.yul\":5375:5379   */\n  dup3\n    /* \"#utility.yul\":5371:5383   */\n  div\n    /* \"#utility.yul\":5361:5383   */\n  swap1\n  pop\n    /* \"#utility.yul\":5428:5429   */\n  0x01\n    /* \"#utility.yul\":5422:5426   */\n  dup3\n    /* \"#utility.yul\":5418:5430   */\n  and\n    /* \"#utility.yul\":5449:5467   */\n  dup1\n    /* \"#utility.yul\":5439:5520   */\n  tag_130\n  jumpi\n    /* \"#utility.yul\":5505:5509   */\n  0x7f\n    /* \"#utility.yul\":5497:5503   */\n  dup3\n    /* \"#utility.yul\":5493:5510   */\n  and\n    /* \"#utility.yul\":5483:5510   */\n  swap2\n  pop\n    /* \"#utility.yul\":5439:5520   */\ntag_130:\n    /* \"#utility.yul\":5567:5569   */\n  0x20\n    /* \"#utility.yul\":5559:5565   */\n  dup3\n    /* \"#utility.yul\":5556:5570   */\n  lt\n    /* \"#utility.yul\":5536:5554   */\n  dup2\n    /* \"#utility.yul\":5533:5571   */\n  sub\n    /* \"#utility.yul\":5530:5614   */\n  tag_131\n  jumpi\n    /* \"#utility.yul\":5586:5604   */\n  tag_132\n  tag_55\n  jump\t// in\ntag_132:\n    /* \"#utility.yul\":5530:5614   */\ntag_131:\n    /* \"#utility.yul\":5351:5620   */\n  pop\n    /* \"#utility.yul\":5300:5620   */\n  swap2\n  swap1\n  pop\n  jump\t// out\n    /* \"#utility.yul\":5626:5767   */\ntag_56:\n    /* \"#utility.yul\":5675:5679   */\n  0x00\n    /* \"#utility.yul\":5698:5701   */\n  dup2\n    /* \"#utility.yul\":5690:5701   */\n  swap1\n  pop\n    /* \"#utility.yul\":5721:5724   */\n  dup2\n    /* \"#utility.yul\":5718:5719   */\n  0x00\n    /* \"#utility.yul\":5711:5725   */\n  mstore\n    /* \"#utility.yul\":5755:5759   */\n  0x20\n    /* \"#utility.yul\":5752:5753   */\n  0x00\n    /* \"#utility.yul\":5742:5760   */\n  keccak256\n    /* \"#utility.yul\":5734:5760   */\n  swap1\n  pop\n    /* \"#utility.yul\":5626:5767   */\n  swap2\n  swap1\n  pop\n  jump\t// out\n    /* \"#utility.yul\":5773:5866   */\ntag_57:\n    /* \"#utility.yul\":5810:5816   */\n  0x00\n    /* \"#utility.yul\":5857:5859   */\n  0x20\n    /* \"#utility.yul\":5852:5854   */\n  0x1f\n    /* \"#utility.yul\":5845:5850   */\n  dup4\n    /* \"#utility.yul\":5841:5855   */\n  add\n    /* \"#utility.yul\":5837:5860   */\n  div\n    /* \"#utility.yul\":5827:5860   */\n  swap1\n  pop\n    /* \"#utility.yul\":5773:5866   */\n  swap2\n  swap1\n  pop\n  jump\t// out\n    /* \"#utility.yul\":5872:5979   */\ntag_58:\n    /* \"#utility.yul\":5916:5924   */\n  0x00\n    /* \"#utility.yul\":5966:5971   */\n  dup3\n    /* \"#utility.yul\":5960:5964   */\n  dup3\n    /* \"#utility.yul\":5956:5972   */\n  shl\n    /* \"#utility.yul\":5935:5972   */\n  swap1\n  pop\n    /* \"#utility.yul\":5872:5979   */\n  swap3\n  swap2\n  pop\n  pop\n  jump\t// out\n    /* \"#utility.yul\":5985:6378   */\ntag_59:\n    /* \"#utility.yul\":6054:6060   */\n  0x00\n    /* \"#utility.yul\":6104:6105   */\n  0x08\n    /* \"#utility.yul\":6092:6102   */\n  dup4\n    /* \"#utility.yul\":6088:6106   */\n  mul\n    /* \"#utility.yul\":6127:6224   */\n  tag_137\n    /* \"#utility.yul\":6157:6223   */\n  0xffffffffffffffffffffffffffffffffffffffffffffffffffffffffffffffff\n    /* \"#utility.yul\":6146:6155   */\n  dup3\n    /* \"#utility.yul\":6127:6224   */\n  tag_58\n  jump\t// in\ntag_137:\n    /* \"#utility.yul\":6245:6284   */\n  tag_138\n    /* \"#utility.yul\":6275:6283   */\n  dup7\n    /* \"#utility.yul\":6264:6273   */\n  dup4\n    /* \"#utility.yul\":6245:6284   */\n  tag_58\n  jump\t// in\ntag_138:\n    /* \"#utility.yul\":6233:6284   */\n  swap6\n  pop\n    /* \"#utility.yul\":6317:6321   */\n  dup1\n    /* \"#utility.yul\":6313:6322   */\n  not\n    /* \"#utility.yul\":6306:6311   */\n  dup5\n    /* \"#utility.yul\":6302:6323   */\n  and\n    /* \"#utility.yul\":6293:6323   */\n  swap4\n  pop\n    /* \"#utility.yul\":6366:6370   */\n  dup1\n    /* \"#utility.yul\":6356:6364   */\n  dup7\n    /* \"#utility.yul\":6352:6371   */\n  and\n    /* \"#utility.yul\":6345:6350   */\n  dup5\n    /* \"#utility.yul\":6342:6372   */\n  or\n    /* \"#utility.yul\":6332:6372   */\n  swap3\n  pop\n    /* \"#utility.yul\":6061:6378   */\n  pop\n  pop\n    /* \"#utility.yul\":5985:6378   */\n  swap4\n  swap3\n  pop\n  pop\n  pop\n  jump\t// out\n    /* \"#utility.yul\":6384:6461   */\ntag_60:\n    /* \"#utility.yul\":6421:6428   */\n  0x00\n    /* \"#utility.yul\":6450:6455   */\n  dup2\n    /* \"#utility.yul\":6439:6455   */\n  swap1\n  pop\n    /* \"#utility.yul\":6384:6461   */\n  swap2\n  swap1\n  pop\n  jump\t// out\n    /* \"#utility.yul\":6467:6527   */\ntag_61:\n    /* \"#utility.yul\":6495:6498   */\n  0x00\n    /* \"#utility.yul\":6516:6521   */\n  dup2\n    /* \"#utility.yul\":6509:6521   */\n  swap1\n  pop\n    /* \"#utility.yul\":6467:6527   */\n  swap2\n  swap1\n  pop\n  jump\t// out\n    /* \"#utility.yul\":6533:6675   */\ntag_62:\n    /* \"#utility.yul\":6583:6592   */\n  0x00\n    /* \"#utility.yul\":6616:6669   */\n  tag_142\n    /* \"#utility.yul\":6634:6668   */\n  tag_143\n    /* \"#utility.yul\":6643:6667   */\n  tag_144\n    /* \"#utility.yul\":6661:6666   */\n  dup5\n    /* \"#utility.yul\":6643:6667   */\n  tag_60\n  jump\t// in\ntag_144:\n    /* \"#utility.yul\":6634:6668   */\n  tag_61\n  jump\t// in\ntag_143:\n    /* \"#utility.yul\":6616:6669   */\n  tag_60\n  jump\t// in\ntag_142:\n    /* \"#utility.yul\":6603:6669   */\n  swap1\n  pop\n    /* \"#utility.yul\":6533:6675   */\n  swap2\n  swap1\n  pop\n  jump\t// out\n    /* \"#utility.yul\":6681:6756   */\ntag_63:\n    /* \"#utility.yul\":6724:6727   */\n  0x00\n    /* \"#utility.yul\":6745:6750   */\n  dup2\n    /* \"#utility.yul\":6738:6750   */\n  swap1\n  pop\n    /* \"#utility.yul\":6681:6756   */\n  swap2\n  swap1\n  pop\n  jump\t// out\n    /* \"#utility.yul\":6762:7031   */\ntag_64:\n    /* \"#utility.yul\":6872:6911   */\n  tag_147\n    /* \"#utility.yul\":6903:6910   */\n  dup4\n    /* \"#utility.yul\":6872:6911   */\n  tag_62\n  jump\t// in\ntag_147:\n    /* \"#utility.yul\":6933:7024   */\n  tag_148\n    /* \"#utility.yul\":6982:7023   */\n  tag_149\n    /* \"#utility.yul\":7006:7022   */\n  dup3\n    /* \"#utility.yul\":6982:7023   */\n  tag_63\n  jump\t// in\ntag_149:\n    /* \"#utility.yul\":6974:6980   */\n  dup5\n    /* \"#utility.yul\":6967:6971   */\n  dup5\n    /* \"#utility.yul\":6961:6972   */\n  sload\n    /* \"#utility.yul\":6933:7024   */\n  tag_59\n  jump\t// in\ntag_148:\n    /* \"#utility.yul\":6927:6931   */\n  dup3\n    /* \"#utility.yul\":6920:7025   */\n  sstore\n    /* \"#utility.yul\":6838:7031   */\n  pop\n    /* \"#utility.yul\":6762:7031   */\n  pop\n  pop\n  pop\n  jump\t// out\n    /* \"#utility.yul\":7037:7110   */\ntag_65:\n    /* \"#utility.yul\":7082:7085   */\n  0x00\n    /* \"#utility.yul\":7037:7110   */\n  swap1\n  jump\t// out\n    /* \"#utility.yul\":7116:7305   */\ntag_66:\n    /* \"#utility.yul\":7193:7225   */\n  tag_152\n  tag_65\n  jump\t// in\ntag_152:\n    /* \"#utility.yul\":7234:7299   */\n  tag_153\n    /* \"#utility.yul\":7292:7298   */\n  dup2\n    /* \"#utility.yul\":7284:7290   */\n  dup5\n    /* \"#utility.yul\":7278:7282   */\n  dup5\n    /* \"#utility.yul\":7234:7299   */\n  tag_64\n  jump\t// in\ntag_153:\n    /* \"#utility.yul\":7169:7305   */\n  pop\n    /* \"#utility.yul\":7116:7305   */\n  pop\n  pop\n  jump\t// out\n    /* \"#utility.yul\":7311:7497   */\ntag_67:\n    /* \"#utility.yul\":7371:7491   */\ntag_155:\n    /* \"#utility.yul\":7388:7391   */\n  dup2\n    /* \"#utility.yul\":7381:7386   */\n  dup2\n    /* \"#utility.yul\":7378:7392   */\n  lt\n    /* \"#utility.yul\":7371:7491   */\n  iszero\n  tag_157\n  jumpi\n    /* \"#utility.yul\":7442:7481   */\n  tag_158\n    /* \"#utility.yul\":7479:7480   */\n  0x00\n    /* \"#utility.yul\":7472:7477   */\n  dup3\n    /* \"#utility.yul\":7442:7481   */\n  tag_66\n  jump\t// in\ntag_158:\n    /* \"#utility.yul\":7415:7416   */\n  0x01\n    /* \"#utility.yul\":7408:7413   */\n  dup2\n    /* \"#utility.yul\":7404:7417   */\n  add\n    /* \"#utility.yul\":7395:7417   */\n  swap1\n  pop\n    /* \"#utility.yul\":7371:7491   */\n  jump(tag_155)\ntag_157:\n    /* \"#utility.yul\":7311:7497   */\n  pop\n  pop\n  jump\t// out\n    /* \"#utility.yul\":7503:8046   */\ntag_68:\n    /* \"#utility.yul\":7604:7606   */\n  0x1f\n    /* \"#utility.yul\":7599:7602   */\n  dup3\n    /* \"#utility.yul\":7596:7607   */\n  gt\n    /* \"#utility.yul\":7593:8039   */\n  iszero\n  tag_160\n  jumpi\n    /* \"#utility.yul\":7638:7676   */\n  tag_161\n    /* \"#utility.yul\":7670:7675   */\n  dup2\n    /* \"#utility.yul\":7638:7676   */\n  tag_56\n  jump\t// in\ntag_161:\n    /* \"#utility.yul\":7722:7751   */\n  tag_162\n    /* \"#utility.yul\":7740:7750   */\n  dup5\n    /* \"#utility.yul\":7722:7751   */\n  tag_57\n  jump\t// in\ntag_162:\n    /* \"#utility.yul\":7712:7720   */\n  dup2\n    /* \"#utility.yul\":7708:7752   */\n  add\n    /* \"#utility.yul\":7905:7907   */\n  0x20\n    /* \"#utility.yul\":7893:7903   */\n  dup6\n    /* \"#utility.yul\":7890:7908   */\n  lt\n    /* \"#utility.yul\":7887:7936   */\n  iszero\n  tag_163\n  jumpi\n    /* \"#utility.yul\":7926:7934   */\n  dup2\n    /* \"#utility.yul\":7911:7934   */\n  swap1\n  pop\n    /* \"#utility.yul\":7887:7936   */\ntag_163:\n    /* \"#utility.yul\":7949:8029   */\n  tag_164\n    /* \"#utility.yul\":8005:8027   */\n  tag_165\n    /* \"#utility.yul\":8023:8026   */\n  dup6\n    /* \"#utility.yul\":8005:8027   */\n  tag_57\n  jump\t// in\ntag_165:\n    /* \"#utility.yul\":7995:8003   */\n  dup4\n    /* \"#utility.yul\":7991:8028   */\n  add\n    /* \"#utility.yul\":7978:7989   */\n  dup3\n    /* \"#utility.yul\":7949:8029   */\n  tag_67\n  jump\t// in\ntag_164:\n    /* \"#utility.yul\":7608:8039   */\n  pop\n  pop\n    /* \"#utility.yul\":7593:8039   */\ntag_160:\n    /* \"#utility.yul\":7503:8046   */\n  pop\n  pop\n  pop\n  jump\t// out\n    /* \"#utility.yul\":8052:8169   */\ntag_69:\n    /* \"#utility.yul\":8106:8114   */\n  0x00\n    /* \"#utility.yul\":8156:8161   */\n  dup3\n    /* \"#utility.yul\":8150:8154   */\n  dup3\n    /* \"#utility.yul\":8146:8162   */\n  shr\n    /* \"#utility.yul\":8125:8162   */\n  swap1\n  pop\n    /* \"#utility.yul\":8052:8169   */\n  swap3\n  swap2\n  pop\n  pop\n  jump\t// out\n    /* \"#utility.yul\":8175:8344   */\ntag_70:\n    /* \"#utility.yul\":8219:8225   */\n  0x00\n    /* \"#utility.yul\":8252:8303   */\n  tag_168\n    /* \"#utility.yul\":8300:8301   */\n  0x00\n    /* \"#utility.yul\":8296:8302   */\n  not\n    /* \"#utility.yul\":8288:8293   */\n  dup5\n    /* \"#utility.yul\":8285:8286   */\n  0x08\n    /* \"#utility.yul\":8281:8294   */\n  mul\n    /* \"#utility.yul\":8252:8303   */\n  tag_69\n  jump\t// in\ntag_168:\n    /* \"#utility.yul\":8248:8304   */\n  not\n    /* \"#utility.yul\":8333:8337   */\n  dup1\n    /* \"#utility.yul\":8327:8331   */\n  dup4\n    /* \"#utility.yul\":8323:8338   */\n  and\n    /* \"#utility.yul\":8313:8338   */\n  swap2\n  pop\n    /* \"#utility.yul\":8226:8344   */\n  pop\n    /* \"#utility.yul\":8175:8344   */\n  swap3\n  swap2\n  pop\n  pop\n  jump\t// out\n    /* \"#utility.yul\":8349:8644   */\ntag_71:\n    /* \"#utility.yul\":8425:8429   */\n  0x00\n    /* \"#utility.yul\":8571:8600   */\n  tag_170\n    /* \"#utility.yul\":8596:8599   */\n  dup4\n    /* \"#utility.yul\":8590:8594   */\n  dup4\n    /* \"#utility.yul\":8571:8600   */\n  tag_70\n  jump\t// in\ntag_170:\n    /* \"#utility.yul\":8563:8600   */\n  swap2\n  pop\n    /* \"#utility.yul\":8633:8636   */\n  dup3\n    /* \"#utility.yul\":8630:8631   */\n  0x02\n    /* \"#utility.yul\":8626:8637   */\n  mul\n    /* \"#utility.yul\":8620:8624   */\n  dup3\n    /* \"#utility.yul\":8617:8638   */\n  or\n    /* \"#utility.yul\":8609:8638   */\n  swap1\n  pop\n    /* \"#utility.yul\":8349:8644   */\n  swap3\n  swap2\n  pop\n  pop\n  jump\t// out\n    /* \"#utility.yul\":8649:10044   */\ntag_19:\n    /* \"#utility.yul\":8766:8803   */\n  tag_172\n    /* \"#utility.yul\":8799:8802   */\n  dup3\n    /* \"#utility.yul\":8766:8803   */\n  tag_54\n  jump\t// in\ntag_172:\n    /* \"#utility.yul\":8868:8886   */\n  0xffffffffffffffff\n    /* \"#utility.yul\":8860:8866   */\n  dup2\n    /* \"#utility.yul\":8857:8887   */\n  gt\n    /* \"#utility.yul\":8854:8910   */\n  iszero\n  tag_173\n  jumpi\n    /* \"#utility.yul\":8890:8908   */\n  tag_174\n  tag_10\n  jump\t// in\ntag_174:\n    /* \"#utility.yul\":8854:8910   */\ntag_173:\n    /* \"#utility.yul\":8934:8972   */\n  tag_175\n    /* \"#utility.yul\":8966:8970   */\n  dup3\n    /* \"#utility.yul\":8960:8971   */\n  sload\n    /* \"#utility.yul\":8934:8972   */\n  tag_34\n  jump\t// in\ntag_175:\n    /* \"#utility.yul\":9019:9086   */\n  tag_176\n    /* \"#utility.yul\":9079:9085   */\n  dup3\n    /* \"#utility.yul\":9071:9077   */\n  dup3\n    /* \"#utility.yul\":9065:9069   */\n  dup6\n    /* \"#utility.yul\":9019:9086   */\n  tag_68\n  jump\t// in\ntag_176:\n    /* \"#utility.yul\":9113:9114   */\n  0x00\n    /* \"#utility.yul\":9137:9141   */\n  0x20\n    /* \"#utility.yul\":9124:9141   */\n  swap1\n  pop\n    /* \"#utility.yul\":9169:9171   */\n  0x1f\n    /* \"#utility.yul\":9161:9167   */\n  dup4\n    /* \"#utility.yul\":9158:9172   */\n  gt\n    /* \"#utility.yul\":9186:9187   */\n  0x01\n    /* \"#utility.yul\":9181:9799   */\n  dup2\n  eq\n  tag_178\n  jumpi\n    /* \"#utility.yul\":9843:9844   */\n  0x00\n    /* \"#utility.yul\":9860:9866   */\n  dup5\n    /* \"#utility.yul\":9857:9934   */\n  iszero\n  tag_179\n  jumpi\n    /* \"#utility.yul\":9909:9918   */\n  dup3\n    /* \"#utility.yul\":9904:9907   */\n  dup8\n    /* \"#utility.yul\":9900:9919   */\n  add\n    /* \"#utility.yul\":9894:9920   */\n  mload\n    /* \"#utility.yul\":9885:9920   */\n  swap1\n  pop\n    /* \"#utility.yul\":9857:9934   */\ntag_179:\n    /* \"#utility.yul\":9960:10027   */\n  tag_180\n    /* \"#utility.yul\":10020:10026   */\n  dup6\n    /* \"#utility.yul\":10013:10018   */\n  dup3\n    /* \"#utility.yul\":9960:10027   */\n  tag_71\n  jump\t// in\ntag_180:\n    /* \"#utility.yul\":9954:9958   */\n  dup7\n    /* \"#utility.yul\":9947:10028   */\n  sstore\n    /* \"#utility.yul\":9816:10038   */\n  pop\n    /* \"#utility.yul\":9151:10038   */\n  jump(tag_177)\n    /* \"#utility.yul\":9181:9799   */\ntag_178:\n    /* \"#utility.yul\":9233:9237   */\n  0x1f\n    /* \"#utility.yul\":9229:9238   */\n  not\n    /* \"#utility.yul\":9221:9227   */\n  dup5\n    /* \"#utility.yul\":9217:9239   */\n  and\n    /* \"#utility.yul\":9267:9304   */\n  tag_181\n    /* \"#utility.yul\":9299:9303   */\n  dup7\n    /* \"#utility.yul\":9267:9304   */\n  tag_56\n  jump\t// in\ntag_181:\n    /* \"#utility.yul\":9326:9327   */\n  0x00\n    /* \"#utility.yul\":9340:9548   */\ntag_182:\n    /* \"#utility.yul\":9354:9361   */\n  dup3\n    /* \"#utility.yul\":9351:9352   */\n  dup2\n    /* \"#utility.yul\":9348:9362   */\n  lt\n    /* \"#utility.yul\":9340:9548   */\n  iszero\n  tag_184\n  jumpi\n    /* \"#utility.yul\":9433:9442   */\n  dup5\n    /* \"#utility.yul\":9428:9431   */\n  dup10\n    /* \"#utility.yul\":9424:9443   */\n  add\n    /* \"#utility.yul\":9418:9444   */\n  mload\n    /* \"#utility.yul\":9410:9416   */\n  dup3\n    /* \"#utility.yul\":9403:9445   */\n  sstore\n    /* \"#utility.yul\":9484:9485   */\n  0x01\n    /* \"#utility.yul\":9476:9482   */\n  dup3\n    /* \"#utility.yul\":9472:9486   */\n  add\n    /* \"#utility.yul\":9462:9486   */\n  swap2\n  pop\n    /* \"#utility.yul\":9531:9533   */\n  0x20\n    /* \"#utility.yul\":9520:9529   */\n  dup6\n    /* \"#utility.yul\":9516:9534   */\n  add\n    /* \"#utility.yul\":9503:9534   */\n  swap5\n  pop\n    /* \"#utility.yul\":9377:9381   */\n  0x20\n    /* \"#utility.yul\":9374:9375   */\n  dup2\n    /* \"#utility.yul\":9370:9382   */\n  add\n    /* \"#utility.yul\":9365:9382   */\n  swap1\n  pop\n    /* \"#utility.yul\":9340:9548   */\n  jump(tag_182)\ntag_184:\n    /* \"#utility.yul\":9576:9582   */\n  dup7\n    /* \"#utility.yul\":9567:9574   */\n  dup4\n    /* \"#utility.yul\":9564:9583   */\n  lt\n    /* \"#utility.yul\":9561:9740   */\n  iszero\n  tag_185\n  jumpi\n    /* \"#utility.yul\":9634:9643   */\n  dup5\n    /* \"#utility.yul\":9629:9632   */\n  dup10\n    /* \"#utility.yul\":9625:9644   */\n  add\n    /* \"#utility.yul\":9619:9645   */\n  mload\n    /* \"#utility.yul\":9677:9725   */\n  tag_186\n    /* \"#utility.yul\":9719:9723   */\n  0x1f\n    /* \"#utility.yul\":9711:9717   */\n  dup10\n    /* \"#utility.yul\":9707:9724   */\n  and\n    /* \"#utility.yul\":9696:9705   */\n  dup3\n    /* \"#utility.yul\":9677:9725   */\n  tag_70\n  jump\t// in\ntag_186:\n    /* \"#utility.yul\":9669:9675   */\n  dup4\n    /* \"#utility.yul\":9662:9726   */\n  sstore\n    /* \"#utility.yul\":9584:9740   */\n  pop\n    /* \"#utility.yul\":9561:9740   */\ntag_185:\n    /* \"#utility.yul\":9786:9787   */\n  0x01\n    /* \"#utility.yul\":9782:9783   */\n  0x02\n    /* \"#utility.yul\":9774:9780   */\n  dup9\n    /* \"#utility.yul\":9770:9784   */\n  mul\n    /* \"#utility.yul\":9766:9788   */\n  add\n    /* \"#utility.yul\":9760:9764   */\n  dup9\n    /* \"#utility.yul\":9753:9789   */\n  sstore\n    /* \"#utility.yul\":9188:9799   */\n  pop\n  pop\n  pop\n    /* \"#utility.yul\":9151:10038   */\ntag_177:\n  pop\n    /* \"#utility.yul\":8741:10044   */\n  pop\n  pop\n  pop\n    /* \"#utility.yul\":8649:10044   */\n  pop\n  pop\n  jump\t// out\n    /* \"contracts/Voting.sol\":60:1820  contract Voting {... */\ntag_14:\n  dataSize(sub_0)\n  dup1\n  dataOffset(sub_0)\n  0x00\n  codecopy\n  0x00\n  return\nstop\n\nsub_0: assembly {\n        /* \"contracts/Voting.sol\":60:1820  contract Voting {... */\n      mstore(0x40, 0x80)\n      callvalue\n      dup1\n      iszero\n      tag_1\n      jumpi\n      0x00\n      dup1\n      revert\n    tag_1:\n      pop\n      jumpi(tag_2, lt(calldatasize, 0x04))\n      shr(0xe0, calldataload(0x00))\n      dup1\n      0x409e2205\n      gt\n      tag_14\n      jumpi\n      dup1\n      0x409e2205\n      eq\n      tag_8\n      jumpi\n      dup1\n      0x4717f97c\n      eq\n      tag_9\n      jumpi\n      dup1\n      0x5df81330\n      eq\n      tag_10\n      jumpi\n      dup1\n      0xa3ec138d\n      eq\n      tag_11\n      jumpi\n      dup1\n      0xc3403ddf\n      eq\n      tag_12\n      jumpi\n      dup1\n      0xf851a440\n      eq\n      tag_13\n      jumpi\n      jump(tag_2)\n    tag_14:\n      dup1\n      0x1ea736e0\n      eq\n      tag_3\n      jumpi\n      dup1\n      0x38db6dd3\n      eq\n      tag_4\n      jumpi\n      dup1\n      0x3d2f5bda\n      eq\n      tag_5\n      jumpi\n      dup1\n      0x3eb76b9c\n      eq\n      tag_6\n      jumpi\n      dup1\n      0x408e2727\n      eq\n      tag_7\n      jumpi\n    tag_2:\n      0x00\n      dup1\n      revert\n        /* \"contracts/Voting.sol\":344:369  uint public votingEndTime */\n    tag_3:\n      tag_15\n      tag_16\n      jump\t// in\n    tag_15:\n      mload(0x40)\n      tag_17\n      swap2\n      swap1\n      tag_18\n      jump\t// in\n    tag_17:\n      mload(0x40)\n      dup1\n      swap2\n      sub\n      swap1\n      return\n        /* \"contracts/Voting.sol\":857:1050  function registerVoter(address _voter) public onlyAdmin {... */\n    tag_4:\n      tag_19\n      0x04\n      dup1\n      calldatasize\n      sub\n      dup2\n      add\n      swap1\n      tag_20\n      swap2\n      swap1\n      tag_21\n      jump\t// in\n    tag_20:\n      tag_22\n      jump\t// in\n    tag_19:\n      stop\n        /* \"contracts/Voting.sol\":1058:1234  function startVoting(uint durationInMinutes) public onlyAdmin {... */\n    tag_5:\n      tag_23\n      0x04\n      dup1\n      calldatasize\n      sub\n      dup2\n      add\n      swap1\n      tag_24\n      swap2\n      swap1\n      tag_25\n      jump\t// in\n    tag_24:\n      tag_26\n      jump\t// in\n    tag_23:\n      stop\n        /* \"contracts/Voting.sol\":1327:1720  function castVote(uint _option) public onlyDuringVoting {... */\n    tag_6:\n      tag_27\n      0x04\n      dup1\n      calldatasize\n      sub\n      dup2\n      add\n      swap1\n      tag_28\n      swap2\n      swap1\n      tag_25\n      jump\t// in\n    tag_28:\n      tag_29\n      jump\t// in\n    tag_27:\n      stop\n        /* \"contracts/Voting.sol\":313:337  bool public votingActive */\n    tag_7:\n      tag_30\n      tag_31\n      jump\t// in\n    tag_30:\n      mload(0x40)\n      tag_32\n      swap2\n      swap1\n      tag_33\n      jump\t// in\n    tag_32:\n      mload(0x40)\n      dup1\n      swap2\n      sub\n      swap1\n      return\n        /* \"contracts/Voting.sol\":257:280  string[] public options */\n    tag_8:\n      tag_34\n      0x04\n      dup1\n      calldatasize\n      sub\n      dup2\n      add\n      swap1\n      tag_35\n      swap2\n      swap1\n      tag_25\n      jump\t// in\n    tag_35:\n      tag_36\n      jump\t// in\n    tag_34:\n      mload(0x40)\n      tag_37\n      swap2\n      swap1\n      tag_38\n      jump\t// in\n    tag_37:\n      mload(0x40)\n      dup1\n      swap2\n      sub\n      swap1\n      return\n        /* \"contracts/Voting.sol\":1728:1817  function getResults() public view returns (uint[] memory) {... */\n    tag_9:\n      tag_39\n      tag_40\n      jump\t// in\n    tag_39:\n      mload(0x40)\n      tag_41\n      swap2\n      swap1\n      tag_42\n      jump\t// in\n    tag_41:\n      mload(0x40)\n      dup1\n      swap2\n      sub\n      swap1\n      return\n        /* \"contracts/Voting.sol\":287:306  uint[] public votes */\n    tag_10:\n      tag_43\n      0x04\n      dup1\n      calldatasize\n      sub\n      dup2\n      add\n      swap1\n      tag_44\n      swap2\n      swap1\n      tag_25\n      jump\t// in\n    tag_44:\n      tag_45\n      jump\t// in\n    tag_43:\n      mload(0x40)\n      tag_46\n      swap2\n      swap1\n      tag_18\n      jump\t// in\n    tag_46:\n      mload(0x40)\n      dup1\n      swap2\n      sub\n      swap1\n      return\n        /* \"contracts/Voting.sol\":211:250  mapping(address => Voter) public voters */\n    tag_11:\n      tag_47\n      0x04\n      dup1\n      calldatasize\n      sub\n      dup2\n      add\n      swap1\n      tag_48\n      swap2\n      swap1\n      tag_21\n      jump\t// in\n    tag_48:\n      tag_49\n      jump\t// in\n    tag_47:\n      mload(0x40)\n      tag_50\n      swap4\n      swap3\n      swap2\n      swap1\n      tag_51\n      jump\t// in\n    tag_50:\n      mload(0x40)\n      dup1\n      swap2\n      sub\n      swap1\n      return\n        /* \"contracts/Voting.sol\":1242:1319  function endVoting() public onlyAdmin {... */\n    tag_12:\n      tag_52\n      tag_53\n      jump\t// in\n    tag_52:\n      stop\n        /* \"contracts/Voting.sol\":184:204  address public admin */\n    tag_13:\n      tag_54\n      tag_55\n      jump\t// in\n    tag_54:\n      mload(0x40)\n      tag_56\n      swap2\n      swap1\n      tag_57\n      jump\t// in\n    tag_56:\n      mload(0x40)\n      dup1\n      swap2\n      sub\n      swap1\n      return\n        /* \"contracts/Voting.sol\":344:369  uint public votingEndTime */\n    tag_16:\n      sload(0x05)\n      dup2\n      jump\t// out\n        /* \"contracts/Voting.sol\":857:1050  function registerVoter(address _voter) public onlyAdmin {... */\n    tag_22:\n        /* \"contracts/Voting.sol\":432:437  admin */\n      0x00\n      dup1\n      sload\n      swap1\n      0x0100\n      exp\n      swap1\n      div\n      0xffffffffffffffffffffffffffffffffffffffff\n      and\n        /* \"contracts/Voting.sol\":418:437  msg.sender == admin */\n      0xffffffffffffffffffffffffffffffffffffffff\n      and\n        /* \"contracts/Voting.sol\":418:428  msg.sender */\n      caller\n        /* \"contracts/Voting.sol\":418:437  msg.sender == admin */\n      0xffffffffffffffffffffffffffffffffffffffff\n      and\n      eq\n        /* \"contracts/Voting.sol\":410:477  require(msg.sender == admin, \"Only admin can perform this action.\") */\n      tag_59\n      jumpi\n      mload(0x40)\n      0x08c379a000000000000000000000000000000000000000000000000000000000\n      dup2\n      mstore\n      0x04\n      add\n      tag_60\n      swap1\n      tag_61\n      jump\t// in\n    tag_60:\n      mload(0x40)\n      dup1\n      swap2\n      sub\n      swap1\n      revert\n    tag_59:\n        /* \"contracts/Voting.sol\":933:939  voters */\n      0x01\n        /* \"contracts/Voting.sol\":933:947  voters[_voter] */\n      0x00\n        /* \"contracts/Voting.sol\":940:946  _voter */\n      dup3\n        /* \"contracts/Voting.sol\":933:947  voters[_voter] */\n      0xffffffffffffffffffffffffffffffffffffffff\n      and\n      0xffffffffffffffffffffffffffffffffffffffff\n      and\n      dup2\n      mstore\n      0x20\n      add\n      swap1\n      dup2\n      mstore\n      0x20\n      add\n      0x00\n      keccak256\n        /* \"contracts/Voting.sol\":933:960  voters[_voter].isRegistered */\n      0x00\n      add\n      0x00\n      swap1\n      sload\n      swap1\n      0x0100\n      exp\n      swap1\n      div\n      0xff\n      and\n        /* \"contracts/Voting.sol\":932:960  !voters[_voter].isRegistered */\n      iszero\n        /* \"contracts/Voting.sol\":924:993  require(!voters[_voter].isRegistered, \"Voter is already registered.\") */\n      tag_63\n      jumpi\n      mload(0x40)\n      0x08c379a000000000000000000000000000000000000000000000000000000000\n      dup2\n      mstore\n      0x04\n      add\n      tag_64\n      swap1\n      tag_65\n      jump\t// in\n    tag_64:\n      mload(0x40)\n      dup1\n      swap2\n      sub\n      swap1\n      revert\n    tag_63:\n        /* \"contracts/Voting.sol\":1021:1042  Voter(true, false, 0) */\n      mload(0x40)\n      dup1\n      0x60\n      add\n      0x40\n      mstore\n      dup1\n        /* \"contracts/Voting.sol\":1027:1031  true */\n      0x01\n        /* \"contracts/Voting.sol\":1021:1042  Voter(true, false, 0) */\n      iszero\n      iszero\n      dup2\n      mstore\n      0x20\n      add\n        /* \"contracts/Voting.sol\":1033:1038  false */\n      0x00\n        /* \"contracts/Voting.sol\":1021:1042  Voter(true, false, 0) */\n      iszero\n      iszero\n      dup2\n      mstore\n      0x20\n      add\n        /* \"contracts/Voting.sol\":1040:1041  0 */\n      0x00\n        /* \"contracts/Voting.sol\":1021:1042  Voter(true, false, 0) */\n      dup2\n      mstore\n      pop\n        /* \"contracts/Voting.sol\":1004:1010  voters */\n      0x01\n        /* \"contracts/Voting.sol\":1004:1018  voters[_voter] */\n      0x00\n        /* \"contracts/Voting.sol\":1011:1017  _voter */\n      dup4\n        /* \"contracts/Voting.sol\":1004:1018  voters[_voter] */\n      0xffffffffffffffffffffffffffffffffffffffff\n      and\n      0xffffffffffffffffffffffffffffffffffffffff\n      and\n      dup2\n      mstore\n      0x20\n      add\n      swap1\n      dup2\n      mstore\n      0x20\n      add\n      0x00\n      keccak256\n        /* \"contracts/Voting.sol\":1004:1042  voters[_voter] = Voter(true, false, 0) */\n      0x00\n      dup3\n      add\n      mload\n      dup2\n      0x00\n      add\n      exp(0x0100, 0x00)\n      dup2\n      sload\n      dup2\n      0xff\n      mul\n      not\n      and\n      swap1\n      dup4\n      iszero\n      iszero\n      mul\n      or\n      swap1\n      sstore\n      pop\n      0x20\n      dup3\n      add\n      mload\n      dup2\n      0x00\n      add\n      exp(0x0100, 0x01)\n      dup2\n      sload\n      dup2\n      0xff\n      mul\n      not\n      and\n      swap1\n      dup4\n      iszero\n      iszero\n      mul\n      or\n      swap1\n      sstore\n      pop\n      0x40\n      dup3\n      add\n      mload\n      dup2\n      0x01\n      add\n      sstore\n      swap1\n      pop\n      pop\n        /* \"contracts/Voting.sol\":857:1050  function registerVoter(address _voter) public onlyAdmin {... */\n      pop\n      jump\t// out\n        /* \"contracts/Voting.sol\":1058:1234  function startVoting(uint durationInMinutes) public onlyAdmin {... */\n    tag_26:\n        /* \"contracts/Voting.sol\":432:437  admin */\n      0x00\n      dup1\n      sload\n      swap1\n      0x0100\n      exp\n      swap1\n      div\n      0xffffffffffffffffffffffffffffffffffffffff\n      and\n        /* \"contracts/Voting.sol\":418:437  msg.sender == admin */\n      0xffffffffffffffffffffffffffffffffffffffff\n      and\n        /* \"contracts/Voting.sol\":418:428  msg.sender */\n      caller\n        /* \"contracts/Voting.sol\":418:437  msg.sender == admin */\n      0xffffffffffffffffffffffffffffffffffffffff\n      and\n      eq\n        /* \"contracts/Voting.sol\":410:477  require(msg.sender == admin, \"Only admin can perform this action.\") */\n      tag_67\n      jumpi\n      mload(0x40)\n      0x08c379a000000000000000000000000000000000000000000000000000000000\n      dup2\n      mstore\n      0x04\n      add\n      tag_68\n      swap1\n      tag_61\n      jump\t// in\n    tag_68:\n      mload(0x40)\n      dup1\n      swap2\n      sub\n      swap1\n      revert\n    tag_67:\n        /* \"contracts/Voting.sol\":1146:1150  true */\n      0x01\n        /* \"contracts/Voting.sol\":1131:1143  votingActive */\n      0x04\n      0x00\n        /* \"contracts/Voting.sol\":1131:1150  votingActive = true */\n      0x0100\n      exp\n      dup2\n      sload\n      dup2\n      0xff\n      mul\n      not\n      and\n      swap1\n      dup4\n      iszero\n      iszero\n      mul\n      or\n      swap1\n      sstore\n      pop\n        /* \"contracts/Voting.sol\":1216:1225  1 minutes */\n      0x3c\n        /* \"contracts/Voting.sol\":1196:1213  durationInMinutes */\n      dup2\n        /* \"contracts/Voting.sol\":1196:1225  durationInMinutes * 1 minutes */\n      tag_70\n      swap2\n      swap1\n      tag_71\n      jump\t// in\n    tag_70:\n        /* \"contracts/Voting.sol\":1177:1192  block.timestamp */\n      timestamp\n        /* \"contracts/Voting.sol\":1177:1226  block.timestamp + (durationInMinutes * 1 minutes) */\n      tag_72\n      swap2\n      swap1\n      tag_73\n      jump\t// in\n    tag_72:\n        /* \"contracts/Voting.sol\":1161:1174  votingEndTime */\n      0x05\n        /* \"contracts/Voting.sol\":1161:1226  votingEndTime = block.timestamp + (durationInMinutes * 1 minutes) */\n      dup2\n      swap1\n      sstore\n      pop\n        /* \"contracts/Voting.sol\":1058:1234  function startVoting(uint durationInMinutes) public onlyAdmin {... */\n      pop\n      jump\t// out\n        /* \"contracts/Voting.sol\":1327:1720  function castVote(uint _option) public onlyDuringVoting {... */\n    tag_29:\n        /* \"contracts/Voting.sol\":552:564  votingActive */\n      0x04\n      0x00\n      swap1\n      sload\n      swap1\n      0x0100\n      exp\n      swap1\n      div\n      0xff\n      and\n        /* \"contracts/Voting.sol\":544:590  require(votingActive, \"Voting is not active.\") */\n      tag_75\n      jumpi\n      mload(0x40)\n      0x08c379a000000000000000000000000000000000000000000000000000000000\n      dup2\n      mstore\n      0x04\n      add\n      tag_76\n      swap1\n      tag_77\n      jump\t// in\n    tag_76:\n      mload(0x40)\n      dup1\n      swap2\n      sub\n      swap1\n      revert\n    tag_75:\n        /* \"contracts/Voting.sol\":628:641  votingEndTime */\n      sload(0x05)\n        /* \"contracts/Voting.sol\":609:624  block.timestamp */\n      timestamp\n        /* \"contracts/Voting.sol\":609:641  block.timestamp <= votingEndTime */\n      gt\n      iszero\n        /* \"contracts/Voting.sol\":601:671  require(block.timestamp <= votingEndTime, \"Voting session has ended.\") */\n      tag_78\n      jumpi\n      mload(0x40)\n      0x08c379a000000000000000000000000000000000000000000000000000000000\n      dup2\n      mstore\n      0x04\n      add\n      tag_79\n      swap1\n      tag_80\n      jump\t// in\n    tag_79:\n      mload(0x40)\n      dup1\n      swap2\n      sub\n      swap1\n      revert\n    tag_78:\n        /* \"contracts/Voting.sol\":1394:1414  Voter storage sender */\n      0x00\n        /* \"contracts/Voting.sol\":1417:1423  voters */\n      0x01\n        /* \"contracts/Voting.sol\":1417:1435  voters[msg.sender] */\n      0x00\n        /* \"contracts/Voting.sol\":1424:1434  msg.sender */\n      caller\n        /* \"contracts/Voting.sol\":1417:1435  voters[msg.sender] */\n      0xffffffffffffffffffffffffffffffffffffffff\n      and\n      0xffffffffffffffffffffffffffffffffffffffff\n      and\n      dup2\n      mstore\n      0x20\n      add\n      swap1\n      dup2\n      mstore\n      0x20\n      add\n      0x00\n      keccak256\n        /* \"contracts/Voting.sol\":1394:1435  Voter storage sender = voters[msg.sender] */\n      swap1\n      pop\n        /* \"contracts/Voting.sol\":1454:1460  sender */\n      dup1\n        /* \"contracts/Voting.sol\":1454:1473  sender.isRegistered */\n      0x00\n      add\n      0x00\n      swap1\n      sload\n      swap1\n      0x0100\n      exp\n      swap1\n      div\n      0xff\n      and\n        /* \"contracts/Voting.sol\":1446:1501  require(sender.isRegistered, \"Not a registered voter.\") */\n      tag_82\n      jumpi\n      mload(0x40)\n      0x08c379a000000000000000000000000000000000000000000000000000000000\n      dup2\n      mstore\n      0x04\n      add\n      tag_83\n      swap1\n      tag_84\n      jump\t// in\n    tag_83:\n      mload(0x40)\n      dup1\n      swap2\n      sub\n      swap1\n      revert\n    tag_82:\n        /* \"contracts/Voting.sol\":1521:1527  sender */\n      dup1\n        /* \"contracts/Voting.sol\":1521:1536  sender.hasVoted */\n      0x00\n      add\n      0x01\n      swap1\n      sload\n      swap1\n      0x0100\n      exp\n      swap1\n      div\n      0xff\n      and\n        /* \"contracts/Voting.sol\":1520:1536  !sender.hasVoted */\n      iszero\n        /* \"contracts/Voting.sol\":1512:1555  require(!sender.hasVoted, \"Already voted.\") */\n      tag_85\n      jumpi\n      mload(0x40)\n      0x08c379a000000000000000000000000000000000000000000000000000000000\n      dup2\n      mstore\n      0x04\n      add\n      tag_86\n      swap1\n      tag_87\n      jump\t// in\n    tag_86:\n      mload(0x40)\n      dup1\n      swap2\n      sub\n      swap1\n      revert\n    tag_85:\n        /* \"contracts/Voting.sol\":1584:1591  options */\n      0x02\n        /* \"contracts/Voting.sol\":1584:1598  options.length */\n      dup1\n      sload\n      swap1\n      pop\n        /* \"contracts/Voting.sol\":1574:1581  _option */\n      dup3\n        /* \"contracts/Voting.sol\":1574:1598  _option < options.length */\n      lt\n        /* \"contracts/Voting.sol\":1566:1618  require(_option < options.length, \"Invalid option.\") */\n      tag_88\n      jumpi\n      mload(0x40)\n      0x08c379a000000000000000000000000000000000000000000000000000000000\n      dup2\n      mstore\n      0x04\n      add\n      tag_89\n      swap1\n      tag_90\n      jump\t// in\n    tag_89:\n      mload(0x40)\n      dup1\n      swap2\n      sub\n      swap1\n      revert\n    tag_88:\n        /* \"contracts/Voting.sol\":1649:1653  true */\n      0x01\n        /* \"contracts/Voting.sol\":1631:1637  sender */\n      dup2\n        /* \"contracts/Voting.sol\":1631:1646  sender.hasVoted */\n      0x00\n      add\n      0x01\n        /* \"contracts/Voting.sol\":1631:1653  sender.hasVoted = true */\n      0x0100\n      exp\n      dup2\n      sload\n      dup2\n      0xff\n      mul\n      not\n      and\n      swap1\n      dup4\n      iszero\n      iszero\n      mul\n      or\n      swap1\n      sstore\n      pop\n        /* \"contracts/Voting.sol\":1678:1685  _option */\n      dup2\n        /* \"contracts/Voting.sol\":1664:1670  sender */\n      dup2\n        /* \"contracts/Voting.sol\":1664:1675  sender.vote */\n      0x01\n      add\n        /* \"contracts/Voting.sol\":1664:1685  sender.vote = _option */\n      dup2\n      swap1\n      sstore\n      pop\n        /* \"contracts/Voting.sol\":1696:1701  votes */\n      0x03\n        /* \"contracts/Voting.sol\":1702:1709  _option */\n      dup3\n        /* \"contracts/Voting.sol\":1696:1710  votes[_option] */\n      dup2\n      sload\n      dup2\n      lt\n      tag_91\n      jumpi\n      tag_92\n      tag_93\n      jump\t// in\n    tag_92:\n    tag_91:\n      swap1\n      0x00\n      mstore\n      keccak256(0x00, 0x20)\n      add\n      0x00\n        /* \"contracts/Voting.sol\":1696:1712  votes[_option]++ */\n      dup2\n      sload\n      dup1\n      swap3\n      swap2\n      swap1\n      tag_95\n      swap1\n      tag_96\n      jump\t// in\n    tag_95:\n      swap2\n      swap1\n      pop\n      sstore\n      pop\n        /* \"contracts/Voting.sol\":1383:1720  {... */\n      pop\n        /* \"contracts/Voting.sol\":1327:1720  function castVote(uint _option) public onlyDuringVoting {... */\n      pop\n      jump\t// out\n        /* \"contracts/Voting.sol\":313:337  bool public votingActive */\n    tag_31:\n      0x04\n      0x00\n      swap1\n      sload\n      swap1\n      0x0100\n      exp\n      swap1\n      div\n      0xff\n      and\n      dup2\n      jump\t// out\n        /* \"contracts/Voting.sol\":257:280  string[] public options */\n    tag_36:\n      0x02\n      dup2\n      dup2\n      sload\n      dup2\n      lt\n      tag_97\n      jumpi\n      0x00\n      dup1\n      revert\n    tag_97:\n      swap1\n      0x00\n      mstore\n      keccak256(0x00, 0x20)\n      add\n      0x00\n      swap2\n      pop\n      swap1\n      pop\n      dup1\n      sload\n      tag_99\n      swap1\n      tag_100\n      jump\t// in\n    tag_99:\n      dup1\n      0x1f\n      add\n      0x20\n      dup1\n      swap2\n      div\n      mul\n      0x20\n      add\n      mload(0x40)\n      swap1\n      dup2\n      add\n      0x40\n      mstore\n      dup1\n      swap3\n      swap2\n      swap1\n      dup2\n      dup2\n      mstore\n      0x20\n      add\n      dup3\n      dup1\n      sload\n      tag_101\n      swap1\n      tag_100\n      jump\t// in\n    tag_101:\n      dup1\n      iszero\n      tag_102\n      jumpi\n      dup1\n      0x1f\n      lt\n      tag_103\n      jumpi\n      0x0100\n      dup1\n      dup4\n      sload\n      div\n      mul\n      dup4\n      mstore\n      swap2\n      0x20\n      add\n      swap2\n      jump(tag_102)\n    tag_103:\n      dup3\n      add\n      swap2\n      swap1\n      0x00\n      mstore\n      keccak256(0x00, 0x20)\n      swap1\n    tag_104:\n      dup2\n      sload\n      dup2\n      mstore\n      swap1\n      0x01\n      add\n      swap1\n      0x20\n      add\n      dup1\n      dup4\n      gt\n      tag_104\n      jumpi\n      dup3\n      swap1\n      sub\n      0x1f\n      and\n      dup3\n      add\n      swap2\n    tag_102:\n      pop\n      pop\n      pop\n      pop\n      pop\n      dup2\n      jump\t// out\n        /* \"contracts/Voting.sol\":1728:1817  function getResults() public view returns (uint[] memory) {... */\n    tag_40:\n        /* \"contracts/Voting.sol\":1771:1784  uint[] memory */\n      0x60\n        /* \"contracts/Voting.sol\":1804:1809  votes */\n      0x03\n        /* \"contracts/Voting.sol\":1797:1809  return votes */\n      dup1\n      sload\n      dup1\n      0x20\n      mul\n      0x20\n      add\n      mload(0x40)\n      swap1\n      dup2\n      add\n      0x40\n      mstore\n      dup1\n      swap3\n      swap2\n      swap1\n      dup2\n      dup2\n      mstore\n      0x20\n      add\n      dup3\n      dup1\n      sload\n      dup1\n      iszero\n      tag_106\n      jumpi\n      0x20\n      mul\n      dup3\n      add\n      swap2\n      swap1\n      0x00\n      mstore\n      keccak256(0x00, 0x20)\n      swap1\n    tag_107:\n      dup2\n      sload\n      dup2\n      mstore\n      0x20\n      add\n      swap1\n      0x01\n      add\n      swap1\n      dup1\n      dup4\n      gt\n      tag_107\n      jumpi\n    tag_106:\n      pop\n      pop\n      pop\n      pop\n      pop\n      swap1\n      pop\n        /* \"contracts/Voting.sol\":1728:1817  function getResults() public view returns (uint[] memory) {... */\n      swap1\n      jump\t// out\n        /* \"contracts/Voting.sol\":287:306  uint[] public votes */\n    tag_45:\n      0x03\n      dup2\n      dup2\n      sload\n      dup2\n      lt\n      tag_108\n      jumpi\n      0x00\n      dup1\n      revert\n    tag_108:\n      swap1\n      0x00\n      mstore\n      keccak256(0x00, 0x20)\n      add\n      0x00\n      swap2\n      pop\n      swap1\n      pop\n      sload\n      dup2\n      jump\t// out\n        /* \"contracts/Voting.sol\":211:250  mapping(address => Voter) public voters */\n    tag_49:\n      mstore(0x20, 0x01)\n      dup1\n      0x00\n      mstore\n      keccak256(0x00, 0x40)\n      0x00\n      swap2\n      pop\n      swap1\n      pop\n      dup1\n      0x00\n      add\n      0x00\n      swap1\n      sload\n      swap1\n      0x0100\n      exp\n      swap1\n      div\n      0xff\n      and\n      swap1\n      dup1\n      0x00\n      add\n      0x01\n      swap1\n      sload\n      swap1\n      0x0100\n      exp\n      swap1\n      div\n      0xff\n      and\n      swap1\n      dup1\n      0x01\n      add\n      sload\n      swap1\n      pop\n      dup4\n      jump\t// out\n        /* \"contracts/Voting.sol\":1242:1319  function endVoting() public onlyAdmin {... */\n    tag_53:\n        /* \"contracts/Voting.sol\":432:437  admin */\n      0x00\n      dup1\n      sload\n      swap1\n      0x0100\n      exp\n      swap1\n      div\n      0xffffffffffffffffffffffffffffffffffffffff\n      and\n        /* \"contracts/Voting.sol\":418:437  msg.sender == admin */\n      0xffffffffffffffffffffffffffffffffffffffff\n      and\n        /* \"contracts/Voting.sol\":418:428  msg.sender */\n      caller\n        /* \"contracts/Voting.sol\":418:437  msg.sender == admin */\n      0xffffffffffffffffffffffffffffffffffffffff\n      and\n      eq\n        /* \"contracts/Voting.sol\":410:477  require(msg.sender == admin, \"Only admin can perform this action.\") */\n      tag_111\n      jumpi\n      mload(0x40)\n      0x08c379a000000000000000000000000000000000000000000000000000000000\n      dup2\n      mstore\n      0x04\n      add\n      tag_112\n      swap1\n      tag_61\n      jump\t// in\n    tag_112:\n      mload(0x40)\n      dup1\n      swap2\n      sub\n      swap1\n      revert\n    tag_111:\n        /* \"contracts/Voting.sol\":1306:1311  false */\n      0x00\n        /* \"contracts/Voting.sol\":1291:1303  votingActive */\n      0x04\n      0x00\n        /* \"contracts/Voting.sol\":1291:1311  votingActive = false */\n      0x0100\n      exp\n      dup2\n      sload\n      dup2\n      0xff\n      mul\n      not\n      and\n      swap1\n      dup4\n      iszero\n      iszero\n      mul\n      or\n      swap1\n      sstore\n      pop\n        /* \"contracts/Voting.sol\":1242:1319  function endVoting() public onlyAdmin {... */\n      jump\t// out\n        /* \"contracts/Voting.sol\":184:204  address public admin */\n    tag_55:\n      0x00\n      dup1\n      sload\n      swap1\n      0x0100\n      exp\n      swap1\n      div\n      0xffffffffffffffffffffffffffffffffffffffff\n      and\n      dup2\n      jump\t// out\n        /* \"#utility.yul\":7:84   */\n    tag_114:\n        /* \"#utility.yul\":44:51   */\n      0x00\n        /* \"#utility.yul\":73:78   */\n      dup2\n        /* \"#utility.yul\":62:78   */\n      swap1\n      pop\n        /* \"#utility.yul\":7:84   */\n      swap2\n      swap1\n      pop\n      jump\t// out\n        /* \"#utility.yul\":90:208   */\n    tag_115:\n        /* \"#utility.yul\":177:201   */\n      tag_159\n        /* \"#utility.yul\":195:200   */\n      dup2\n        /* \"#utility.yul\":177:201   */\n      tag_114\n      jump\t// in\n    tag_159:\n        /* \"#utility.yul\":172:175   */\n      dup3\n        /* \"#utility.yul\":165:202   */\n      mstore\n        /* \"#utility.yul\":90:208   */\n      pop\n      pop\n      jump\t// out\n        /* \"#utility.yul\":214:436   */\n    tag_18:\n        /* \"#utility.yul\":307:311   */\n      0x00\n        /* \"#utility.yul\":345:347   */\n      0x20\n        /* \"#utility.yul\":334:343   */\n      dup3\n        /* \"#utility.yul\":330:348   */\n      add\n        /* \"#utility.yul\":322:348   */\n      swap1\n      pop\n        /* \"#utility.yul\":358:429   */\n      tag_161\n        /* \"#utility.yul\":426:427   */\n      0x00\n        /* \"#utility.yul\":415:424   */\n      dup4\n        /* \"#utility.yul\":411:428   */\n      add\n        /* \"#utility.yul\":402:408   */\n      dup5\n        /* \"#utility.yul\":358:429   */\n      tag_115\n      jump\t// in\n    tag_161:\n        /* \"#utility.yul\":214:436   */\n      swap3\n      swap2\n      pop\n      pop\n      jump\t// out\n        /* \"#utility.yul\":523:640   */\n    tag_117:\n        /* \"#utility.yul\":632:633   */\n      0x00\n        /* \"#utility.yul\":629:630   */\n      dup1\n        /* \"#utility.yul\":622:634   */\n      revert\n        /* \"#utility.yul\":769:895   */\n    tag_119:\n        /* \"#utility.yul\":806:813   */\n      0x00\n        /* \"#utility.yul\":846:888   */\n      0xffffffffffffffffffffffffffffffffffffffff\n        /* \"#utility.yul\":839:844   */\n      dup3\n        /* \"#utility.yul\":835:889   */\n      and\n        /* \"#utility.yul\":824:889   */\n      swap1\n      pop\n        /* \"#utility.yul\":769:895   */\n      swap2\n      swap1\n      pop\n      jump\t// out\n        /* \"#utility.yul\":901:997   */\n    tag_120:\n        /* \"#utility.yul\":938:945   */\n      0x00\n        /* \"#utility.yul\":967:991   */\n      tag_167\n        /* \"#utility.yul\":985:990   */\n      dup3\n        /* \"#utility.yul\":967:991   */\n      tag_119\n      jump\t// in\n    tag_167:\n        /* \"#utility.yul\":956:991   */\n      swap1\n      pop\n        /* \"#utility.yul\":901:997   */\n      swap2\n      swap1\n      pop\n      jump\t// out\n        /* \"#utility.yul\":1003:1125   */\n    tag_121:\n        /* \"#utility.yul\":1076:1100   */\n      tag_169\n        /* \"#utility.yul\":1094:1099   */\n      dup2\n        /* \"#utility.yul\":1076:1100   */\n      tag_120\n      jump\t// in\n    tag_169:\n        /* \"#utility.yul\":1069:1074   */\n      dup2\n        /* \"#utility.yul\":1066:1101   */\n      eq\n        /* \"#utility.yul\":1056:1119   */\n      tag_170\n      jumpi\n        /* \"#utility.yul\":1115:1116   */\n      0x00\n        /* \"#utility.yul\":1112:1113   */\n      dup1\n        /* \"#utility.yul\":1105:1117   */\n      revert\n        /* \"#utility.yul\":1056:1119   */\n    tag_170:\n        /* \"#utility.yul\":1003:1125   */\n      pop\n      jump\t// out\n        /* \"#utility.yul\":1131:1270   */\n    tag_122:\n        /* \"#utility.yul\":1177:1182   */\n      0x00\n        /* \"#utility.yul\":1215:1221   */\n      dup2\n        /* \"#utility.yul\":1202:1222   */\n      calldataload\n        /* \"#utility.yul\":1193:1222   */\n      swap1\n      pop\n        /* \"#utility.yul\":1231:1264   */\n      tag_172\n        /* \"#utility.yul\":1258:1263   */\n      dup2\n        /* \"#utility.yul\":1231:1264   */\n      tag_121\n      jump\t// in\n    tag_172:\n        /* \"#utility.yul\":1131:1270   */\n      swap3\n      swap2\n      pop\n      pop\n      jump\t// out\n        /* \"#utility.yul\":1276:1605   */\n    tag_21:\n        /* \"#utility.yul\":1335:1341   */\n      0x00\n        /* \"#utility.yul\":1384:1386   */\n      0x20\n        /* \"#utility.yul\":1372:1381   */\n      dup3\n        /* \"#utility.yul\":1363:1370   */\n      dup5\n        /* \"#utility.yul\":1359:1382   */\n      sub\n        /* \"#utility.yul\":1355:1387   */\n      slt\n        /* \"#utility.yul\":1352:1471   */\n      iszero\n      tag_174\n      jumpi\n        /* \"#utility.yul\":1390:1469   */\n      tag_175\n      tag_117\n      jump\t// in\n    tag_175:\n        /* \"#utility.yul\":1352:1471   */\n    tag_174:\n        /* \"#utility.yul\":1510:1511   */\n      0x00\n        /* \"#utility.yul\":1535:1588   */\n      tag_176\n        /* \"#utility.yul\":1580:1587   */\n      dup5\n        /* \"#utility.yul\":1571:1577   */\n      dup3\n        /* \"#utility.yul\":1560:1569   */\n      dup6\n        /* \"#utility.yul\":1556:1578   */\n      add\n        /* \"#utility.yul\":1535:1588   */\n      tag_122\n      jump\t// in\n    tag_176:\n        /* \"#utility.yul\":1525:1588   */\n      swap2\n      pop\n        /* \"#utility.yul\":1481:1598   */\n      pop\n        /* \"#utility.yul\":1276:1605   */\n      swap3\n      swap2\n      pop\n      pop\n      jump\t// out\n        /* \"#utility.yul\":1611:1733   */\n    tag_123:\n        /* \"#utility.yul\":1684:1708   */\n      tag_178\n        /* \"#utility.yul\":1702:1707   */\n      dup2\n        /* \"#utility.yul\":1684:1708   */\n      tag_114\n      jump\t// in\n    tag_178:\n        /* \"#utility.yul\":1677:1682   */\n      dup2\n        /* \"#utility.yul\":1674:1709   */\n      eq\n        /* \"#utility.yul\":1664:1727   */\n      tag_179\n      jumpi\n        /* \"#utility.yul\":1723:1724   */\n      0x00\n        /* \"#utility.yul\":1720:1721   */\n      dup1\n        /* \"#utility.yul\":1713:1725   */\n      revert\n        /* \"#utility.yul\":1664:1727   */\n    tag_179:\n        /* \"#utility.yul\":1611:1733   */\n      pop\n      jump\t// out\n        /* \"#utility.yul\":1739:1878   */\n    tag_124:\n        /* \"#utility.yul\":1785:1790   */\n      0x00\n        /* \"#utility.yul\":1823:1829   */\n      dup2\n        /* \"#utility.yul\":1810:1830   */\n      calldataload\n        /* \"#utility.yul\":1801:1830   */\n      swap1\n      pop\n        /* \"#utility.yul\":1839:1872   */\n      tag_181\n        /* \"#utility.yul\":1866:1871   */\n      dup2\n        /* \"#utility.yul\":1839:1872   */\n      tag_123\n      jump\t// in\n    tag_181:\n        /* \"#utility.yul\":1739:1878   */\n      swap3\n      swap2\n      pop\n      pop\n      jump\t// out\n        /* \"#utility.yul\":1884:2213   */\n    tag_25:\n        /* \"#utility.yul\":1943:1949   */\n      0x00\n        /* \"#utility.yul\":1992:1994   */\n      0x20\n        /* \"#utility.yul\":1980:1989   */\n      dup3\n        /* \"#utility.yul\":1971:1978   */\n      dup5\n        /* \"#utility.yul\":1967:1990   */\n      sub\n        /* \"#utility.yul\":1963:1995   */\n      slt\n        /* \"#utility.yul\":1960:2079   */\n      iszero\n      tag_183\n      jumpi\n        /* \"#utility.yul\":1998:2077   */\n      tag_184\n      tag_117\n      jump\t// in\n    tag_184:\n        /* \"#utility.yul\":1960:2079   */\n    tag_183:\n        /* \"#utility.yul\":2118:2119   */\n      0x00\n        /* \"#utility.yul\":2143:2196   */\n      tag_185\n        /* \"#utility.yul\":2188:2195   */\n      dup5\n        /* \"#utility.yul\":2179:2185   */\n      dup3\n        /* \"#utility.yul\":2168:2177   */\n      dup6\n        /* \"#utility.yul\":2164:2186   */\n      add\n        /* \"#utility.yul\":2143:2196   */\n      tag_124\n      jump\t// in\n    tag_185:\n        /* \"#utility.yul\":2133:2196   */\n      swap2\n      pop\n        /* \"#utility.yul\":2089:2206   */\n      pop\n        /* \"#utility.yul\":1884:2213   */\n      swap3\n      swap2\n      pop\n      pop\n      jump\t// out\n        /* \"#utility.yul\":2219:2309   */\n    tag_125:\n        /* \"#utility.yul\":2253:2260   */\n      0x00\n        /* \"#utility.yul\":2296:2301   */\n      dup2\n        /* \"#utility.yul\":2289:2302   */\n      iszero\n        /* \"#utility.yul\":2282:2303   */\n      iszero\n        /* \"#utility.yul\":2271:2303   */\n      swap1\n      pop\n        /* \"#utility.yul\":2219:2309   */\n      swap2\n      swap1\n      pop\n      jump\t// out\n        /* \"#utility.yul\":2315:2424   */\n    tag_126:\n        /* \"#utility.yul\":2396:2417   */\n      tag_188\n        /* \"#utility.yul\":2411:2416   */\n      dup2\n        /* \"#utility.yul\":2396:2417   */\n      tag_125\n      jump\t// in\n    tag_188:\n        /* \"#utility.yul\":2391:2394   */\n      dup3\n        /* \"#utility.yul\":2384:2418   */\n      mstore\n        /* \"#utility.yul\":2315:2424   */\n      pop\n      pop\n      jump\t// out\n        /* \"#utility.yul\":2430:2640   */\n    tag_33:\n        /* \"#utility.yul\":2517:2521   */\n      0x00\n        /* \"#utility.yul\":2555:2557   */\n      0x20\n        /* \"#utility.yul\":2544:2553   */\n      dup3\n        /* \"#utility.yul\":2540:2558   */\n      add\n        /* \"#utility.yul\":2532:2558   */\n      swap1\n      pop\n        /* \"#utility.yul\":2568:2633   */\n      tag_190\n        /* \"#utility.yul\":2630:2631   */\n      0x00\n        /* \"#utility.yul\":2619:2628   */\n      dup4\n        /* \"#utility.yul\":2615:2632   */\n      add\n        /* \"#utility.yul\":2606:2612   */\n      dup5\n        /* \"#utility.yul\":2568:2633   */\n      tag_126\n      jump\t// in\n    tag_190:\n        /* \"#utility.yul\":2430:2640   */\n      swap3\n      swap2\n      pop\n      pop\n      jump\t// out\n        /* \"#utility.yul\":2646:2745   */\n    tag_127:\n        /* \"#utility.yul\":2698:2704   */\n      0x00\n        /* \"#utility.yul\":2732:2737   */\n      dup2\n        /* \"#utility.yul\":2726:2738   */\n      mload\n        /* \"#utility.yul\":2716:2738   */\n      swap1\n      pop\n        /* \"#utility.yul\":2646:2745   */\n      swap2\n      swap1\n      pop\n      jump\t// out\n        /* \"#utility.yul\":2751:2920   */\n    tag_128:\n        /* \"#utility.yul\":2835:2846   */\n      0x00\n        /* \"#utility.yul\":2869:2875   */\n      dup3\n        /* \"#utility.yul\":2864:2867   */\n      dup3\n        /* \"#utility.yul\":2857:2876   */\n      mstore\n        /* \"#utility.yul\":2909:2913   */\n      0x20\n        /* \"#utility.yul\":2904:2907   */\n      dup3\n        /* \"#utility.yul\":2900:2914   */\n      add\n        /* \"#utility.yul\":2885:2914   */\n      swap1\n      pop\n        /* \"#utility.yul\":2751:2920   */\n      swap3\n      swap2\n      pop\n      pop\n      jump\t// out\n        /* \"#utility.yul\":2926:3065   */\n    tag_129:\n        /* \"#utility.yul\":3015:3021   */\n      dup3\n        /* \"#utility.yul\":3010:3013   */\n      dup2\n        /* \"#utility.yul\":3005:3008   */\n      dup4\n        /* \"#utility.yul\":2999:3022   */\n      mcopy\n        /* \"#utility.yul\":3056:3057   */\n      0x00\n        /* \"#utility.yul\":3047:3053   */\n      dup4\n        /* \"#utility.yul\":3042:3045   */\n      dup4\n        /* \"#utility.yul\":3038:3054   */\n      add\n        /* \"#utility.yul\":3031:3058   */\n      mstore\n        /* \"#utility.yul\":2926:3065   */\n      pop\n      pop\n      pop\n      jump\t// out\n        /* \"#utility.yul\":3071:3173   */\n    tag_130:\n        /* \"#utility.yul\":3112:3118   */\n      0x00\n        /* \"#utility.yul\":3163:3165   */\n      0x1f\n        /* \"#utility.yul\":3159:3166   */\n      not\n        /* \"#utility.yul\":3154:3156   */\n      0x1f\n        /* \"#utility.yul\":3147:3152   */\n      dup4\n        /* \"#utility.yul\":3143:3157   */\n      add\n        /* \"#utility.yul\":3139:3167   */\n      and\n        /* \"#utility.yul\":3129:3167   */\n      swap1\n      pop\n        /* \"#utility.yul\":3071:3173   */\n      swap2\n      swap1\n      pop\n      jump\t// out\n        /* \"#utility.yul\":3179:3556   */\n    tag_131:\n        /* \"#utility.yul\":3267:3270   */\n      0x00\n        /* \"#utility.yul\":3295:3334   */\n      tag_196\n        /* \"#utility.yul\":3328:3333   */\n      dup3\n        /* \"#utility.yul\":3295:3334   */\n      tag_127\n      jump\t// in\n    tag_196:\n        /* \"#utility.yul\":3350:3421   */\n      tag_197\n        /* \"#utility.yul\":3414:3420   */\n      dup2\n        /* \"#utility.yul\":3409:3412   */\n      dup6\n        /* \"#utility.yul\":3350:3421   */\n      tag_128\n      jump\t// in\n    tag_197:\n        /* \"#utility.yul\":3343:3421   */\n      swap4\n      pop\n        /* \"#utility.yul\":3430:3495   */\n      tag_198\n        /* \"#utility.yul\":3488:3494   */\n      dup2\n        /* \"#utility.yul\":3483:3486   */\n      dup6\n        /* \"#utility.yul\":3476:3480   */\n      0x20\n        /* \"#utility.yul\":3469:3474   */\n      dup7\n        /* \"#utility.yul\":3465:3481   */\n      add\n        /* \"#utility.yul\":3430:3495   */\n      tag_129\n      jump\t// in\n    tag_198:\n        /* \"#utility.yul\":3520:3549   */\n      tag_199\n        /* \"#utility.yul\":3542:3548   */\n      dup2\n        /* \"#utility.yul\":3520:3549   */\n      tag_130\n      jump\t// in\n    tag_199:\n        /* \"#utility.yul\":3515:3518   */\n      dup5\n        /* \"#utility.yul\":3511:3550   */\n      add\n        /* \"#utility.yul\":3504:3550   */\n      swap2\n      pop\n        /* \"#utility.yul\":3271:3556   */\n      pop\n        /* \"#utility.yul\":3179:3556   */\n      swap3\n      swap2\n      pop\n      pop\n      jump\t// out\n        /* \"#utility.yul\":3562:3875   */\n    tag_38:\n        /* \"#utility.yul\":3675:3679   */\n      0x00\n        /* \"#utility.yul\":3713:3715   */\n      0x20\n        /* \"#utility.yul\":3702:3711   */\n      dup3\n        /* \"#utility.yul\":3698:3716   */\n      add\n        /* \"#utility.yul\":3690:3716   */\n      swap1\n      pop\n        /* \"#utility.yul\":3762:3771   */\n      dup2\n        /* \"#utility.yul\":3756:3760   */\n      dup2\n        /* \"#utility.yul\":3752:3772   */\n      sub\n        /* \"#utility.yul\":3748:3749   */\n      0x00\n        /* \"#utility.yul\":3737:3746   */\n      dup4\n        /* \"#utility.yul\":3733:3750   */\n      add\n        /* \"#utility.yul\":3726:3773   */\n      mstore\n        /* \"#utility.yul\":3790:3868   */\n      tag_201\n        /* \"#utility.yul\":3863:3867   */\n      dup2\n        /* \"#utility.yul\":3854:3860   */\n      dup5\n        /* \"#utility.yul\":3790:3868   */\n      tag_131\n      jump\t// in\n    tag_201:\n        /* \"#utility.yul\":3782:3868   */\n      swap1\n      pop\n        /* \"#utility.yul\":3562:3875   */\n      swap3\n      swap2\n      pop\n      pop\n      jump\t// out\n        /* \"#utility.yul\":3881:3995   */\n    tag_132:\n        /* \"#utility.yul\":3948:3954   */\n      0x00\n        /* \"#utility.yul\":3982:3987   */\n      dup2\n        /* \"#utility.yul\":3976:3988   */\n      mload\n        /* \"#utility.yul\":3966:3988   */\n      swap1\n      pop\n        /* \"#utility.yul\":3881:3995   */\n      swap2\n      swap1\n      pop\n      jump\t// out\n        /* \"#utility.yul\":4001:4185   */\n    tag_133:\n        /* \"#utility.yul\":4100:4111   */\n      0x00\n        /* \"#utility.yul\":4134:4140   */\n      dup3\n        /* \"#utility.yul\":4129:4132   */\n      dup3\n        /* \"#utility.yul\":4122:4141   */\n      mstore\n        /* \"#utility.yul\":4174:4178   */\n      0x20\n        /* \"#utility.yul\":4169:4172   */\n      dup3\n        /* \"#utility.yul\":4165:4179   */\n      add\n        /* \"#utility.yul\":4150:4179   */\n      swap1\n      pop\n        /* \"#utility.yul\":4001:4185   */\n      swap3\n      swap2\n      pop\n      pop\n      jump\t// out\n        /* \"#utility.yul\":4191:4323   */\n    tag_134:\n        /* \"#utility.yul\":4258:4262   */\n      0x00\n        /* \"#utility.yul\":4281:4284   */\n      dup2\n        /* \"#utility.yul\":4273:4284   */\n      swap1\n      pop\n        /* \"#utility.yul\":4311:4315   */\n      0x20\n        /* \"#utility.yul\":4306:4309   */\n      dup3\n        /* \"#utility.yul\":4302:4316   */\n      add\n        /* \"#utility.yul\":4294:4316   */\n      swap1\n      pop\n        /* \"#utility.yul\":4191:4323   */\n      swap2\n      swap1\n      pop\n      jump\t// out\n        /* \"#utility.yul\":4329:4437   */\n    tag_135:\n        /* \"#utility.yul\":4406:4430   */\n      tag_206\n        /* \"#utility.yul\":4424:4429   */\n      dup2\n        /* \"#utility.yul\":4406:4430   */\n      tag_114\n      jump\t// in\n    tag_206:\n        /* \"#utility.yul\":4401:4404   */\n      dup3\n        /* \"#utility.yul\":4394:4431   */\n      mstore\n        /* \"#utility.yul\":4329:4437   */\n      pop\n      pop\n      jump\t// out\n        /* \"#utility.yul\":4443:4622   */\n    tag_136:\n        /* \"#utility.yul\":4512:4522   */\n      0x00\n        /* \"#utility.yul\":4533:4579   */\n      tag_208\n        /* \"#utility.yul\":4575:4578   */\n      dup4\n        /* \"#utility.yul\":4567:4573   */\n      dup4\n        /* \"#utility.yul\":4533:4579   */\n      tag_135\n      jump\t// in\n    tag_208:\n        /* \"#utility.yul\":4611:4615   */\n      0x20\n        /* \"#utility.yul\":4606:4609   */\n      dup4\n        /* \"#utility.yul\":4602:4616   */\n      add\n        /* \"#utility.yul\":4588:4616   */\n      swap1\n      pop\n        /* \"#utility.yul\":4443:4622   */\n      swap3\n      swap2\n      pop\n      pop\n      jump\t// out\n        /* \"#utility.yul\":4628:4741   */\n    tag_137:\n        /* \"#utility.yul\":4698:4702   */\n      0x00\n        /* \"#utility.yul\":4730:4734   */\n      0x20\n        /* \"#utility.yul\":4725:4728   */\n      dup3\n        /* \"#utility.yul\":4721:4735   */\n      add\n        /* \"#utility.yul\":4713:4735   */\n      swap1\n      pop\n        /* \"#utility.yul\":4628:4741   */\n      swap2\n      swap1\n      pop\n      jump\t// out\n        /* \"#utility.yul\":4777:5509   */\n    tag_138:\n        /* \"#utility.yul\":4896:4899   */\n      0x00\n        /* \"#utility.yul\":4925:4979   */\n      tag_211\n        /* \"#utility.yul\":4973:4978   */\n      dup3\n        /* \"#utility.yul\":4925:4979   */\n      tag_132\n      jump\t// in\n    tag_211:\n        /* \"#utility.yul\":4995:5081   */\n      tag_212\n        /* \"#utility.yul\":5074:5080   */\n      dup2\n        /* \"#utility.yul\":5069:5072   */\n      dup6\n        /* \"#utility.yul\":4995:5081   */\n      tag_133\n      jump\t// in\n    tag_212:\n        /* \"#utility.yul\":4988:5081   */\n      swap4\n      pop\n        /* \"#utility.yul\":5105:5161   */\n      tag_213\n        /* \"#utility.yul\":5155:5160   */\n      dup4\n        /* \"#utility.yul\":5105:5161   */\n      tag_134\n      jump\t// in\n    tag_213:\n        /* \"#utility.yul\":5184:5191   */\n      dup1\n        /* \"#utility.yul\":5215:5216   */\n      0x00\n        /* \"#utility.yul\":5200:5484   */\n    tag_214:\n        /* \"#utility.yul\":5225:5231   */\n      dup4\n        /* \"#utility.yul\":5222:5223   */\n      dup2\n        /* \"#utility.yul\":5219:5232   */\n      lt\n        /* \"#utility.yul\":5200:5484   */\n      iszero\n      tag_216\n      jumpi\n        /* \"#utility.yul\":5301:5307   */\n      dup2\n        /* \"#utility.yul\":5295:5308   */\n      mload\n        /* \"#utility.yul\":5328:5391   */\n      tag_217\n        /* \"#utility.yul\":5387:5390   */\n      dup9\n        /* \"#utility.yul\":5372:5385   */\n      dup3\n        /* \"#utility.yul\":5328:5391   */\n      tag_136\n      jump\t// in\n    tag_217:\n        /* \"#utility.yul\":5321:5391   */\n      swap8\n      pop\n        /* \"#utility.yul\":5414:5474   */\n      tag_218\n        /* \"#utility.yul\":5467:5473   */\n      dup4\n        /* \"#utility.yul\":5414:5474   */\n      tag_137\n      jump\t// in\n    tag_218:\n        /* \"#utility.yul\":5404:5474   */\n      swap3\n      pop\n        /* \"#utility.yul\":5260:5484   */\n      pop\n        /* \"#utility.yul\":5247:5248   */\n      0x01\n        /* \"#utility.yul\":5244:5245   */\n      dup2\n        /* \"#utility.yul\":5240:5249   */\n      add\n        /* \"#utility.yul\":5235:5249   */\n      swap1\n      pop\n        /* \"#utility.yul\":5200:5484   */\n      jump(tag_214)\n    tag_216:\n        /* \"#utility.yul\":5204:5218   */\n      pop\n        /* \"#utility.yul\":5500:5503   */\n      dup6\n        /* \"#utility.yul\":5493:5503   */\n      swap4\n      pop\n        /* \"#utility.yul\":4901:5509   */\n      pop\n      pop\n      pop\n        /* \"#utility.yul\":4777:5509   */\n      swap3\n      swap2\n      pop\n      pop\n      jump\t// out\n        /* \"#utility.yul\":5515:5888   */\n    tag_42:\n        /* \"#utility.yul\":5658:5662   */\n      0x00\n        /* \"#utility.yul\":5696:5698   */\n      0x20\n        /* \"#utility.yul\":5685:5694   */\n      dup3\n        /* \"#utility.yul\":5681:5699   */\n      add\n        /* \"#utility.yul\":5673:5699   */\n      swap1\n      pop\n        /* \"#utility.yul\":5745:5754   */\n      dup2\n        /* \"#utility.yul\":5739:5743   */\n      dup2\n        /* \"#utility.yul\":5735:5755   */\n      sub\n        /* \"#utility.yul\":5731:5732   */\n      0x00\n        /* \"#utility.yul\":5720:5729   */\n      dup4\n        /* \"#utility.yul\":5716:5733   */\n      add\n        /* \"#utility.yul\":5709:5756   */\n      mstore\n        /* \"#utility.yul\":5773:5881   */\n      tag_220\n        /* \"#utility.yul\":5876:5880   */\n      dup2\n        /* \"#utility.yul\":5867:5873   */\n      dup5\n        /* \"#utility.yul\":5773:5881   */\n      tag_138\n      jump\t// in\n    tag_220:\n        /* \"#utility.yul\":5765:5881   */\n      swap1\n      pop\n        /* \"#utility.yul\":5515:5888   */\n      swap3\n      swap2\n      pop\n      pop\n      jump\t// out\n        /* \"#utility.yul\":5894:6312   */\n    tag_51:\n        /* \"#utility.yul\":6031:6035   */\n      0x00\n        /* \"#utility.yul\":6069:6071   */\n      0x60\n        /* \"#utility.yul\":6058:6067   */\n      dup3\n        /* \"#utility.yul\":6054:6072   */\n      add\n        /* \"#utility.yul\":6046:6072   */\n      swap1\n      pop\n        /* \"#utility.yul\":6082:6147   */\n      tag_222\n        /* \"#utility.yul\":6144:6145   */\n      0x00\n        /* \"#utility.yul\":6133:6142   */\n      dup4\n        /* \"#utility.yul\":6129:6146   */\n      add\n        /* \"#utility.yul\":6120:6126   */\n      dup7\n        /* \"#utility.yul\":6082:6147   */\n      tag_126\n      jump\t// in\n    tag_222:\n        /* \"#utility.yul\":6157:6223   */\n      tag_223\n        /* \"#utility.yul\":6219:6221   */\n      0x20\n        /* \"#utility.yul\":6208:6217   */\n      dup4\n        /* \"#utility.yul\":6204:6222   */\n      add\n        /* \"#utility.yul\":6195:6201   */\n      dup6\n        /* \"#utility.yul\":6157:6223   */\n      tag_126\n      jump\t// in\n    tag_223:\n        /* \"#utility.yul\":6233:6305   */\n      tag_224\n        /* \"#utility.yul\":6301:6303   */\n      0x40\n        /* \"#utility.yul\":6290:6299   */\n      dup4\n        /* \"#utility.yul\":6286:6304   */\n      add\n        /* \"#utility.yul\":6277:6283   */\n      dup5\n        /* \"#utility.yul\":6233:6305   */\n      tag_115\n      jump\t// in\n    tag_224:\n        /* \"#utility.yul\":5894:6312   */\n      swap5\n      swap4\n      pop\n      pop\n      pop\n      pop\n      jump\t// out\n        /* \"#utility.yul\":6318:6436   */\n    tag_139:\n        /* \"#utility.yul\":6405:6429   */\n      tag_226\n        /* \"#utility.yul\":6423:6428   */\n      dup2\n        /* \"#utility.yul\":6405:6429   */\n      tag_120\n      jump\t// in\n    tag_226:\n        /* \"#utility.yul\":6400:6403   */\n      dup3\n        /* \"#utility.yul\":6393:6430   */\n      mstore\n        /* \"#utility.yul\":6318:6436   */\n      pop\n      pop\n      jump\t// out\n        /* \"#utility.yul\":6442:6664   */\n    tag_57:\n        /* \"#utility.yul\":6535:6539   */\n      0x00\n        /* \"#utility.yul\":6573:6575   */\n      0x20\n        /* \"#utility.yul\":6562:6571   */\n      dup3\n        /* \"#utility.yul\":6558:6576   */\n      add\n        /* \"#utility.yul\":6550:6576   */\n      swap1\n      pop\n        /* \"#utility.yul\":6586:6657   */\n      tag_228\n        /* \"#utility.yul\":6654:6655   */\n      0x00\n        /* \"#utility.yul\":6643:6652   */\n      dup4\n        /* \"#utility.yul\":6639:6656   */\n      add\n        /* \"#utility.yul\":6630:6636   */\n      dup5\n        /* \"#utility.yul\":6586:6657   */\n      tag_139\n      jump\t// in\n    tag_228:\n        /* \"#utility.yul\":6442:6664   */\n      swap3\n      swap2\n      pop\n      pop\n      jump\t// out\n        /* \"#utility.yul\":6670:6892   */\n    tag_140:\n        /* \"#utility.yul\":6810:6844   */\n      0x4f6e6c792061646d696e2063616e20706572666f726d20746869732061637469\n        /* \"#utility.yul\":6806:6807   */\n      0x00\n        /* \"#utility.yul\":6798:6804   */\n      dup3\n        /* \"#utility.yul\":6794:6808   */\n      add\n        /* \"#utility.yul\":6787:6845   */\n      mstore\n        /* \"#utility.yul\":6879:6884   */\n      0x6f6e2e0000000000000000000000000000000000000000000000000000000000\n        /* \"#utility.yul\":6874:6876   */\n      0x20\n        /* \"#utility.yul\":6866:6872   */\n      dup3\n        /* \"#utility.yul\":6862:6877   */\n      add\n        /* \"#utility.yul\":6855:6885   */\n      mstore\n        /* \"#utility.yul\":6670:6892   */\n      pop\n      jump\t// out\n        /* \"#utility.yul\":6898:7264   */\n    tag_141:\n        /* \"#utility.yul\":7040:7043   */\n      0x00\n        /* \"#utility.yul\":7061:7128   */\n      tag_231\n        /* \"#utility.yul\":7125:7127   */\n      0x23\n        /* \"#utility.yul\":7120:7123   */\n      dup4\n        /* \"#utility.yul\":7061:7128   */\n      tag_128\n      jump\t// in\n    tag_231:\n        /* \"#utility.yul\":7054:7128   */\n      swap2\n      pop\n        /* \"#utility.yul\":7137:7230   */\n      tag_232\n        /* \"#utility.yul\":7226:7229   */\n      dup3\n        /* \"#utility.yul\":7137:7230   */\n      tag_140\n      jump\t// in\n    tag_232:\n        /* \"#utility.yul\":7255:7257   */\n      0x40\n        /* \"#utility.yul\":7250:7253   */\n      dup3\n        /* \"#utility.yul\":7246:7258   */\n      add\n        /* \"#utility.yul\":7239:7258   */\n      swap1\n      pop\n        /* \"#utility.yul\":6898:7264   */\n      swap2\n      swap1\n      pop\n      jump\t// out\n        /* \"#utility.yul\":7270:7689   */\n    tag_61:\n        /* \"#utility.yul\":7436:7440   */\n      0x00\n        /* \"#utility.yul\":7474:7476   */\n      0x20\n        /* \"#utility.yul\":7463:7472   */\n      dup3\n        /* \"#utility.yul\":7459:7477   */\n      add\n        /* \"#utility.yul\":7451:7477   */\n      swap1\n      pop\n        /* \"#utility.yul\":7523:7532   */\n      dup2\n        /* \"#utility.yul\":7517:7521   */\n      dup2\n        /* \"#utility.yul\":7513:7533   */\n      sub\n        /* \"#utility.yul\":7509:7510   */\n      0x00\n        /* \"#utility.yul\":7498:7507   */\n      dup4\n        /* \"#utility.yul\":7494:7511   */\n      add\n        /* \"#utility.yul\":7487:7534   */\n      mstore\n        /* \"#utility.yul\":7551:7682   */\n      tag_234\n        /* \"#utility.yul\":7677:7681   */\n      dup2\n        /* \"#utility.yul\":7551:7682   */\n      tag_141\n      jump\t// in\n    tag_234:\n        /* \"#utility.yul\":7543:7682   */\n      swap1\n      pop\n        /* \"#utility.yul\":7270:7689   */\n      swap2\n      swap1\n      pop\n      jump\t// out\n        /* \"#utility.yul\":7695:7873   */\n    tag_142:\n        /* \"#utility.yul\":7835:7865   */\n      0x566f74657220697320616c726561647920726567697374657265642e00000000\n        /* \"#utility.yul\":7831:7832   */\n      0x00\n        /* \"#utility.yul\":7823:7829   */\n      dup3\n        /* \"#utility.yul\":7819:7833   */\n      add\n        /* \"#utility.yul\":7812:7866   */\n      mstore\n        /* \"#utility.yul\":7695:7873   */\n      pop\n      jump\t// out\n        /* \"#utility.yul\":7879:8245   */\n    tag_143:\n        /* \"#utility.yul\":8021:8024   */\n      0x00\n        /* \"#utility.yul\":8042:8109   */\n      tag_237\n        /* \"#utility.yul\":8106:8108   */\n      0x1c\n        /* \"#utility.yul\":8101:8104   */\n      dup4\n        /* \"#utility.yul\":8042:8109   */\n      tag_128\n      jump\t// in\n    tag_237:\n        /* \"#utility.yul\":8035:8109   */\n      swap2\n      pop\n        /* \"#utility.yul\":8118:8211   */\n      tag_238\n        /* \"#utility.yul\":8207:8210   */\n      dup3\n        /* \"#utility.yul\":8118:8211   */\n      tag_142\n      jump\t// in\n    tag_238:\n        /* \"#utility.yul\":8236:8238   */\n      0x20\n        /* \"#utility.yul\":8231:8234   */\n      dup3\n        /* \"#utility.yul\":8227:8239   */\n      add\n        /* \"#utility.yul\":8220:8239   */\n      swap1\n      pop\n        /* \"#utility.yul\":7879:8245   */\n      swap2\n      swap1\n      pop\n      jump\t// out\n        /* \"#utility.yul\":8251:8670   */\n    tag_65:\n        /* \"#utility.yul\":8417:8421   */\n      0x00\n        /* \"#utility.yul\":8455:8457   */\n      0x20\n        /* \"#utility.yul\":8444:8453   */\n      dup3\n        /* \"#utility.yul\":8440:8458   */\n      add\n        /* \"#utility.yul\":8432:8458   */\n      swap1\n      pop\n        /* \"#utility.yul\":8504:8513   */\n      dup2\n        /* \"#utility.yul\":8498:8502   */\n      dup2\n        /* \"#utility.yul\":8494:8514   */\n      sub\n        /* \"#utility.yul\":8490:8491   */\n      0x00\n        /* \"#utility.yul\":8479:8488   */\n      dup4\n        /* \"#utility.yul\":8475:8492   */\n      add\n        /* \"#utility.yul\":8468:8515   */\n      mstore\n        /* \"#utility.yul\":8532:8663   */\n      tag_240\n        /* \"#utility.yul\":8658:8662   */\n      dup2\n        /* \"#utility.yul\":8532:8663   */\n      tag_143\n      jump\t// in\n    tag_240:\n        /* \"#utility.yul\":8524:8663   */\n      swap1\n      pop\n        /* \"#utility.yul\":8251:8670   */\n      swap2\n      swap1\n      pop\n      jump\t// out\n        /* \"#utility.yul\":8676:8856   */\n    tag_144:\n        /* \"#utility.yul\":8724:8801   */\n      0x4e487b7100000000000000000000000000000000000000000000000000000000\n        /* \"#utility.yul\":8721:8722   */\n      0x00\n        /* \"#utility.yul\":8714:8802   */\n      mstore\n        /* \"#utility.yul\":8821:8825   */\n      0x11\n        /* \"#utility.yul\":8818:8819   */\n      0x04\n        /* \"#utility.yul\":8811:8826   */\n      mstore\n        /* \"#utility.yul\":8845:8849   */\n      0x24\n        /* \"#utility.yul\":8842:8843   */\n      0x00\n        /* \"#utility.yul\":8835:8850   */\n      revert\n        /* \"#utility.yul\":8862:9272   */\n    tag_71:\n        /* \"#utility.yul\":8902:8909   */\n      0x00\n        /* \"#utility.yul\":8925:8945   */\n      tag_243\n        /* \"#utility.yul\":8943:8944   */\n      dup3\n        /* \"#utility.yul\":8925:8945   */\n      tag_114\n      jump\t// in\n    tag_243:\n        /* \"#utility.yul\":8920:8945   */\n      swap2\n      pop\n        /* \"#utility.yul\":8959:8979   */\n      tag_244\n        /* \"#utility.yul\":8977:8978   */\n      dup4\n        /* \"#utility.yul\":8959:8979   */\n      tag_114\n      jump\t// in\n    tag_244:\n        /* \"#utility.yul\":8954:8979   */\n      swap3\n      pop\n        /* \"#utility.yul\":9014:9015   */\n      dup3\n        /* \"#utility.yul\":9011:9012   */\n      dup3\n        /* \"#utility.yul\":9007:9016   */\n      mul\n        /* \"#utility.yul\":9036:9066   */\n      tag_245\n        /* \"#utility.yul\":9054:9065   */\n      dup2\n        /* \"#utility.yul\":9036:9066   */\n      tag_114\n      jump\t// in\n    tag_245:\n        /* \"#utility.yul\":9025:9066   */\n      swap2\n      pop\n        /* \"#utility.yul\":9215:9216   */\n      dup3\n        /* \"#utility.yul\":9206:9213   */\n      dup3\n        /* \"#utility.yul\":9202:9217   */\n      div\n        /* \"#utility.yul\":9199:9200   */\n      dup5\n        /* \"#utility.yul\":9196:9218   */\n      eq\n        /* \"#utility.yul\":9176:9177   */\n      dup4\n        /* \"#utility.yul\":9169:9178   */\n      iszero\n        /* \"#utility.yul\":9149:9232   */\n      or\n        /* \"#utility.yul\":9126:9265   */\n      tag_246\n      jumpi\n        /* \"#utility.yul\":9245:9263   */\n      tag_247\n      tag_144\n      jump\t// in\n    tag_247:\n        /* \"#utility.yul\":9126:9265   */\n    tag_246:\n        /* \"#utility.yul\":8910:9272   */\n      pop\n        /* \"#utility.yul\":8862:9272   */\n      swap3\n      swap2\n      pop\n      pop\n      jump\t// out\n        /* \"#utility.yul\":9278:9469   */\n    tag_73:\n        /* \"#utility.yul\":9318:9321   */\n      0x00\n        /* \"#utility.yul\":9337:9357   */\n      tag_249\n        /* \"#utility.yul\":9355:9356   */\n      dup3\n        /* \"#utility.yul\":9337:9357   */\n      tag_114\n      jump\t// in\n    tag_249:\n        /* \"#utility.yul\":9332:9357   */\n      swap2\n      pop\n        /* \"#utility.yul\":9371:9391   */\n      tag_250\n        /* \"#utility.yul\":9389:9390   */\n      dup4\n        /* \"#utility.yul\":9371:9391   */\n      tag_114\n      jump\t// in\n    tag_250:\n        /* \"#utility.yul\":9366:9391   */\n      swap3\n      pop\n        /* \"#utility.yul\":9414:9415   */\n      dup3\n        /* \"#utility.yul\":9411:9412   */\n      dup3\n        /* \"#utility.yul\":9407:9416   */\n      add\n        /* \"#utility.yul\":9400:9416   */\n      swap1\n      pop\n        /* \"#utility.yul\":9435:9438   */\n      dup1\n        /* \"#utility.yul\":9432:9433   */\n      dup3\n        /* \"#utility.yul\":9429:9439   */\n      gt\n        /* \"#utility.yul\":9426:9462   */\n      iszero\n      tag_251\n      jumpi\n        /* \"#utility.yul\":9442:9460   */\n      tag_252\n      tag_144\n      jump\t// in\n    tag_252:\n        /* \"#utility.yul\":9426:9462   */\n    tag_251:\n        /* \"#utility.yul\":9278:9469   */\n      swap3\n      swap2\n      pop\n      pop\n      jump\t// out\n        /* \"#utility.yul\":9475:9646   */\n    tag_145:\n        /* \"#utility.yul\":9615:9638   */\n      0x566f74696e67206973206e6f74206163746976652e0000000000000000000000\n        /* \"#utility.yul\":9611:9612   */\n      0x00\n        /* \"#utility.yul\":9603:9609   */\n      dup3\n        /* \"#utility.yul\":9599:9613   */\n      add\n        /* \"#utility.yul\":9592:9639   */\n      mstore\n        /* \"#utility.yul\":9475:9646   */\n      pop\n      jump\t// out\n        /* \"#utility.yul\":9652:10018   */\n    tag_146:\n        /* \"#utility.yul\":9794:9797   */\n      0x00\n        /* \"#utility.yul\":9815:9882   */\n      tag_255\n        /* \"#utility.yul\":9879:9881   */\n      0x15\n        /* \"#utility.yul\":9874:9877   */\n      dup4\n        /* \"#utility.yul\":9815:9882   */\n      tag_128\n      jump\t// in\n    tag_255:\n        /* \"#utility.yul\":9808:9882   */\n      swap2\n      pop\n        /* \"#utility.yul\":9891:9984   */\n      tag_256\n        /* \"#utility.yul\":9980:9983   */\n      dup3\n        /* \"#utility.yul\":9891:9984   */\n      tag_145\n      jump\t// in\n    tag_256:\n        /* \"#utility.yul\":10009:10011   */\n      0x20\n        /* \"#utility.yul\":10004:10007   */\n      dup3\n        /* \"#utility.yul\":10000:10012   */\n      add\n        /* \"#utility.yul\":9993:10012   */\n      swap1\n      pop\n        /* \"#utility.yul\":9652:10018   */\n      swap2\n      swap1\n      pop\n      jump\t// out\n        /* \"#utility.yul\":10024:10443   */\n    tag_77:\n        /* \"#utility.yul\":10190:10194   */\n      0x00\n        /* \"#utility.yul\":10228:10230   */\n      0x20\n        /* \"#utility.yul\":10217:10226   */\n      dup3\n        /* \"#utility.yul\":10213:10231   */\n      add\n        /* \"#utility.yul\":10205:10231   */\n      swap1\n      pop\n        /* \"#utility.yul\":10277:10286   */\n      dup2\n        /* \"#utility.yul\":10271:10275   */\n      dup2\n        /* \"#utility.yul\":10267:10287   */\n      sub\n        /* \"#utility.yul\":10263:10264   */\n      0x00\n        /* \"#utility.yul\":10252:10261   */\n      dup4\n        /* \"#utility.yul\":10248:10265   */\n      add\n        /* \"#utility.yul\":10241:10288   */\n      mstore\n        /* \"#utility.yul\":10305:10436   */\n      tag_258\n        /* \"#utility.yul\":10431:10435   */\n      dup2\n        /* \"#utility.yul\":10305:10436   */\n      tag_146\n      jump\t// in\n    tag_258:\n        /* \"#utility.yul\":10297:10436   */\n      swap1\n      pop\n        /* \"#utility.yul\":10024:10443   */\n      swap2\n      swap1\n      pop\n      jump\t// out\n        /* \"#utility.yul\":10449:10624   */\n    tag_147:\n        /* \"#utility.yul\":10589:10616   */\n      0x566f74696e672073657373696f6e2068617320656e6465642e00000000000000\n        /* \"#utility.yul\":10585:10586   */\n      0x00\n        /* \"#utility.yul\":10577:10583   */\n      dup3\n        /* \"#utility.yul\":10573:10587   */\n      add\n        /* \"#utility.yul\":10566:10617   */\n      mstore\n        /* \"#utility.yul\":10449:10624   */\n      pop\n      jump\t// out\n        /* \"#utility.yul\":10630:10996   */\n    tag_148:\n        /* \"#utility.yul\":10772:10775   */\n      0x00\n        /* \"#utility.yul\":10793:10860   */\n      tag_261\n        /* \"#utility.yul\":10857:10859   */\n      0x19\n        /* \"#utility.yul\":10852:10855   */\n      dup4\n        /* \"#utility.yul\":10793:10860   */\n      tag_128\n      jump\t// in\n    tag_261:\n        /* \"#utility.yul\":10786:10860   */\n      swap2\n      pop\n        /* \"#utility.yul\":10869:10962   */\n      tag_262\n        /* \"#utility.yul\":10958:10961   */\n      dup3\n        /* \"#utility.yul\":10869:10962   */\n      tag_147\n      jump\t// in\n    tag_262:\n        /* \"#utility.yul\":10987:10989   */\n      0x20\n        /* \"#utility.yul\":10982:10985   */\n      dup3\n        /* \"#utility.yul\":10978:10990   */\n      add\n        /* \"#utility.yul\":10971:10990   */\n      swap1\n      pop\n        /* \"#utility.yul\":10630:10996   */\n      swap2\n      swap1\n      pop\n      jump\t// out\n        /* \"#utility.yul\":11002:11421   */\n    tag_80:\n        /* \"#utility.yul\":11168:11172   */\n      0x00\n        /* \"#utility.yul\":11206:11208   */\n      0x20\n        /* \"#utility.yul\":11195:11204   */\n      dup3\n        /* \"#utility.yul\":11191:11209   */\n      add\n        /* \"#utility.yul\":11183:11209   */\n      swap1\n      pop\n        /* \"#utility.yul\":11255:11264   */\n      dup2\n        /* \"#utility.yul\":11249:11253   */\n      dup2\n        /* \"#utility.yul\":11245:11265   */\n      sub\n        /* \"#utility.yul\":11241:11242   */\n      0x00\n        /* \"#utility.yul\":11230:11239   */\n      dup4\n        /* \"#utility.yul\":11226:11243   */\n      add\n        /* \"#utility.yul\":11219:11266   */\n      mstore\n        /* \"#utility.yul\":11283:11414   */\n      tag_264\n        /* \"#utility.yul\":11409:11413   */\n      dup2\n        /* \"#utility.yul\":11283:11414   */\n      tag_148\n      jump\t// in\n    tag_264:\n        /* \"#utility.yul\":11275:11414   */\n      swap1\n      pop\n        /* \"#utility.yul\":11002:11421   */\n      swap2\n      swap1\n      pop\n      jump\t// out\n        /* \"#utility.yul\":11427:11600   */\n    tag_149:\n        /* \"#utility.yul\":11567:11592   */\n      0x4e6f742061207265676973746572656420766f7465722e000000000000000000\n        /* \"#utility.yul\":11563:11564   */\n      0x00\n        /* \"#utility.yul\":11555:11561   */\n      dup3\n        /* \"#utility.yul\":11551:11565   */\n      add\n        /* \"#utility.yul\":11544:11593   */\n      mstore\n        /* \"#utility.yul\":11427:11600   */\n      pop\n      jump\t// out\n        /* \"#utility.yul\":11606:11972   */\n    tag_150:\n        /* \"#utility.yul\":11748:11751   */\n      0x00\n        /* \"#utility.yul\":11769:11836   */\n      tag_267\n        /* \"#utility.yul\":11833:11835   */\n      0x17\n        /* \"#utility.yul\":11828:11831   */\n      dup4\n        /* \"#utility.yul\":11769:11836   */\n      tag_128\n      jump\t// in\n    tag_267:\n        /* \"#utility.yul\":11762:11836   */\n      swap2\n      pop\n        /* \"#utility.yul\":11845:11938   */\n      tag_268\n        /* \"#utility.yul\":11934:11937   */\n      dup3\n        /* \"#utility.yul\":11845:11938   */\n      tag_149\n      jump\t// in\n    tag_268:\n        /* \"#utility.yul\":11963:11965   */\n      0x20\n        /* \"#utility.yul\":11958:11961   */\n      dup3\n        /* \"#utility.yul\":11954:11966   */\n      add\n        /* \"#utility.yul\":11947:11966   */\n      swap1\n      pop\n        /* \"#utility.yul\":11606:11972   */\n      swap2\n      swap1\n      pop\n      jump\t// out\n        /* \"#utility.yul\":11978:12397   */\n    tag_84:\n        /* \"#utility.yul\":12144:12148   */\n      0x00\n        /* \"#utility.yul\":12182:12184   */\n      0x20\n        /* \"#utility.yul\":12171:12180   */\n      dup3\n        /* \"#utility.yul\":12167:12185   */\n      add\n        /* \"#utility.yul\":12159:12185   */\n      swap1\n      pop\n        /* \"#utility.yul\":12231:12240   */\n      dup2\n        /* \"#utility.yul\":12225:12229   */\n      dup2\n        /* \"#utility.yul\":12221:12241   */\n      sub\n        /* \"#utility.yul\":12217:12218   */\n      0x00\n        /* \"#utility.yul\":12206:12215   */\n      dup4\n        /* \"#utility.yul\":12202:12219   */\n      add\n        /* \"#utility.yul\":12195:12242   */\n      mstore\n        /* \"#utility.yul\":12259:12390   */\n      tag_270\n        /* \"#utility.yul\":12385:12389   */\n      dup2\n        /* \"#utility.yul\":12259:12390   */\n      tag_150\n      jump\t// in\n    tag_270:\n        /* \"#utility.yul\":12251:12390   */\n      swap1\n      pop\n        /* \"#utility.yul\":11978:12397   */\n      swap2\n      swap1\n      pop\n      jump\t// out\n        /* \"#utility.yul\":12403:12567   */\n    tag_151:\n        /* \"#utility.yul\":12543:12559   */\n      0x416c726561647920766f7465642e000000000000000000000000000000000000\n        /* \"#utility.yul\":12539:12540   */\n      0x00\n        /* \"#utility.yul\":12531:12537   */\n      dup3\n        /* \"#utility.yul\":12527:12541   */\n      add\n        /* \"#utility.yul\":12520:12560   */\n      mstore\n        /* \"#utility.yul\":12403:12567   */\n      pop\n      jump\t// out\n        /* \"#utility.yul\":12573:12939   */\n    tag_152:\n        /* \"#utility.yul\":12715:12718   */\n      0x00\n        /* \"#utility.yul\":12736:12803   */\n      tag_273\n        /* \"#utility.yul\":12800:12802   */\n      0x0e\n        /* \"#utility.yul\":12795:12798   */\n      dup4\n        /* \"#utility.yul\":12736:12803   */\n      tag_128\n      jump\t// in\n    tag_273:\n        /* \"#utility.yul\":12729:12803   */\n      swap2\n      pop\n        /* \"#utility.yul\":12812:12905   */\n      tag_274\n        /* \"#utility.yul\":12901:12904   */\n      dup3\n        /* \"#utility.yul\":12812:12905   */\n      tag_151\n      jump\t// in\n    tag_274:\n        /* \"#utility.yul\":12930:12932   */\n      0x20\n        /* \"#utility.yul\":12925:12928   */\n      dup3\n        /* \"#utility.yul\":12921:12933   */\n      add\n        /* \"#utility.yul\":12914:12933   */\n      swap1\n      pop\n        /* \"#utility.yul\":12573:12939   */\n      swap2\n      swap1\n      pop\n      jump\t// out\n        /* \"#utility.yul\":12945:13364   */\n    tag_87:\n        /* \"#utility.yul\":13111:13115   */\n      0x00\n        /* \"#utility.yul\":13149:13151   */\n      0x20\n        /* \"#utility.yul\":13138:13147   */\n      dup3\n        /* \"#utility.yul\":13134:13152   */\n      add\n        /* \"#utility.yul\":13126:13152   */\n      swap1\n      pop\n        /* \"#utility.yul\":13198:13207   */\n      dup2\n        /* \"#utility.yul\":13192:13196   */\n      dup2\n        /* \"#utility.yul\":13188:13208   */\n      sub\n        /* \"#utility.yul\":13184:13185   */\n      0x00\n        /* \"#utility.yul\":13173:13182   */\n      dup4\n        /* \"#utility.yul\":13169:13186   */\n      add\n        /* \"#utility.yul\":13162:13209   */\n      mstore\n        /* \"#utility.yul\":13226:13357   */\n      tag_276\n        /* \"#utility.yul\":13352:13356   */\n      dup2\n        /* \"#utility.yul\":13226:13357   */\n      tag_152\n      jump\t// in\n    tag_276:\n        /* \"#utility.yul\":13218:13357   */\n      swap1\n      pop\n        /* \"#utility.yul\":12945:13364   */\n      swap2\n      swap1\n      pop\n      jump\t// out\n        /* \"#utility.yul\":13370:13535   */\n    tag_153:\n        /* \"#utility.yul\":13510:13527   */\n      0x496e76616c6964206f7074696f6e2e0000000000000000000000000000000000\n        /* \"#utility.yul\":13506:13507   */\n      0x00\n        /* \"#utility.yul\":13498:13504   */\n      dup3\n        /* \"#utility.yul\":13494:13508   */\n      add\n        /* \"#utility.yul\":13487:13528   */\n      mstore\n        /* \"#utility.yul\":13370:13535   */\n      pop\n      jump\t// out\n        /* \"#utility.yul\":13541:13907   */\n    tag_154:\n        /* \"#utility.yul\":13683:13686   */\n      0x00\n        /* \"#utility.yul\":13704:13771   */\n      tag_279\n        /* \"#utility.yul\":13768:13770   */\n      0x0f\n        /* \"#utility.yul\":13763:13766   */\n      dup4\n        /* \"#utility.yul\":13704:13771   */\n      tag_128\n      jump\t// in\n    tag_279:\n        /* \"#utility.yul\":13697:13771   */\n      swap2\n      pop\n        /* \"#utility.yul\":13780:13873   */\n      tag_280\n        /* \"#utility.yul\":13869:13872   */\n      dup3\n        /* \"#utility.yul\":13780:13873   */\n      tag_153\n      jump\t// in\n    tag_280:\n        /* \"#utility.yul\":13898:13900   */\n      0x20\n        /* \"#utility.yul\":13893:13896   */\n      dup3\n        /* \"#utility.yul\":13889:13901   */\n      add\n        /* \"#utility.yul\":13882:13901   */\n      swap1\n      pop\n        /* \"#utility.yul\":13541:13907   */\n      swap2\n      swap1\n      pop\n      jump\t// out\n        /* \"#utility.yul\":13913:14332   */\n    tag_90:\n        /* \"#utility.yul\":14079:14083   */\n      0x00\n        /* \"#utility.yul\":14117:14119   */\n      0x20\n        /* \"#utility.yul\":14106:14115   */\n      dup3\n        /* \"#utility.yul\":14102:14120   */\n      add\n        /* \"#utility.yul\":14094:14120   */\n      swap1\n      pop\n        /* \"#utility.yul\":14166:14175   */\n      dup2\n        /* \"#utility.yul\":14160:14164   */\n      dup2\n        /* \"#utility.yul\":14156:14176   */\n      sub\n        /* \"#utility.yul\":14152:14153   */\n      0x00\n        /* \"#utility.yul\":14141:14150   */\n      dup4\n        /* \"#utility.yul\":14137:14154   */\n      add\n        /* \"#utility.yul\":14130:14177   */\n      mstore\n        /* \"#utility.yul\":14194:14325   */\n      tag_282\n        /* \"#utility.yul\":14320:14324   */\n      dup2\n        /* \"#utility.yul\":14194:14325   */\n      tag_154\n      jump\t// in\n    tag_282:\n        /* \"#utility.yul\":14186:14325   */\n      swap1\n      pop\n        /* \"#utility.yul\":13913:14332   */\n      swap2\n      swap1\n      pop\n      jump\t// out\n        /* \"#utility.yul\":14338:14518   */\n    tag_93:\n        /* \"#utility.yul\":14386:14463   */\n      0x4e487b7100000000000000000000000000000000000000000000000000000000\n        /* \"#utility.yul\":14383:14384   */\n      0x00\n        /* \"#utility.yul\":14376:14464   */\n      mstore\n        /* \"#utility.yul\":14483:14487   */\n      0x32\n        /* \"#utility.yul\":14480:14481   */\n      0x04\n        /* \"#utility.yul\":14473:14488   */\n      mstore\n        /* \"#utility.yul\":14507:14511   */\n      0x24\n        /* \"#utility.yul\":14504:14505   */\n      0x00\n        /* \"#utility.yul\":14497:14512   */\n      revert\n        /* \"#utility.yul\":14524:14757   */\n    tag_96:\n        /* \"#utility.yul\":14563:14566   */\n      0x00\n        /* \"#utility.yul\":14586:14610   */\n      tag_285\n        /* \"#utility.yul\":14604:14609   */\n      dup3\n        /* \"#utility.yul\":14586:14610   */\n      tag_114\n      jump\t// in\n    tag_285:\n        /* \"#utility.yul\":14577:14610   */\n      swap2\n      pop\n        /* \"#utility.yul\":14632:14698   */\n      0xffffffffffffffffffffffffffffffffffffffffffffffffffffffffffffffff\n        /* \"#utility.yul\":14625:14630   */\n      dup3\n        /* \"#utility.yul\":14622:14699   */\n      sub\n        /* \"#utility.yul\":14619:14722   */\n      tag_286\n      jumpi\n        /* \"#utility.yul\":14702:14720   */\n      tag_287\n      tag_144\n      jump\t// in\n    tag_287:\n        /* \"#utility.yul\":14619:14722   */\n    tag_286:\n        /* \"#utility.yul\":14749:14750   */\n      0x01\n        /* \"#utility.yul\":14742:14747   */\n      dup3\n        /* \"#utility.yul\":14738:14751   */\n      add\n        /* \"#utility.yul\":14731:14751   */\n      swap1\n      pop\n        /* \"#utility.yul\":14524:14757   */\n      swap2\n      swap1\n      pop\n      jump\t// out\n        /* \"#utility.yul\":14763:14943   */\n    tag_155:\n        /* \"#utility.yul\":14811:14888   */\n      0x4e487b7100000000000000000000000000000000000000000000000000000000\n        /* \"#utility.yul\":14808:14809   */\n      0x00\n        /* \"#utility.yul\":14801:14889   */\n      mstore\n        /* \"#utility.yul\":14908:14912   */\n      0x22\n        /* \"#utility.yul\":14905:14906   */\n      0x04\n        /* \"#utility.yul\":14898:14913   */\n      mstore\n        /* \"#utility.yul\":14932:14936   */\n      0x24\n        /* \"#utility.yul\":14929:14930   */\n      0x00\n        /* \"#utility.yul\":14922:14937   */\n      revert\n        /* \"#utility.yul\":14949:15269   */\n    tag_100:\n        /* \"#utility.yul\":14993:14999   */\n      0x00\n        /* \"#utility.yul\":15030:15031   */\n      0x02\n        /* \"#utility.yul\":15024:15028   */\n      dup3\n        /* \"#utility.yul\":15020:15032   */\n      div\n        /* \"#utility.yul\":15010:15032   */\n      swap1\n      pop\n        /* \"#utility.yul\":15077:15078   */\n      0x01\n        /* \"#utility.yul\":15071:15075   */\n      dup3\n        /* \"#utility.yul\":15067:15079   */\n      and\n        /* \"#utility.yul\":15098:15116   */\n      dup1\n        /* \"#utility.yul\":15088:15169   */\n      tag_290\n      jumpi\n        /* \"#utility.yul\":15154:15158   */\n      0x7f\n        /* \"#utility.yul\":15146:15152   */\n      dup3\n        /* \"#utility.yul\":15142:15159   */\n      and\n        /* \"#utility.yul\":15132:15159   */\n      swap2\n      pop\n        /* \"#utility.yul\":15088:15169   */\n    tag_290:\n        /* \"#utility.yul\":15216:15218   */\n      0x20\n        /* \"#utility.yul\":15208:15214   */\n      dup3\n        /* \"#utility.yul\":15205:15219   */\n      lt\n        /* \"#utility.yul\":15185:15203   */\n      dup2\n        /* \"#utility.yul\":15182:15220   */\n      sub\n        /* \"#utility.yul\":15179:15263   */\n      tag_291\n      jumpi\n        /* \"#utility.yul\":15235:15253   */\n      tag_292\n      tag_155\n      jump\t// in\n    tag_292:\n        /* \"#utility.yul\":15179:15263   */\n    tag_291:\n        /* \"#utility.yul\":15000:15269   */\n      pop\n        /* \"#utility.yul\":14949:15269   */\n      swap2\n      swap1\n      pop\n      jump\t// out\n\n    auxdata: 0xa264697066735822122010ebb1f3fdee895b0872081994f77bdc3180fd751c1e6e157890227e1e0f729f64736f6c634300081a0033\n}\n",
				"bytecode": {
					"linkReferences": {},
					"object": "608060405234801561000f575f80fd5b5060405161180338038061180383398181016040528101906100319190610439565b335f806101000a81548173ffffffffffffffffffffffffffffffffffffffff021916908373ffffffffffffffffffffffffffffffffffffffff16021790555080600290805190602001906100869291906100ed565b50805167ffffffffffffffff8111156100a2576100a161022f565b5b6040519080825280602002602001820160405280156100d05781602001602082028036833780820191505090505b50600390805190602001906100e6929190610144565b505061075c565b828054828255905f5260205f20908101928215610133579160200282015b82811115610132578251829081610122919061068d565b509160200191906001019061010b565b5b509050610140919061018f565b5090565b828054828255905f5260205f2090810192821561017e579160200282015b8281111561017d578251825591602001919060010190610162565b5b50905061018b91906101b2565b5090565b5b808211156101ae575f81816101a591906101cd565b50600101610190565b5090565b5b808211156101c9575f815f9055506001016101b3565b5090565b5080546101d9906104b7565b5f825580601f106101ea5750610207565b601f0160209004905f5260205f209081019061020691906101b2565b5b50565b5f604051905090565b5f80fd5b5f80fd5b5f80fd5b5f601f19601f8301169050919050565b7f4e487b71000000000000000000000000000000000000000000000000000000005f52604160045260245ffd5b6102658261021f565b810181811067ffffffffffffffff821117156102845761028361022f565b5b80604052505050565b5f61029661020a565b90506102a2828261025c565b919050565b5f67ffffffffffffffff8211156102c1576102c061022f565b5b602082029050602081019050919050565b5f80fd5b5f80fd5b5f67ffffffffffffffff8211156102f4576102f361022f565b5b6102fd8261021f565b9050602081019050919050565b8281835e5f83830152505050565b5f61032a610325846102da565b61028d565b905082815260208101848484011115610346576103456102d6565b5b61035184828561030a565b509392505050565b5f82601f83011261036d5761036c61021b565b5b815161037d848260208601610318565b91505092915050565b5f610398610393846102a7565b61028d565b905080838252602082019050602084028301858111156103bb576103ba6102d2565b5b835b8181101561040257805167ffffffffffffffff8111156103e0576103df61021b565b5b8086016103ed8982610359565b855260208501945050506020810190506103bd565b5050509392505050565b5f82601f8301126104205761041f61021b565b5b8151610430848260208601610386565b91505092915050565b5f6020828403121561044e5761044d610213565b5b5f82015167ffffffffffffffff81111561046b5761046a610217565b5b6104778482850161040c565b91505092915050565b5f81519050919050565b7f4e487b71000000000000000000000000000000000000000000000000000000005f52602260045260245ffd5b5f60028204905060018216806104ce57607f821691505b6020821081036104e1576104e061048a565b5b50919050565b5f819050815f5260205f209050919050565b5f6020601f8301049050919050565b5f82821b905092915050565b5f600883026105437fffffffffffffffffffffffffffffffffffffffffffffffffffffffffffffffff82610508565b61054d8683610508565b95508019841693508086168417925050509392505050565b5f819050919050565b5f819050919050565b5f61059161058c61058784610565565b61056e565b610565565b9050919050565b5f819050919050565b6105aa83610577565b6105be6105b682610598565b848454610514565b825550505050565b5f90565b6105d26105c6565b6105dd8184846105a1565b505050565b5b81811015610600576105f55f826105ca565b6001810190506105e3565b5050565b601f82111561064557610616816104e7565b61061f846104f9565b8101602085101561062e578190505b61064261063a856104f9565b8301826105e2565b50505b505050565b5f82821c905092915050565b5f6106655f198460080261064a565b1980831691505092915050565b5f61067d8383610656565b9150826002028217905092915050565b61069682610480565b67ffffffffffffffff8111156106af576106ae61022f565b5b6106b982546104b7565b6106c4828285610604565b5f60209050601f8311600181146106f5575f84156106e3578287015190505b6106ed8582610672565b865550610754565b601f198416610703866104e7565b5f5b8281101561072a57848901518255600182019150602085019450602081019050610705565b868310156107475784890151610743601f891682610656565b8355505b6001600288020188555050505b505050505050565b61109a806107695f395ff3fe608060405234801561000f575f80fd5b50600436106100a7575f3560e01c8063409e22051161006f578063409e22051461013b5780634717f97c1461016b5780635df8133014610189578063a3ec138d146101b9578063c3403ddf146101eb578063f851a440146101f5576100a7565b80631ea736e0146100ab57806338db6dd3146100c95780633d2f5bda146100e55780633eb76b9c14610101578063408e27271461011d575b5f80fd5b6100b3610213565b6040516100c09190610906565b60405180910390f35b6100e360048036038101906100de919061097d565b610219565b005b6100ff60048036038101906100fa91906109d2565b6103db565b005b61011b600480360381019061011691906109d2565b6104a3565b005b6101256106b7565b6040516101329190610a17565b60405180910390f35b610155600480360381019061015091906109d2565b6106c9565b6040516101629190610aa0565b60405180910390f35b61017361076f565b6040516101809190610b77565b60405180910390f35b6101a3600480360381019061019e91906109d2565b6107c5565b6040516101b09190610906565b60405180910390f35b6101d360048036038101906101ce919061097d565b6107e5565b6040516101e293929190610b97565b60405180910390f35b6101f3610823565b005b6101fd6108cb565b60405161020a9190610bdb565b60405180910390f35b60055481565b5f8054906101000a900473ffffffffffffffffffffffffffffffffffffffff1673ffffffffffffffffffffffffffffffffffffffff163373ffffffffffffffffffffffffffffffffffffffff16146102a6576040517f08c379a000000000000000000000000000000000000000000000000000000000815260040161029d90610c64565b60405180910390fd5b60015f8273ffffffffffffffffffffffffffffffffffffffff1673ffffffffffffffffffffffffffffffffffffffff1681526020019081526020015f205f015f9054906101000a900460ff1615610332576040517f08c379a000000000000000000000000000000000000000000000000000000000815260040161032990610ccc565b60405180910390fd5b60405180606001604052806001151581526020015f151581526020015f81525060015f8373ffffffffffffffffffffffffffffffffffffffff1673ffffffffffffffffffffffffffffffffffffffff1681526020019081526020015f205f820151815f015f6101000a81548160ff0219169083151502179055506020820151815f0160016101000a81548160ff0219169083151502179055506040820151816001015590505050565b5f8054906101000a900473ffffffffffffffffffffffffffffffffffffffff1673ffffffffffffffffffffffffffffffffffffffff163373ffffffffffffffffffffffffffffffffffffffff1614610468576040517f08c379a000000000000000000000000000000000000000000000000000000000815260040161045f90610c64565b60405180910390fd5b600160045f6101000a81548160ff021916908315150217905550603c8161048f9190610d17565b4261049a9190610d58565b60058190555050565b60045f9054906101000a900460ff166104f1576040517f08c379a00000000000000000000000000000000000000000000000000000000081526004016104e890610dd5565b60405180910390fd5b600554421115610536576040517f08c379a000000000000000000000000000000000000000000000000000000000815260040161052d90610e3d565b60405180910390fd5b5f60015f3373ffffffffffffffffffffffffffffffffffffffff1673ffffffffffffffffffffffffffffffffffffffff1681526020019081526020015f209050805f015f9054906101000a900460ff166105c5576040517f08c379a00000000000000000000000000000000000000000000000000000000081526004016105bc90610ea5565b60405180910390fd5b805f0160019054906101000a900460ff1615610616576040517f08c379a000000000000000000000000000000000000000000000000000000000815260040161060d90610f0d565b60405180910390fd5b600280549050821061065d576040517f08c379a000000000000000000000000000000000000000000000000000000000815260040161065490610f75565b60405180910390fd5b6001815f0160016101000a81548160ff0219169083151502179055508181600101819055506003828154811061069657610695610f93565b5b905f5260205f20015f8154809291906106ae90610fc0565b91905055505050565b60045f9054906101000a900460ff1681565b600281815481106106d8575f80fd5b905f5260205f20015f9150905080546106f090611034565b80601f016020809104026020016040519081016040528092919081815260200182805461071c90611034565b80156107675780601f1061073e57610100808354040283529160200191610767565b820191905f5260205f20905b81548152906001019060200180831161074a57829003601f168201915b505050505081565b606060038054806020026020016040519081016040528092919081815260200182805480156107bb57602002820191905f5260205f20905b8154815260200190600101908083116107a7575b5050505050905090565b600381815481106107d4575f80fd5b905f5260205f20015f915090505481565b6001602052805f5260405f205f91509050805f015f9054906101000a900460ff1690805f0160019054906101000a900460ff16908060010154905083565b5f8054906101000a900473ffffffffffffffffffffffffffffffffffffffff1673ffffffffffffffffffffffffffffffffffffffff163373ffffffffffffffffffffffffffffffffffffffff16146108b0576040517f08c379a00000000000000000000000000000000000000000000000000000000081526004016108a790610c64565b60405180910390fd5b5f60045f6101000a81548160ff021916908315150217905550565b5f8054906101000a900473ffffffffffffffffffffffffffffffffffffffff1681565b5f819050919050565b610900816108ee565b82525050565b5f6020820190506109195f8301846108f7565b92915050565b5f80fd5b5f73ffffffffffffffffffffffffffffffffffffffff82169050919050565b5f61094c82610923565b9050919050565b61095c81610942565b8114610966575f80fd5b50565b5f8135905061097781610953565b92915050565b5f602082840312156109925761099161091f565b5b5f61099f84828501610969565b91505092915050565b6109b1816108ee565b81146109bb575f80fd5b50565b5f813590506109cc816109a8565b92915050565b5f602082840312156109e7576109e661091f565b5b5f6109f4848285016109be565b91505092915050565b5f8115159050919050565b610a11816109fd565b82525050565b5f602082019050610a2a5f830184610a08565b92915050565b5f81519050919050565b5f82825260208201905092915050565b8281835e5f83830152505050565b5f601f19601f8301169050919050565b5f610a7282610a30565b610a7c8185610a3a565b9350610a8c818560208601610a4a565b610a9581610a58565b840191505092915050565b5f6020820190508181035f830152610ab88184610a68565b905092915050565b5f81519050919050565b5f82825260208201905092915050565b5f819050602082019050919050565b610af2816108ee565b82525050565b5f610b038383610ae9565b60208301905092915050565b5f602082019050919050565b5f610b2582610ac0565b610b2f8185610aca565b9350610b3a83610ada565b805f5b83811015610b6a578151610b518882610af8565b9750610b5c83610b0f565b925050600181019050610b3d565b5085935050505092915050565b5f6020820190508181035f830152610b8f8184610b1b565b905092915050565b5f606082019050610baa5f830186610a08565b610bb76020830185610a08565b610bc460408301846108f7565b949350505050565b610bd581610942565b82525050565b5f602082019050610bee5f830184610bcc565b92915050565b7f4f6e6c792061646d696e2063616e20706572666f726d207468697320616374695f8201527f6f6e2e0000000000000000000000000000000000000000000000000000000000602082015250565b5f610c4e602383610a3a565b9150610c5982610bf4565b604082019050919050565b5f6020820190508181035f830152610c7b81610c42565b9050919050565b7f566f74657220697320616c726561647920726567697374657265642e000000005f82015250565b5f610cb6601c83610a3a565b9150610cc182610c82565b602082019050919050565b5f6020820190508181035f830152610ce381610caa565b9050919050565b7f4e487b71000000000000000000000000000000000000000000000000000000005f52601160045260245ffd5b5f610d21826108ee565b9150610d2c836108ee565b9250828202610d3a816108ee565b91508282048414831517610d5157610d50610cea565b5b5092915050565b5f610d62826108ee565b9150610d6d836108ee565b9250828201905080821115610d8557610d84610cea565b5b92915050565b7f566f74696e67206973206e6f74206163746976652e00000000000000000000005f82015250565b5f610dbf601583610a3a565b9150610dca82610d8b565b602082019050919050565b5f6020820190508181035f830152610dec81610db3565b9050919050565b7f566f74696e672073657373696f6e2068617320656e6465642e000000000000005f82015250565b5f610e27601983610a3a565b9150610e3282610df3565b602082019050919050565b5f6020820190508181035f830152610e5481610e1b565b9050919050565b7f4e6f742061207265676973746572656420766f7465722e0000000000000000005f82015250565b5f610e8f601783610a3a565b9150610e9a82610e5b565b602082019050919050565b5f6020820190508181035f830152610ebc81610e83565b9050919050565b7f416c726561647920766f7465642e0000000000000000000000000000000000005f82015250565b5f610ef7600e83610a3a565b9150610f0282610ec3565b602082019050919050565b5f6020820190508181035f830152610f2481610eeb565b9050919050565b7f496e76616c6964206f7074696f6e2e00000000000000000000000000000000005f82015250565b5f610f5f600f83610a3a565b9150610f6a82610f2b565b602082019050919050565b5f6020820190508181035f830152610f8c81610f53565b9050919050565b7f4e487b71000000000000000000000000000000000000000000000000000000005f52603260045260245ffd5b5f610fca826108ee565b91507fffffffffffffffffffffffffffffffffffffffffffffffffffffffffffffffff8203610ffc57610ffb610cea565b5b600182019050919050565b7f4e487b71000000000000000000000000000000000000000000000000000000005f52602260045260245ffd5b5f600282049050600182168061104b57607f821691505b60208210810361105e5761105d611007565b5b5091905056fea264697066735822122010ebb1f3fdee895b0872081994f77bdc3180fd751c1e6e157890227e1e0f729f64736f6c634300081a0033",
					"opcodes": "PUSH1 0x80 PUSH1 0x40 MSTORE CALLVALUE DUP1 ISZERO PUSH2 0xF JUMPI PUSH0 DUP1 REVERT JUMPDEST POP PUSH1 0x40 MLOAD PUSH2 0x1803 CODESIZE SUB DUP1 PUSH2 0x1803 DUP4 CODECOPY DUP2 DUP2 ADD PUSH1 0x40 MSTORE DUP2 ADD SWAP1 PUSH2 0x31 SWAP2 SWAP1 PUSH2 0x439 JUMP JUMPDEST CALLER PUSH0 DUP1 PUSH2 0x100 EXP DUP2 SLOAD DUP2 PUSH20 0xFFFFFFFFFFFFFFFFFFFFFFFFFFFFFFFFFFFFFFFF MUL NOT AND SWAP1 DUP4 PUSH20 0xFFFFFFFFFFFFFFFFFFFFFFFFFFFFFFFFFFFFFFFF AND MUL OR SWAP1 SSTORE POP DUP1 PUSH1 0x2 SWAP1 DUP1 MLOAD SWAP1 PUSH1 0x20 ADD SWAP1 PUSH2 0x86 SWAP3 SWAP2 SWAP1 PUSH2 0xED JUMP JUMPDEST POP DUP1 MLOAD PUSH8 0xFFFFFFFFFFFFFFFF DUP2 GT ISZERO PUSH2 0xA2 JUMPI PUSH2 0xA1 PUSH2 0x22F JUMP JUMPDEST JUMPDEST PUSH1 0x40 MLOAD SWAP1 DUP1 DUP3 MSTORE DUP1 PUSH1 0x20 MUL PUSH1 0x20 ADD DUP3 ADD PUSH1 0x40 MSTORE DUP1 ISZERO PUSH2 0xD0 JUMPI DUP2 PUSH1 0x20 ADD PUSH1 0x20 DUP3 MUL DUP1 CALLDATASIZE DUP4 CALLDATACOPY DUP1 DUP3 ADD SWAP2 POP POP SWAP1 POP JUMPDEST POP PUSH1 0x3 SWAP1 DUP1 MLOAD SWAP1 PUSH1 0x20 ADD SWAP1 PUSH2 0xE6 SWAP3 SWAP2 SWAP1 PUSH2 0x144 JUMP JUMPDEST POP POP PUSH2 0x75C JUMP JUMPDEST DUP3 DUP1 SLOAD DUP3 DUP3 SSTORE SWAP1 PUSH0 MSTORE PUSH1 0x20 PUSH0 KECCAK256 SWAP1 DUP2 ADD SWAP3 DUP3 ISZERO PUSH2 0x133 JUMPI SWAP2 PUSH1 0x20 MUL DUP3 ADD JUMPDEST DUP3 DUP2 GT ISZERO PUSH2 0x132 JUMPI DUP3 MLOAD DUP3 SWAP1 DUP2 PUSH2 0x122 SWAP2 SWAP1 PUSH2 0x68D JUMP JUMPDEST POP SWAP2 PUSH1 0x20 ADD SWAP2 SWAP1 PUSH1 0x1 ADD SWAP1 PUSH2 0x10B JUMP JUMPDEST JUMPDEST POP SWAP1 POP PUSH2 0x140 SWAP2 SWAP1 PUSH2 0x18F JUMP JUMPDEST POP SWAP1 JUMP JUMPDEST DUP3 DUP1 SLOAD DUP3 DUP3 SSTORE SWAP1 PUSH0 MSTORE PUSH1 0x20 PUSH0 KECCAK256 SWAP1 DUP2 ADD SWAP3 DUP3 ISZERO PUSH2 0x17E JUMPI SWAP2 PUSH1 0x20 MUL DUP3 ADD JUMPDEST DUP3 DUP2 GT ISZERO PUSH2 0x17D JUMPI DUP3 MLOAD DUP3 SSTORE SWAP2 PUSH1 0x20 ADD SWAP2 SWAP1 PUSH1 0x1 ADD SWAP1 PUSH2 0x162 JUMP JUMPDEST JUMPDEST POP SWAP1 POP PUSH2 0x18B SWAP2 SWAP1 PUSH2 0x1B2 JUMP JUMPDEST POP SWAP1 JUMP JUMPDEST JUMPDEST DUP1 DUP3 GT ISZERO PUSH2 0x1AE JUMPI PUSH0 DUP2 DUP2 PUSH2 0x1A5 SWAP2 SWAP1 PUSH2 0x1CD JUMP JUMPDEST POP PUSH1 0x1 ADD PUSH2 0x190 JUMP JUMPDEST POP SWAP1 JUMP JUMPDEST JUMPDEST DUP1 DUP3 GT ISZERO PUSH2 0x1C9 JUMPI PUSH0 DUP2 PUSH0 SWAP1 SSTORE POP PUSH1 0x1 ADD PUSH2 0x1B3 JUMP JUMPDEST POP SWAP1 JUMP JUMPDEST POP DUP1 SLOAD PUSH2 0x1D9 SWAP1 PUSH2 0x4B7 JUMP JUMPDEST PUSH0 DUP3 SSTORE DUP1 PUSH1 0x1F LT PUSH2 0x1EA JUMPI POP PUSH2 0x207 JUMP JUMPDEST PUSH1 0x1F ADD PUSH1 0x20 SWAP1 DIV SWAP1 PUSH0 MSTORE PUSH1 0x20 PUSH0 KECCAK256 SWAP1 DUP2 ADD SWAP1 PUSH2 0x206 SWAP2 SWAP1 PUSH2 0x1B2 JUMP JUMPDEST JUMPDEST POP JUMP JUMPDEST PUSH0 PUSH1 0x40 MLOAD SWAP1 POP SWAP1 JUMP JUMPDEST PUSH0 DUP1 REVERT JUMPDEST PUSH0 DUP1 REVERT JUMPDEST PUSH0 DUP1 REVERT JUMPDEST PUSH0 PUSH1 0x1F NOT PUSH1 0x1F DUP4 ADD AND SWAP1 POP SWAP2 SWAP1 POP JUMP JUMPDEST PUSH32 0x4E487B7100000000000000000000000000000000000000000000000000000000 PUSH0 MSTORE PUSH1 0x41 PUSH1 0x4 MSTORE PUSH1 0x24 PUSH0 REVERT JUMPDEST PUSH2 0x265 DUP3 PUSH2 0x21F JUMP JUMPDEST DUP2 ADD DUP2 DUP2 LT PUSH8 0xFFFFFFFFFFFFFFFF DUP3 GT OR ISZERO PUSH2 0x284 JUMPI PUSH2 0x283 PUSH2 0x22F JUMP JUMPDEST JUMPDEST DUP1 PUSH1 0x40 MSTORE POP POP POP JUMP JUMPDEST PUSH0 PUSH2 0x296 PUSH2 0x20A JUMP JUMPDEST SWAP1 POP PUSH2 0x2A2 DUP3 DUP3 PUSH2 0x25C JUMP JUMPDEST SWAP2 SWAP1 POP JUMP JUMPDEST PUSH0 PUSH8 0xFFFFFFFFFFFFFFFF DUP3 GT ISZERO PUSH2 0x2C1 JUMPI PUSH2 0x2C0 PUSH2 0x22F JUMP JUMPDEST JUMPDEST PUSH1 0x20 DUP3 MUL SWAP1 POP PUSH1 0x20 DUP2 ADD SWAP1 POP SWAP2 SWAP1 POP JUMP JUMPDEST PUSH0 DUP1 REVERT JUMPDEST PUSH0 DUP1 REVERT JUMPDEST PUSH0 PUSH8 0xFFFFFFFFFFFFFFFF DUP3 GT ISZERO PUSH2 0x2F4 JUMPI PUSH2 0x2F3 PUSH2 0x22F JUMP JUMPDEST JUMPDEST PUSH2 0x2FD DUP3 PUSH2 0x21F JUMP JUMPDEST SWAP1 POP PUSH1 0x20 DUP2 ADD SWAP1 POP SWAP2 SWAP1 POP JUMP JUMPDEST DUP3 DUP2 DUP4 MCOPY PUSH0 DUP4 DUP4 ADD MSTORE POP POP POP JUMP JUMPDEST PUSH0 PUSH2 0x32A PUSH2 0x325 DUP5 PUSH2 0x2DA JUMP JUMPDEST PUSH2 0x28D JUMP JUMPDEST SWAP1 POP DUP3 DUP2 MSTORE PUSH1 0x20 DUP2 ADD DUP5 DUP5 DUP5 ADD GT ISZERO PUSH2 0x346 JUMPI PUSH2 0x345 PUSH2 0x2D6 JUMP JUMPDEST JUMPDEST PUSH2 0x351 DUP5 DUP3 DUP6 PUSH2 0x30A JUMP JUMPDEST POP SWAP4 SWAP3 POP POP POP JUMP JUMPDEST PUSH0 DUP3 PUSH1 0x1F DUP4 ADD SLT PUSH2 0x36D JUMPI PUSH2 0x36C PUSH2 0x21B JUMP JUMPDEST JUMPDEST DUP2 MLOAD PUSH2 0x37D DUP5 DUP3 PUSH1 0x20 DUP7 ADD PUSH2 0x318 JUMP JUMPDEST SWAP2 POP POP SWAP3 SWAP2 POP POP JUMP JUMPDEST PUSH0 PUSH2 0x398 PUSH2 0x393 DUP5 PUSH2 0x2A7 JUMP JUMPDEST PUSH2 0x28D JUMP JUMPDEST SWAP1 POP DUP1 DUP4 DUP3 MSTORE PUSH1 0x20 DUP3 ADD SWAP1 POP PUSH1 0x20 DUP5 MUL DUP4 ADD DUP6 DUP2 GT ISZERO PUSH2 0x3BB JUMPI PUSH2 0x3BA PUSH2 0x2D2 JUMP JUMPDEST JUMPDEST DUP4 JUMPDEST DUP2 DUP2 LT ISZERO PUSH2 0x402 JUMPI DUP1 MLOAD PUSH8 0xFFFFFFFFFFFFFFFF DUP2 GT ISZERO PUSH2 0x3E0 JUMPI PUSH2 0x3DF PUSH2 0x21B JUMP JUMPDEST JUMPDEST DUP1 DUP7 ADD PUSH2 0x3ED DUP10 DUP3 PUSH2 0x359 JUMP JUMPDEST DUP6 MSTORE PUSH1 0x20 DUP6 ADD SWAP5 POP POP POP PUSH1 0x20 DUP2 ADD SWAP1 POP PUSH2 0x3BD JUMP JUMPDEST POP POP POP SWAP4 SWAP3 POP POP POP JUMP JUMPDEST PUSH0 DUP3 PUSH1 0x1F DUP4 ADD SLT PUSH2 0x420 JUMPI PUSH2 0x41F PUSH2 0x21B JUMP JUMPDEST JUMPDEST DUP2 MLOAD PUSH2 0x430 DUP5 DUP3 PUSH1 0x20 DUP7 ADD PUSH2 0x386 JUMP JUMPDEST SWAP2 POP POP SWAP3 SWAP2 POP POP JUMP JUMPDEST PUSH0 PUSH1 0x20 DUP3 DUP5 SUB SLT ISZERO PUSH2 0x44E JUMPI PUSH2 0x44D PUSH2 0x213 JUMP JUMPDEST JUMPDEST PUSH0 DUP3 ADD MLOAD PUSH8 0xFFFFFFFFFFFFFFFF DUP2 GT ISZERO PUSH2 0x46B JUMPI PUSH2 0x46A PUSH2 0x217 JUMP JUMPDEST JUMPDEST PUSH2 0x477 DUP5 DUP3 DUP6 ADD PUSH2 0x40C JUMP JUMPDEST SWAP2 POP POP SWAP3 SWAP2 POP POP JUMP JUMPDEST PUSH0 DUP2 MLOAD SWAP1 POP SWAP2 SWAP1 POP JUMP JUMPDEST PUSH32 0x4E487B7100000000000000000000000000000000000000000000000000000000 PUSH0 MSTORE PUSH1 0x22 PUSH1 0x4 MSTORE PUSH1 0x24 PUSH0 REVERT JUMPDEST PUSH0 PUSH1 0x2 DUP3 DIV SWAP1 POP PUSH1 0x1 DUP3 AND DUP1 PUSH2 0x4CE JUMPI PUSH1 0x7F DUP3 AND SWAP2 POP JUMPDEST PUSH1 0x20 DUP3 LT DUP2 SUB PUSH2 0x4E1 JUMPI PUSH2 0x4E0 PUSH2 0x48A JUMP JUMPDEST JUMPDEST POP SWAP2 SWAP1 POP JUMP JUMPDEST PUSH0 DUP2 SWAP1 POP DUP2 PUSH0 MSTORE PUSH1 0x20 PUSH0 KECCAK256 SWAP1 POP SWAP2 SWAP1 POP JUMP JUMPDEST PUSH0 PUSH1 0x20 PUSH1 0x1F DUP4 ADD DIV SWAP1 POP SWAP2 SWAP1 POP JUMP JUMPDEST PUSH0 DUP3 DUP3 SHL SWAP1 POP SWAP3 SWAP2 POP POP JUMP JUMPDEST PUSH0 PUSH1 0x8 DUP4 MUL PUSH2 0x543 PUSH32 0xFFFFFFFFFFFFFFFFFFFFFFFFFFFFFFFFFFFFFFFFFFFFFFFFFFFFFFFFFFFFFFFF DUP3 PUSH2 0x508 JUMP JUMPDEST PUSH2 0x54D DUP7 DUP4 PUSH2 0x508 JUMP JUMPDEST SWAP6 POP DUP1 NOT DUP5 AND SWAP4 POP DUP1 DUP7 AND DUP5 OR SWAP3 POP POP POP SWAP4 SWAP3 POP POP POP JUMP JUMPDEST PUSH0 DUP2 SWAP1 POP SWAP2 SWAP1 POP JUMP JUMPDEST PUSH0 DUP2 SWAP1 POP SWAP2 SWAP1 POP JUMP JUMPDEST PUSH0 PUSH2 0x591 PUSH2 0x58C PUSH2 0x587 DUP5 PUSH2 0x565 JUMP JUMPDEST PUSH2 0x56E JUMP JUMPDEST PUSH2 0x565 JUMP JUMPDEST SWAP1 POP SWAP2 SWAP1 POP JUMP JUMPDEST PUSH0 DUP2 SWAP1 POP SWAP2 SWAP1 POP JUMP JUMPDEST PUSH2 0x5AA DUP4 PUSH2 0x577 JUMP JUMPDEST PUSH2 0x5BE PUSH2 0x5B6 DUP3 PUSH2 0x598 JUMP JUMPDEST DUP5 DUP5 SLOAD PUSH2 0x514 JUMP JUMPDEST DUP3 SSTORE POP POP POP POP JUMP JUMPDEST PUSH0 SWAP1 JUMP JUMPDEST PUSH2 0x5D2 PUSH2 0x5C6 JUMP JUMPDEST PUSH2 0x5DD DUP2 DUP5 DUP5 PUSH2 0x5A1 JUMP JUMPDEST POP POP POP JUMP JUMPDEST JUMPDEST DUP2 DUP2 LT ISZERO PUSH2 0x600 JUMPI PUSH2 0x5F5 PUSH0 DUP3 PUSH2 0x5CA JUMP JUMPDEST PUSH1 0x1 DUP2 ADD SWAP1 POP PUSH2 0x5E3 JUMP JUMPDEST POP POP JUMP JUMPDEST PUSH1 0x1F DUP3 GT ISZERO PUSH2 0x645 JUMPI PUSH2 0x616 DUP2 PUSH2 0x4E7 JUMP JUMPDEST PUSH2 0x61F DUP5 PUSH2 0x4F9 JUMP JUMPDEST DUP2 ADD PUSH1 0x20 DUP6 LT ISZERO PUSH2 0x62E JUMPI DUP2 SWAP1 POP JUMPDEST PUSH2 0x642 PUSH2 0x63A DUP6 PUSH2 0x4F9 JUMP JUMPDEST DUP4 ADD DUP3 PUSH2 0x5E2 JUMP JUMPDEST POP POP JUMPDEST POP POP POP JUMP JUMPDEST PUSH0 DUP3 DUP3 SHR SWAP1 POP SWAP3 SWAP2 POP POP JUMP JUMPDEST PUSH0 PUSH2 0x665 PUSH0 NOT DUP5 PUSH1 0x8 MUL PUSH2 0x64A JUMP JUMPDEST NOT DUP1 DUP4 AND SWAP2 POP POP SWAP3 SWAP2 POP POP JUMP JUMPDEST PUSH0 PUSH2 0x67D DUP4 DUP4 PUSH2 0x656 JUMP JUMPDEST SWAP2 POP DUP3 PUSH1 0x2 MUL DUP3 OR SWAP1 POP SWAP3 SWAP2 POP POP JUMP JUMPDEST PUSH2 0x696 DUP3 PUSH2 0x480 JUMP JUMPDEST PUSH8 0xFFFFFFFFFFFFFFFF DUP2 GT ISZERO PUSH2 0x6AF JUMPI PUSH2 0x6AE PUSH2 0x22F JUMP JUMPDEST JUMPDEST PUSH2 0x6B9 DUP3 SLOAD PUSH2 0x4B7 JUMP JUMPDEST PUSH2 0x6C4 DUP3 DUP3 DUP6 PUSH2 0x604 JUMP JUMPDEST PUSH0 PUSH1 0x20 SWAP1 POP PUSH1 0x1F DUP4 GT PUSH1 0x1 DUP2 EQ PUSH2 0x6F5 JUMPI PUSH0 DUP5 ISZERO PUSH2 0x6E3 JUMPI DUP3 DUP8 ADD MLOAD SWAP1 POP JUMPDEST PUSH2 0x6ED DUP6 DUP3 PUSH2 0x672 JUMP JUMPDEST DUP7 SSTORE POP PUSH2 0x754 JUMP JUMPDEST PUSH1 0x1F NOT DUP5 AND PUSH2 0x703 DUP7 PUSH2 0x4E7 JUMP JUMPDEST PUSH0 JUMPDEST DUP3 DUP2 LT ISZERO PUSH2 0x72A JUMPI DUP5 DUP10 ADD MLOAD DUP3 SSTORE PUSH1 0x1 DUP3 ADD SWAP2 POP PUSH1 0x20 DUP6 ADD SWAP5 POP PUSH1 0x20 DUP2 ADD SWAP1 POP PUSH2 0x705 JUMP JUMPDEST DUP7 DUP4 LT ISZERO PUSH2 0x747 JUMPI DUP5 DUP10 ADD MLOAD PUSH2 0x743 PUSH1 0x1F DUP10 AND DUP3 PUSH2 0x656 JUMP JUMPDEST DUP4 SSTORE POP JUMPDEST PUSH1 0x1 PUSH1 0x2 DUP9 MUL ADD DUP9 SSTORE POP POP POP JUMPDEST POP POP POP POP POP POP JUMP JUMPDEST PUSH2 0x109A DUP1 PUSH2 0x769 PUSH0 CODECOPY PUSH0 RETURN INVALID PUSH1 0x80 PUSH1 0x40 MSTORE CALLVALUE DUP1 ISZERO PUSH2 0xF JUMPI PUSH0 DUP1 REVERT JUMPDEST POP PUSH1 0x4 CALLDATASIZE LT PUSH2 0xA7 JUMPI PUSH0 CALLDATALOAD PUSH1 0xE0 SHR DUP1 PUSH4 0x409E2205 GT PUSH2 0x6F JUMPI DUP1 PUSH4 0x409E2205 EQ PUSH2 0x13B JUMPI DUP1 PUSH4 0x4717F97C EQ PUSH2 0x16B JUMPI DUP1 PUSH4 0x5DF81330 EQ PUSH2 0x189 JUMPI DUP1 PUSH4 0xA3EC138D EQ PUSH2 0x1B9 JUMPI DUP1 PUSH4 0xC3403DDF EQ PUSH2 0x1EB JUMPI DUP1 PUSH4 0xF851A440 EQ PUSH2 0x1F5 JUMPI PUSH2 0xA7 JUMP JUMPDEST DUP1 PUSH4 0x1EA736E0 EQ PUSH2 0xAB JUMPI DUP1 PUSH4 0x38DB6DD3 EQ PUSH2 0xC9 JUMPI DUP1 PUSH4 0x3D2F5BDA EQ PUSH2 0xE5 JUMPI DUP1 PUSH4 0x3EB76B9C EQ PUSH2 0x101 JUMPI DUP1 PUSH4 0x408E2727 EQ PUSH2 0x11D JUMPI JUMPDEST PUSH0 DUP1 REVERT JUMPDEST PUSH2 0xB3 PUSH2 0x213 JUMP JUMPDEST PUSH1 0x40 MLOAD PUSH2 0xC0 SWAP2 SWAP1 PUSH2 0x906 JUMP JUMPDEST PUSH1 0x40 MLOAD DUP1 SWAP2 SUB SWAP1 RETURN JUMPDEST PUSH2 0xE3 PUSH1 0x4 DUP1 CALLDATASIZE SUB DUP2 ADD SWAP1 PUSH2 0xDE SWAP2 SWAP1 PUSH2 0x97D JUMP JUMPDEST PUSH2 0x219 JUMP JUMPDEST STOP JUMPDEST PUSH2 0xFF PUSH1 0x4 DUP1 CALLDATASIZE SUB DUP2 ADD SWAP1 PUSH2 0xFA SWAP2 SWAP1 PUSH2 0x9D2 JUMP JUMPDEST PUSH2 0x3DB JUMP JUMPDEST STOP JUMPDEST PUSH2 0x11B PUSH1 0x4 DUP1 CALLDATASIZE SUB DUP2 ADD SWAP1 PUSH2 0x116 SWAP2 SWAP1 PUSH2 0x9D2 JUMP JUMPDEST PUSH2 0x4A3 JUMP JUMPDEST STOP JUMPDEST PUSH2 0x125 PUSH2 0x6B7 JUMP JUMPDEST PUSH1 0x40 MLOAD PUSH2 0x132 SWAP2 SWAP1 PUSH2 0xA17 JUMP JUMPDEST PUSH1 0x40 MLOAD DUP1 SWAP2 SUB SWAP1 RETURN JUMPDEST PUSH2 0x155 PUSH1 0x4 DUP1 CALLDATASIZE SUB DUP2 ADD SWAP1 PUSH2 0x150 SWAP2 SWAP1 PUSH2 0x9D2 JUMP JUMPDEST PUSH2 0x6C9 JUMP JUMPDEST PUSH1 0x40 MLOAD PUSH2 0x162 SWAP2 SWAP1 PUSH2 0xAA0 JUMP JUMPDEST PUSH1 0x40 MLOAD DUP1 SWAP2 SUB SWAP1 RETURN JUMPDEST PUSH2 0x173 PUSH2 0x76F JUMP JUMPDEST PUSH1 0x40 MLOAD PUSH2 0x180 SWAP2 SWAP1 PUSH2 0xB77 JUMP JUMPDEST PUSH1 0x40 MLOAD DUP1 SWAP2 SUB SWAP1 RETURN JUMPDEST PUSH2 0x1A3 PUSH1 0x4 DUP1 CALLDATASIZE SUB DUP2 ADD SWAP1 PUSH2 0x19E SWAP2 SWAP1 PUSH2 0x9D2 JUMP JUMPDEST PUSH2 0x7C5 JUMP JUMPDEST PUSH1 0x40 MLOAD PUSH2 0x1B0 SWAP2 SWAP1 PUSH2 0x906 JUMP JUMPDEST PUSH1 0x40 MLOAD DUP1 SWAP2 SUB SWAP1 RETURN JUMPDEST PUSH2 0x1D3 PUSH1 0x4 DUP1 CALLDATASIZE SUB DUP2 ADD SWAP1 PUSH2 0x1CE SWAP2 SWAP1 PUSH2 0x97D JUMP JUMPDEST PUSH2 0x7E5 JUMP JUMPDEST PUSH1 0x40 MLOAD PUSH2 0x1E2 SWAP4 SWAP3 SWAP2 SWAP1 PUSH2 0xB97 JUMP JUMPDEST PUSH1 0x40 MLOAD DUP1 SWAP2 SUB SWAP1 RETURN JUMPDEST PUSH2 0x1F3 PUSH2 0x823 JUMP JUMPDEST STOP JUMPDEST PUSH2 0x1FD PUSH2 0x8CB JUMP JUMPDEST PUSH1 0x40 MLOAD PUSH2 0x20A SWAP2 SWAP1 PUSH2 0xBDB JUMP JUMPDEST PUSH1 0x40 MLOAD DUP1 SWAP2 SUB SWAP1 RETURN JUMPDEST PUSH1 0x5 SLOAD DUP2 JUMP JUMPDEST PUSH0 DUP1 SLOAD SWAP1 PUSH2 0x100 EXP SWAP1 DIV PUSH20 0xFFFFFFFFFFFFFFFFFFFFFFFFFFFFFFFFFFFFFFFF AND PUSH20 0xFFFFFFFFFFFFFFFFFFFFFFFFFFFFFFFFFFFFFFFF AND CALLER PUSH20 0xFFFFFFFFFFFFFFFFFFFFFFFFFFFFFFFFFFFFFFFF AND EQ PUSH2 0x2A6 JUMPI PUSH1 0x40 MLOAD PUSH32 0x8C379A000000000000000000000000000000000000000000000000000000000 DUP2 MSTORE PUSH1 0x4 ADD PUSH2 0x29D SWAP1 PUSH2 0xC64 JUMP JUMPDEST PUSH1 0x40 MLOAD DUP1 SWAP2 SUB SWAP1 REVERT JUMPDEST PUSH1 0x1 PUSH0 DUP3 PUSH20 0xFFFFFFFFFFFFFFFFFFFFFFFFFFFFFFFFFFFFFFFF AND PUSH20 0xFFFFFFFFFFFFFFFFFFFFFFFFFFFFFFFFFFFFFFFF AND DUP2 MSTORE PUSH1 0x20 ADD SWAP1 DUP2 MSTORE PUSH1 0x20 ADD PUSH0 KECCAK256 PUSH0 ADD PUSH0 SWAP1 SLOAD SWAP1 PUSH2 0x100 EXP SWAP1 DIV PUSH1 0xFF AND ISZERO PUSH2 0x332 JUMPI PUSH1 0x40 MLOAD PUSH32 0x8C379A000000000000000000000000000000000000000000000000000000000 DUP2 MSTORE PUSH1 0x4 ADD PUSH2 0x329 SWAP1 PUSH2 0xCCC JUMP JUMPDEST PUSH1 0x40 MLOAD DUP1 SWAP2 SUB SWAP1 REVERT JUMPDEST PUSH1 0x40 MLOAD DUP1 PUSH1 0x60 ADD PUSH1 0x40 MSTORE DUP1 PUSH1 0x1 ISZERO ISZERO DUP2 MSTORE PUSH1 0x20 ADD PUSH0 ISZERO ISZERO DUP2 MSTORE PUSH1 0x20 ADD PUSH0 DUP2 MSTORE POP PUSH1 0x1 PUSH0 DUP4 PUSH20 0xFFFFFFFFFFFFFFFFFFFFFFFFFFFFFFFFFFFFFFFF AND PUSH20 0xFFFFFFFFFFFFFFFFFFFFFFFFFFFFFFFFFFFFFFFF AND DUP2 MSTORE PUSH1 0x20 ADD SWAP1 DUP2 MSTORE PUSH1 0x20 ADD PUSH0 KECCAK256 PUSH0 DUP3 ADD MLOAD DUP2 PUSH0 ADD PUSH0 PUSH2 0x100 EXP DUP2 SLOAD DUP2 PUSH1 0xFF MUL NOT AND SWAP1 DUP4 ISZERO ISZERO MUL OR SWAP1 SSTORE POP PUSH1 0x20 DUP3 ADD MLOAD DUP2 PUSH0 ADD PUSH1 0x1 PUSH2 0x100 EXP DUP2 SLOAD DUP2 PUSH1 0xFF MUL NOT AND SWAP1 DUP4 ISZERO ISZERO MUL OR SWAP1 SSTORE POP PUSH1 0x40 DUP3 ADD MLOAD DUP2 PUSH1 0x1 ADD SSTORE SWAP1 POP POP POP JUMP JUMPDEST PUSH0 DUP1 SLOAD SWAP1 PUSH2 0x100 EXP SWAP1 DIV PUSH20 0xFFFFFFFFFFFFFFFFFFFFFFFFFFFFFFFFFFFFFFFF AND PUSH20 0xFFFFFFFFFFFFFFFFFFFFFFFFFFFFFFFFFFFFFFFF AND CALLER PUSH20 0xFFFFFFFFFFFFFFFFFFFFFFFFFFFFFFFFFFFFFFFF AND EQ PUSH2 0x468 JUMPI PUSH1 0x40 MLOAD PUSH32 0x8C379A000000000000000000000000000000000000000000000000000000000 DUP2 MSTORE PUSH1 0x4 ADD PUSH2 0x45F SWAP1 PUSH2 0xC64 JUMP JUMPDEST PUSH1 0x40 MLOAD DUP1 SWAP2 SUB SWAP1 REVERT JUMPDEST PUSH1 0x1 PUSH1 0x4 PUSH0 PUSH2 0x100 EXP DUP2 SLOAD DUP2 PUSH1 0xFF MUL NOT AND SWAP1 DUP4 ISZERO ISZERO MUL OR SWAP1 SSTORE POP PUSH1 0x3C DUP2 PUSH2 0x48F SWAP2 SWAP1 PUSH2 0xD17 JUMP JUMPDEST TIMESTAMP PUSH2 0x49A SWAP2 SWAP1 PUSH2 0xD58 JUMP JUMPDEST PUSH1 0x5 DUP2 SWAP1 SSTORE POP POP JUMP JUMPDEST PUSH1 0x4 PUSH0 SWAP1 SLOAD SWAP1 PUSH2 0x100 EXP SWAP1 DIV PUSH1 0xFF AND PUSH2 0x4F1 JUMPI PUSH1 0x40 MLOAD PUSH32 0x8C379A000000000000000000000000000000000000000000000000000000000 DUP2 MSTORE PUSH1 0x4 ADD PUSH2 0x4E8 SWAP1 PUSH2 0xDD5 JUMP JUMPDEST PUSH1 0x40 MLOAD DUP1 SWAP2 SUB SWAP1 REVERT JUMPDEST PUSH1 0x5 SLOAD TIMESTAMP GT ISZERO PUSH2 0x536 JUMPI PUSH1 0x40 MLOAD PUSH32 0x8C379A000000000000000000000000000000000000000000000000000000000 DUP2 MSTORE PUSH1 0x4 ADD PUSH2 0x52D SWAP1 PUSH2 0xE3D JUMP JUMPDEST PUSH1 0x40 MLOAD DUP1 SWAP2 SUB SWAP1 REVERT JUMPDEST PUSH0 PUSH1 0x1 PUSH0 CALLER PUSH20 0xFFFFFFFFFFFFFFFFFFFFFFFFFFFFFFFFFFFFFFFF AND PUSH20 0xFFFFFFFFFFFFFFFFFFFFFFFFFFFFFFFFFFFFFFFF AND DUP2 MSTORE PUSH1 0x20 ADD SWAP1 DUP2 MSTORE PUSH1 0x20 ADD PUSH0 KECCAK256 SWAP1 POP DUP1 PUSH0 ADD PUSH0 SWAP1 SLOAD SWAP1 PUSH2 0x100 EXP SWAP1 DIV PUSH1 0xFF AND PUSH2 0x5C5 JUMPI PUSH1 0x40 MLOAD PUSH32 0x8C379A000000000000000000000000000000000000000000000000000000000 DUP2 MSTORE PUSH1 0x4 ADD PUSH2 0x5BC SWAP1 PUSH2 0xEA5 JUMP JUMPDEST PUSH1 0x40 MLOAD DUP1 SWAP2 SUB SWAP1 REVERT JUMPDEST DUP1 PUSH0 ADD PUSH1 0x1 SWAP1 SLOAD SWAP1 PUSH2 0x100 EXP SWAP1 DIV PUSH1 0xFF AND ISZERO PUSH2 0x616 JUMPI PUSH1 0x40 MLOAD PUSH32 0x8C379A000000000000000000000000000000000000000000000000000000000 DUP2 MSTORE PUSH1 0x4 ADD PUSH2 0x60D SWAP1 PUSH2 0xF0D JUMP JUMPDEST PUSH1 0x40 MLOAD DUP1 SWAP2 SUB SWAP1 REVERT JUMPDEST PUSH1 0x2 DUP1 SLOAD SWAP1 POP DUP3 LT PUSH2 0x65D JUMPI PUSH1 0x40 MLOAD PUSH32 0x8C379A000000000000000000000000000000000000000000000000000000000 DUP2 MSTORE PUSH1 0x4 ADD PUSH2 0x654 SWAP1 PUSH2 0xF75 JUMP JUMPDEST PUSH1 0x40 MLOAD DUP1 SWAP2 SUB SWAP1 REVERT JUMPDEST PUSH1 0x1 DUP2 PUSH0 ADD PUSH1 0x1 PUSH2 0x100 EXP DUP2 SLOAD DUP2 PUSH1 0xFF MUL NOT AND SWAP1 DUP4 ISZERO ISZERO MUL OR SWAP1 SSTORE POP DUP2 DUP2 PUSH1 0x1 ADD DUP2 SWAP1 SSTORE POP PUSH1 0x3 DUP3 DUP2 SLOAD DUP2 LT PUSH2 0x696 JUMPI PUSH2 0x695 PUSH2 0xF93 JUMP JUMPDEST JUMPDEST SWAP1 PUSH0 MSTORE PUSH1 0x20 PUSH0 KECCAK256 ADD PUSH0 DUP2 SLOAD DUP1 SWAP3 SWAP2 SWAP1 PUSH2 0x6AE SWAP1 PUSH2 0xFC0 JUMP JUMPDEST SWAP2 SWAP1 POP SSTORE POP POP POP JUMP JUMPDEST PUSH1 0x4 PUSH0 SWAP1 SLOAD SWAP1 PUSH2 0x100 EXP SWAP1 DIV PUSH1 0xFF AND DUP2 JUMP JUMPDEST PUSH1 0x2 DUP2 DUP2 SLOAD DUP2 LT PUSH2 0x6D8 JUMPI PUSH0 DUP1 REVERT JUMPDEST SWAP1 PUSH0 MSTORE PUSH1 0x20 PUSH0 KECCAK256 ADD PUSH0 SWAP2 POP SWAP1 POP DUP1 SLOAD PUSH2 0x6F0 SWAP1 PUSH2 0x1034 JUMP JUMPDEST DUP1 PUSH1 0x1F ADD PUSH1 0x20 DUP1 SWAP2 DIV MUL PUSH1 0x20 ADD PUSH1 0x40 MLOAD SWAP1 DUP2 ADD PUSH1 0x40 MSTORE DUP1 SWAP3 SWAP2 SWAP1 DUP2 DUP2 MSTORE PUSH1 0x20 ADD DUP3 DUP1 SLOAD PUSH2 0x71C SWAP1 PUSH2 0x1034 JUMP JUMPDEST DUP1 ISZERO PUSH2 0x767 JUMPI DUP1 PUSH1 0x1F LT PUSH2 0x73E JUMPI PUSH2 0x100 DUP1 DUP4 SLOAD DIV MUL DUP4 MSTORE SWAP2 PUSH1 0x20 ADD SWAP2 PUSH2 0x767 JUMP JUMPDEST DUP3 ADD SWAP2 SWAP1 PUSH0 MSTORE PUSH1 0x20 PUSH0 KECCAK256 SWAP1 JUMPDEST DUP2 SLOAD DUP2 MSTORE SWAP1 PUSH1 0x1 ADD SWAP1 PUSH1 0x20 ADD DUP1 DUP4 GT PUSH2 0x74A JUMPI DUP3 SWAP1 SUB PUSH1 0x1F AND DUP3 ADD SWAP2 JUMPDEST POP POP POP POP POP DUP2 JUMP JUMPDEST PUSH1 0x60 PUSH1 0x3 DUP1 SLOAD DUP1 PUSH1 0x20 MUL PUSH1 0x20 ADD PUSH1 0x40 MLOAD SWAP1 DUP2 ADD PUSH1 0x40 MSTORE DUP1 SWAP3 SWAP2 SWAP1 DUP2 DUP2 MSTORE PUSH1 0x20 ADD DUP3 DUP1 SLOAD DUP1 ISZERO PUSH2 0x7BB JUMPI PUSH1 0x20 MUL DUP3 ADD SWAP2 SWAP1 PUSH0 MSTORE PUSH1 0x20 PUSH0 KECCAK256 SWAP1 JUMPDEST DUP2 SLOAD DUP2 MSTORE PUSH1 0x20 ADD SWAP1 PUSH1 0x1 ADD SWAP1 DUP1 DUP4 GT PUSH2 0x7A7 JUMPI JUMPDEST POP POP POP POP POP SWAP1 POP SWAP1 JUMP JUMPDEST PUSH1 0x3 DUP2 DUP2 SLOAD DUP2 LT PUSH2 0x7D4 JUMPI PUSH0 DUP1 REVERT JUMPDEST SWAP1 PUSH0 MSTORE PUSH1 0x20 PUSH0 KECCAK256 ADD PUSH0 SWAP2 POP SWAP1 POP SLOAD DUP2 JUMP JUMPDEST PUSH1 0x1 PUSH1 0x20 MSTORE DUP1 PUSH0 MSTORE PUSH1 0x40 PUSH0 KECCAK256 PUSH0 SWAP2 POP SWAP1 POP DUP1 PUSH0 ADD PUSH0 SWAP1 SLOAD SWAP1 PUSH2 0x100 EXP SWAP1 DIV PUSH1 0xFF AND SWAP1 DUP1 PUSH0 ADD PUSH1 0x1 SWAP1 SLOAD SWAP1 PUSH2 0x100 EXP SWAP1 DIV PUSH1 0xFF AND SWAP1 DUP1 PUSH1 0x1 ADD SLOAD SWAP1 POP DUP4 JUMP JUMPDEST PUSH0 DUP1 SLOAD SWAP1 PUSH2 0x100 EXP SWAP1 DIV PUSH20 0xFFFFFFFFFFFFFFFFFFFFFFFFFFFFFFFFFFFFFFFF AND PUSH20 0xFFFFFFFFFFFFFFFFFFFFFFFFFFFFFFFFFFFFFFFF AND CALLER PUSH20 0xFFFFFFFFFFFFFFFFFFFFFFFFFFFFFFFFFFFFFFFF AND EQ PUSH2 0x8B0 JUMPI PUSH1 0x40 MLOAD PUSH32 0x8C379A000000000000000000000000000000000000000000000000000000000 DUP2 MSTORE PUSH1 0x4 ADD PUSH2 0x8A7 SWAP1 PUSH2 0xC64 JUMP JUMPDEST PUSH1 0x40 MLOAD DUP1 SWAP2 SUB SWAP1 REVERT JUMPDEST PUSH0 PUSH1 0x4 PUSH0 PUSH2 0x100 EXP DUP2 SLOAD DUP2 PUSH1 0xFF MUL NOT AND SWAP1 DUP4 ISZERO ISZERO MUL OR SWAP1 SSTORE POP JUMP JUMPDEST PUSH0 DUP1 SLOAD SWAP1 PUSH2 0x100 EXP SWAP1 DIV PUSH20 0xFFFFFFFFFFFFFFFFFFFFFFFFFFFFFFFFFFFFFFFF AND DUP2 JUMP JUMPDEST PUSH0 DUP2 SWAP1 POP SWAP2 SWAP1 POP JUMP JUMPDEST PUSH2 0x900 DUP2 PUSH2 0x8EE JUMP JUMPDEST DUP3 MSTORE POP POP JUMP JUMPDEST PUSH0 PUSH1 0x20 DUP3 ADD SWAP1 POP PUSH2 0x919 PUSH0 DUP4 ADD DUP5 PUSH2 0x8F7 JUMP JUMPDEST SWAP3 SWAP2 POP POP JUMP JUMPDEST PUSH0 DUP1 REVERT JUMPDEST PUSH0 PUSH20 0xFFFFFFFFFFFFFFFFFFFFFFFFFFFFFFFFFFFFFFFF DUP3 AND SWAP1 POP SWAP2 SWAP1 POP JUMP JUMPDEST PUSH0 PUSH2 0x94C DUP3 PUSH2 0x923 JUMP JUMPDEST SWAP1 POP SWAP2 SWAP1 POP JUMP JUMPDEST PUSH2 0x95C DUP2 PUSH2 0x942 JUMP JUMPDEST DUP2 EQ PUSH2 0x966 JUMPI PUSH0 DUP1 REVERT JUMPDEST POP JUMP JUMPDEST PUSH0 DUP2 CALLDATALOAD SWAP1 POP PUSH2 0x977 DUP2 PUSH2 0x953 JUMP JUMPDEST SWAP3 SWAP2 POP POP JUMP JUMPDEST PUSH0 PUSH1 0x20 DUP3 DUP5 SUB SLT ISZERO PUSH2 0x992 JUMPI PUSH2 0x991 PUSH2 0x91F JUMP JUMPDEST JUMPDEST PUSH0 PUSH2 0x99F DUP5 DUP3 DUP6 ADD PUSH2 0x969 JUMP JUMPDEST SWAP2 POP POP SWAP3 SWAP2 POP POP JUMP JUMPDEST PUSH2 0x9B1 DUP2 PUSH2 0x8EE JUMP JUMPDEST DUP2 EQ PUSH2 0x9BB JUMPI PUSH0 DUP1 REVERT JUMPDEST POP JUMP JUMPDEST PUSH0 DUP2 CALLDATALOAD SWAP1 POP PUSH2 0x9CC DUP2 PUSH2 0x9A8 JUMP JUMPDEST SWAP3 SWAP2 POP POP JUMP JUMPDEST PUSH0 PUSH1 0x20 DUP3 DUP5 SUB SLT ISZERO PUSH2 0x9E7 JUMPI PUSH2 0x9E6 PUSH2 0x91F JUMP JUMPDEST JUMPDEST PUSH0 PUSH2 0x9F4 DUP5 DUP3 DUP6 ADD PUSH2 0x9BE JUMP JUMPDEST SWAP2 POP POP SWAP3 SWAP2 POP POP JUMP JUMPDEST PUSH0 DUP2 ISZERO ISZERO SWAP1 POP SWAP2 SWAP1 POP JUMP JUMPDEST PUSH2 0xA11 DUP2 PUSH2 0x9FD JUMP JUMPDEST DUP3 MSTORE POP POP JUMP JUMPDEST PUSH0 PUSH1 0x20 DUP3 ADD SWAP1 POP PUSH2 0xA2A PUSH0 DUP4 ADD DUP5 PUSH2 0xA08 JUMP JUMPDEST SWAP3 SWAP2 POP POP JUMP JUMPDEST PUSH0 DUP2 MLOAD SWAP1 POP SWAP2 SWAP1 POP JUMP JUMPDEST PUSH0 DUP3 DUP3 MSTORE PUSH1 0x20 DUP3 ADD SWAP1 POP SWAP3 SWAP2 POP POP JUMP JUMPDEST DUP3 DUP2 DUP4 MCOPY PUSH0 DUP4 DUP4 ADD MSTORE POP POP POP JUMP JUMPDEST PUSH0 PUSH1 0x1F NOT PUSH1 0x1F DUP4 ADD AND SWAP1 POP SWAP2 SWAP1 POP JUMP JUMPDEST PUSH0 PUSH2 0xA72 DUP3 PUSH2 0xA30 JUMP JUMPDEST PUSH2 0xA7C DUP2 DUP6 PUSH2 0xA3A JUMP JUMPDEST SWAP4 POP PUSH2 0xA8C DUP2 DUP6 PUSH1 0x20 DUP7 ADD PUSH2 0xA4A JUMP JUMPDEST PUSH2 0xA95 DUP2 PUSH2 0xA58 JUMP JUMPDEST DUP5 ADD SWAP2 POP POP SWAP3 SWAP2 POP POP JUMP JUMPDEST PUSH0 PUSH1 0x20 DUP3 ADD SWAP1 POP DUP2 DUP2 SUB PUSH0 DUP4 ADD MSTORE PUSH2 0xAB8 DUP2 DUP5 PUSH2 0xA68 JUMP JUMPDEST SWAP1 POP SWAP3 SWAP2 POP POP JUMP JUMPDEST PUSH0 DUP2 MLOAD SWAP1 POP SWAP2 SWAP1 POP JUMP JUMPDEST PUSH0 DUP3 DUP3 MSTORE PUSH1 0x20 DUP3 ADD SWAP1 POP SWAP3 SWAP2 POP POP JUMP JUMPDEST PUSH0 DUP2 SWAP1 POP PUSH1 0x20 DUP3 ADD SWAP1 POP SWAP2 SWAP1 POP JUMP JUMPDEST PUSH2 0xAF2 DUP2 PUSH2 0x8EE JUMP JUMPDEST DUP3 MSTORE POP POP JUMP JUMPDEST PUSH0 PUSH2 0xB03 DUP4 DUP4 PUSH2 0xAE9 JUMP JUMPDEST PUSH1 0x20 DUP4 ADD SWAP1 POP SWAP3 SWAP2 POP POP JUMP JUMPDEST PUSH0 PUSH1 0x20 DUP3 ADD SWAP1 POP SWAP2 SWAP1 POP JUMP JUMPDEST PUSH0 PUSH2 0xB25 DUP3 PUSH2 0xAC0 JUMP JUMPDEST PUSH2 0xB2F DUP2 DUP6 PUSH2 0xACA JUMP JUMPDEST SWAP4 POP PUSH2 0xB3A DUP4 PUSH2 0xADA JUMP JUMPDEST DUP1 PUSH0 JUMPDEST DUP4 DUP2 LT ISZERO PUSH2 0xB6A JUMPI DUP2 MLOAD PUSH2 0xB51 DUP9 DUP3 PUSH2 0xAF8 JUMP JUMPDEST SWAP8 POP PUSH2 0xB5C DUP4 PUSH2 0xB0F JUMP JUMPDEST SWAP3 POP POP PUSH1 0x1 DUP2 ADD SWAP1 POP PUSH2 0xB3D JUMP JUMPDEST POP DUP6 SWAP4 POP POP POP POP SWAP3 SWAP2 POP POP JUMP JUMPDEST PUSH0 PUSH1 0x20 DUP3 ADD SWAP1 POP DUP2 DUP2 SUB PUSH0 DUP4 ADD MSTORE PUSH2 0xB8F DUP2 DUP5 PUSH2 0xB1B JUMP JUMPDEST SWAP1 POP SWAP3 SWAP2 POP POP JUMP JUMPDEST PUSH0 PUSH1 0x60 DUP3 ADD SWAP1 POP PUSH2 0xBAA PUSH0 DUP4 ADD DUP7 PUSH2 0xA08 JUMP JUMPDEST PUSH2 0xBB7 PUSH1 0x20 DUP4 ADD DUP6 PUSH2 0xA08 JUMP JUMPDEST PUSH2 0xBC4 PUSH1 0x40 DUP4 ADD DUP5 PUSH2 0x8F7 JUMP JUMPDEST SWAP5 SWAP4 POP POP POP POP JUMP JUMPDEST PUSH2 0xBD5 DUP2 PUSH2 0x942 JUMP JUMPDEST DUP3 MSTORE POP POP JUMP JUMPDEST PUSH0 PUSH1 0x20 DUP3 ADD SWAP1 POP PUSH2 0xBEE PUSH0 DUP4 ADD DUP5 PUSH2 0xBCC JUMP JUMPDEST SWAP3 SWAP2 POP POP JUMP JUMPDEST PUSH32 0x4F6E6C792061646D696E2063616E20706572666F726D20746869732061637469 PUSH0 DUP3 ADD MSTORE PUSH32 0x6F6E2E0000000000000000000000000000000000000000000000000000000000 PUSH1 0x20 DUP3 ADD MSTORE POP JUMP JUMPDEST PUSH0 PUSH2 0xC4E PUSH1 0x23 DUP4 PUSH2 0xA3A JUMP JUMPDEST SWAP2 POP PUSH2 0xC59 DUP3 PUSH2 0xBF4 JUMP JUMPDEST PUSH1 0x40 DUP3 ADD SWAP1 POP SWAP2 SWAP1 POP JUMP JUMPDEST PUSH0 PUSH1 0x20 DUP3 ADD SWAP1 POP DUP2 DUP2 SUB PUSH0 DUP4 ADD MSTORE PUSH2 0xC7B DUP2 PUSH2 0xC42 JUMP JUMPDEST SWAP1 POP SWAP2 SWAP1 POP JUMP JUMPDEST PUSH32 0x566F74657220697320616C726561647920726567697374657265642E00000000 PUSH0 DUP3 ADD MSTORE POP JUMP JUMPDEST PUSH0 PUSH2 0xCB6 PUSH1 0x1C DUP4 PUSH2 0xA3A JUMP JUMPDEST SWAP2 POP PUSH2 0xCC1 DUP3 PUSH2 0xC82 JUMP JUMPDEST PUSH1 0x20 DUP3 ADD SWAP1 POP SWAP2 SWAP1 POP JUMP JUMPDEST PUSH0 PUSH1 0x20 DUP3 ADD SWAP1 POP DUP2 DUP2 SUB PUSH0 DUP4 ADD MSTORE PUSH2 0xCE3 DUP2 PUSH2 0xCAA JUMP JUMPDEST SWAP1 POP SWAP2 SWAP1 POP JUMP JUMPDEST PUSH32 0x4E487B7100000000000000000000000000000000000000000000000000000000 PUSH0 MSTORE PUSH1 0x11 PUSH1 0x4 MSTORE PUSH1 0x24 PUSH0 REVERT JUMPDEST PUSH0 PUSH2 0xD21 DUP3 PUSH2 0x8EE JUMP JUMPDEST SWAP2 POP PUSH2 0xD2C DUP4 PUSH2 0x8EE JUMP JUMPDEST SWAP3 POP DUP3 DUP3 MUL PUSH2 0xD3A DUP2 PUSH2 0x8EE JUMP JUMPDEST SWAP2 POP DUP3 DUP3 DIV DUP5 EQ DUP4 ISZERO OR PUSH2 0xD51 JUMPI PUSH2 0xD50 PUSH2 0xCEA JUMP JUMPDEST JUMPDEST POP SWAP3 SWAP2 POP POP JUMP JUMPDEST PUSH0 PUSH2 0xD62 DUP3 PUSH2 0x8EE JUMP JUMPDEST SWAP2 POP PUSH2 0xD6D DUP4 PUSH2 0x8EE JUMP JUMPDEST SWAP3 POP DUP3 DUP3 ADD SWAP1 POP DUP1 DUP3 GT ISZERO PUSH2 0xD85 JUMPI PUSH2 0xD84 PUSH2 0xCEA JUMP JUMPDEST JUMPDEST SWAP3 SWAP2 POP POP JUMP JUMPDEST PUSH32 0x566F74696E67206973206E6F74206163746976652E0000000000000000000000 PUSH0 DUP3 ADD MSTORE POP JUMP JUMPDEST PUSH0 PUSH2 0xDBF PUSH1 0x15 DUP4 PUSH2 0xA3A JUMP JUMPDEST SWAP2 POP PUSH2 0xDCA DUP3 PUSH2 0xD8B JUMP JUMPDEST PUSH1 0x20 DUP3 ADD SWAP1 POP SWAP2 SWAP1 POP JUMP JUMPDEST PUSH0 PUSH1 0x20 DUP3 ADD SWAP1 POP DUP2 DUP2 SUB PUSH0 DUP4 ADD MSTORE PUSH2 0xDEC DUP2 PUSH2 0xDB3 JUMP JUMPDEST SWAP1 POP SWAP2 SWAP1 POP JUMP JUMPDEST PUSH32 0x566F74696E672073657373696F6E2068617320656E6465642E00000000000000 PUSH0 DUP3 ADD MSTORE POP JUMP JUMPDEST PUSH0 PUSH2 0xE27 PUSH1 0x19 DUP4 PUSH2 0xA3A JUMP JUMPDEST SWAP2 POP PUSH2 0xE32 DUP3 PUSH2 0xDF3 JUMP JUMPDEST PUSH1 0x20 DUP3 ADD SWAP1 POP SWAP2 SWAP1 POP JUMP JUMPDEST PUSH0 PUSH1 0x20 DUP3 ADD SWAP1 POP DUP2 DUP2 SUB PUSH0 DUP4 ADD MSTORE PUSH2 0xE54 DUP2 PUSH2 0xE1B JUMP JUMPDEST SWAP1 POP SWAP2 SWAP1 POP JUMP JUMPDEST PUSH32 0x4E6F742061207265676973746572656420766F7465722E000000000000000000 PUSH0 DUP3 ADD MSTORE POP JUMP JUMPDEST PUSH0 PUSH2 0xE8F PUSH1 0x17 DUP4 PUSH2 0xA3A JUMP JUMPDEST SWAP2 POP PUSH2 0xE9A DUP3 PUSH2 0xE5B JUMP JUMPDEST PUSH1 0x20 DUP3 ADD SWAP1 POP SWAP2 SWAP1 POP JUMP JUMPDEST PUSH0 PUSH1 0x20 DUP3 ADD SWAP1 POP DUP2 DUP2 SUB PUSH0 DUP4 ADD MSTORE PUSH2 0xEBC DUP2 PUSH2 0xE83 JUMP JUMPDEST SWAP1 POP SWAP2 SWAP1 POP JUMP JUMPDEST PUSH32 0x416C726561647920766F7465642E000000000000000000000000000000000000 PUSH0 DUP3 ADD MSTORE POP JUMP JUMPDEST PUSH0 PUSH2 0xEF7 PUSH1 0xE DUP4 PUSH2 0xA3A JUMP JUMPDEST SWAP2 POP PUSH2 0xF02 DUP3 PUSH2 0xEC3 JUMP JUMPDEST PUSH1 0x20 DUP3 ADD SWAP1 POP SWAP2 SWAP1 POP JUMP JUMPDEST PUSH0 PUSH1 0x20 DUP3 ADD SWAP1 POP DUP2 DUP2 SUB PUSH0 DUP4 ADD MSTORE PUSH2 0xF24 DUP2 PUSH2 0xEEB JUMP JUMPDEST SWAP1 POP SWAP2 SWAP1 POP JUMP JUMPDEST PUSH32 0x496E76616C6964206F7074696F6E2E0000000000000000000000000000000000 PUSH0 DUP3 ADD MSTORE POP JUMP JUMPDEST PUSH0 PUSH2 0xF5F PUSH1 0xF DUP4 PUSH2 0xA3A JUMP JUMPDEST SWAP2 POP PUSH2 0xF6A DUP3 PUSH2 0xF2B JUMP JUMPDEST PUSH1 0x20 DUP3 ADD SWAP1 POP SWAP2 SWAP1 POP JUMP JUMPDEST PUSH0 PUSH1 0x20 DUP3 ADD SWAP1 POP DUP2 DUP2 SUB PUSH0 DUP4 ADD MSTORE PUSH2 0xF8C DUP2 PUSH2 0xF53 JUMP JUMPDEST SWAP1 POP SWAP2 SWAP1 POP JUMP JUMPDEST PUSH32 0x4E487B7100000000000000000000000000000000000000000000000000000000 PUSH0 MSTORE PUSH1 0x32 PUSH1 0x4 MSTORE PUSH1 0x24 PUSH0 REVERT JUMPDEST PUSH0 PUSH2 0xFCA DUP3 PUSH2 0x8EE JUMP JUMPDEST SWAP2 POP PUSH32 0xFFFFFFFFFFFFFFFFFFFFFFFFFFFFFFFFFFFFFFFFFFFFFFFFFFFFFFFFFFFFFFFF DUP3 SUB PUSH2 0xFFC JUMPI PUSH2 0xFFB PUSH2 0xCEA JUMP JUMPDEST JUMPDEST PUSH1 0x1 DUP3 ADD SWAP1 POP SWAP2 SWAP1 POP JUMP JUMPDEST PUSH32 0x4E487B7100000000000000000000000000000000000000000000000000000000 PUSH0 MSTORE PUSH1 0x22 PUSH1 0x4 MSTORE PUSH1 0x24 PUSH0 REVERT JUMPDEST PUSH0 PUSH1 0x2 DUP3 DIV SWAP1 POP PUSH1 0x1 DUP3 AND DUP1 PUSH2 0x104B JUMPI PUSH1 0x7F DUP3 AND SWAP2 POP JUMPDEST PUSH1 0x20 DUP3 LT DUP2 SUB PUSH2 0x105E JUMPI PUSH2 0x105D PUSH2 0x1007 JUMP JUMPDEST JUMPDEST POP SWAP2 SWAP1 POP JUMP INVALID LOG2 PUSH5 0x6970667358 0x22 SLT KECCAK256 LT 0xEB 0xB1 RETURN REVERT 0xEE DUP10 JUMPDEST ADDMOD PUSH19 0x81994F77BDC3180FD751C1E6E157890227E1E 0xF PUSH19 0x9F64736F6C634300081A003300000000000000 "
				},
				"gasEstimates": {
					"creation": {
						"codeDepositCost": "850000",
						"executionCost": "infinite",
						"totalCost": "infinite"
					},
					"external": {
						"admin()": "2615",
						"castVote(uint256)": "infinite",
						"endVoting()": "26662",
						"getResults()": "infinite",
						"options(uint256)": "infinite",
						"registerVoter(address)": "58702",
						"startVoting(uint256)": "infinite",
						"voters(address)": "infinite",
						"votes(uint256)": "infinite",
						"votingActive()": "2555",
						"votingEndTime()": "2426"
					}
				},
				"methodIdentifiers": {
					"admin()": "f851a440",
					"castVote(uint256)": "3eb76b9c",
					"endVoting()": "c3403ddf",
					"getResults()": "4717f97c",
					"options(uint256)": "409e2205",
					"registerVoter(address)": "38db6dd3",
					"startVoting(uint256)": "3d2f5bda",
					"voters(address)": "a3ec138d",
					"votes(uint256)": "5df81330",
					"votingActive()": "408e2727",
					"votingEndTime()": "1ea736e0"
				}
			},
			"storageLayout": {
				"storage": [
					{
						"astId": 10,
						"contract": "contracts/Voting.sol:Voting",
						"label": "admin",
						"offset": 0,
						"slot": "0",
						"type": "t_address"
					},
					{
						"astId": 15,
						"contract": "contracts/Voting.sol:Voting",
						"label": "voters",
						"offset": 0,
						"slot": "1",
						"type": "t_mapping(t_address,t_struct(Voter)8_storage)"
					},
					{
						"astId": 18,
						"contract": "contracts/Voting.sol:Voting",
						"label": "options",
						"offset": 0,
						"slot": "2",
						"type": "t_array(t_string_storage)dyn_storage"
					},
					{
						"astId": 21,
						"contract": "contracts/Voting.sol:Voting",
						"label": "votes",
						"offset": 0,
						"slot": "3",
						"type": "t_array(t_uint256)dyn_storage"
					},
					{
						"astId": 23,
						"contract": "contracts/Voting.sol:Voting",
						"label": "votingActive",
						"offset": 0,
						"slot": "4",
						"type": "t_bool"
					},
					{
						"astId": 25,
						"contract": "contracts/Voting.sol:Voting",
						"label": "votingEndTime",
						"offset": 0,
						"slot": "5",
						"type": "t_uint256"
					}
				],
				"types": {
					"t_address": {
						"encoding": "inplace",
						"label": "address",
						"numberOfBytes": "20"
					},
					"t_array(t_string_storage)dyn_storage": {
						"base": "t_string_storage",
						"encoding": "dynamic_array",
						"label": "string[]",
						"numberOfBytes": "32"
					},
					"t_array(t_uint256)dyn_storage": {
						"base": "t_uint256",
						"encoding": "dynamic_array",
						"label": "uint256[]",
						"numberOfBytes": "32"
					},
					"t_bool": {
						"encoding": "inplace",
						"label": "bool",
						"numberOfBytes": "1"
					},
					"t_mapping(t_address,t_struct(Voter)8_storage)": {
						"encoding": "mapping",
						"key": "t_address",
						"label": "mapping(address => struct Voting.Voter)",
						"numberOfBytes": "32",
						"value": "t_struct(Voter)8_storage"
					},
					"t_string_storage": {
						"encoding": "bytes",
						"label": "string",
						"numberOfBytes": "32"
					},
					"t_struct(Voter)8_storage": {
						"encoding": "inplace",
						"label": "struct Voting.Voter",
						"members": [
							{
								"astId": 3,
								"contract": "contracts/Voting.sol:Voting",
								"label": "isRegistered",
								"offset": 0,
								"slot": "0",
								"type": "t_bool"
							},
							{
								"astId": 5,
								"contract": "contracts/Voting.sol:Voting",
								"label": "hasVoted",
								"offset": 1,
								"slot": "0",
								"type": "t_bool"
							},
							{
								"astId": 7,
								"contract": "contracts/Voting.sol:Voting",
								"label": "vote",
								"offset": 0,
								"slot": "1",
								"type": "t_uint256"
							}
						],
						"numberOfBytes": "64"
					},
					"t_uint256": {
						"encoding": "inplace",
						"label": "uint256",
						"numberOfBytes": "32"
					}
				}
			},
			"userdoc": {
				"kind": "user",
				"methods": {},
				"version": 1
			}
		}
	}
}